{
  "abi": [
    {
      "inputs": [
        {
          "internalType": "address",
          "name": "_trustedCaller",
          "type": "address"
        },
        {
          "internalType": "address",
          "name": "_allowedRecipientsRegistry",
          "type": "address"
        }
      ],
      "stateMutability": "nonpayable",
      "type": "constructor"
    },
    {
      "inputs": [],
      "name": "allowedRecipientsRegistry",
      "outputs": [
        {
          "internalType": "contract AllowedRecipientsRegistry",
          "name": "",
          "type": "address"
        }
      ],
      "stateMutability": "view",
      "type": "function"
    },
    {
      "inputs": [
        {
          "internalType": "address",
          "name": "_creator",
          "type": "address"
        },
        {
          "internalType": "bytes",
          "name": "_evmScriptCallData",
          "type": "bytes"
        }
      ],
      "name": "createEVMScript",
      "outputs": [
        {
          "internalType": "bytes",
          "name": "",
          "type": "bytes"
        }
      ],
      "stateMutability": "view",
      "type": "function"
    },
    {
      "inputs": [
        {
          "internalType": "bytes",
          "name": "_evmScriptCallData",
          "type": "bytes"
        }
      ],
      "name": "decodeEVMScriptCallData",
      "outputs": [
        {
          "internalType": "address",
          "name": "recipientAddress",
          "type": "address"
        }
      ],
      "stateMutability": "pure",
      "type": "function"
    },
    {
      "inputs": [],
      "name": "trustedCaller",
      "outputs": [
        {
          "internalType": "address",
          "name": "",
          "type": "address"
        }
      ],
      "stateMutability": "view",
      "type": "function"
    }
  ],
  "bytecode": {
    "object": "0x60a060405234801561001057600080fd5b5060405161073338038061073383398101604081905261002f916100e8565b60408051808201909152601e81527f545255535445445f43414c4c45525f49535f5a45524f5f414444524553530000602082015282906001600160a01b0382166100955760405162461bcd60e51b815260040161008c919061011b565b60405180910390fd5b5060601b6001600160601b031916608052600080546001600160a01b0319166001600160a01b039290921691909117905550610170565b80516001600160a01b03811681146100e357600080fd5b919050565b600080604083850312156100fb57600080fd5b610104836100cc565b9150610112602084016100cc565b90509250929050565b600060208083528351808285015260005b818110156101485785810183015185820160400152820161012c565b8181111561015a576000604083870101525b50601f01601f1916929092016040019392505050565b60805160601c6105a0610193600039600081816056015260f101526105a06000f3fe608060405234801561001057600080fd5b506004361061004c5760003560e01c8063268f076014610051578063ecf7c69014610095578063fdcceb14146100a8578063fea21c9c146100bb575b600080fd5b6100787f000000000000000000000000000000000000000000000000000000000000000081565b6040516001600160a01b0390911681526020015b60405180910390f35b6100786100a3366004610401565b6100db565b600054610078906001600160a01b031681565b6100ce6100c936600461038f565b6100ec565b60405161008c91906104c3565b60006100e682610284565b92915050565b6060827f00000000000000000000000000000000000000000000000000000000000000006001600160a01b0316816001600160a01b0316146040518060400160405280601381526020017221a0a62622a92fa4a9afa327a92124a22222a760691b815250906101775760405162461bcd60e51b815260040161016e91906104c3565b60405180910390fd5b506000546001600160a01b0316638400c30761019285610284565b6040516001600160e01b031960e084901b1681526001600160a01b03909116600482015260240160206040518083038186803b1580156101d157600080fd5b505afa1580156101e5573d6000803e3d6000fd5b505050506040513d601f19601f8201168201806040525081019061020991906103df565b6040518060400160405280601b81526020017f414c4c4f5745445f524543495049454e545f4e4f545f464f554e4400000000008152509061025d5760405162461bcd60e51b815260040161016e91906104c3565b5060005461027c906001600160a01b0316630254523360e31b8561029a565b949350505050565b6000818060200190518101906100e6919061036b565b6060600160e01b84835160046102b091906104d6565b85856040516020016102c6959493929190610462565b60405160208183030381529060405290509392505050565b600082601f8301126102ef57600080fd5b813567ffffffffffffffff8082111561030a5761030a61053c565b604051601f8301601f19908116603f011681019082821181831017156103325761033261053c565b8160405283815286602085880101111561034b57600080fd5b836020870160208301376000602085830101528094505050505092915050565b60006020828403121561037d57600080fd5b815161038881610552565b9392505050565b600080604083850312156103a257600080fd5b82356103ad81610552565b9150602083013567ffffffffffffffff8111156103c957600080fd5b6103d5858286016102de565b9150509250929050565b6000602082840312156103f157600080fd5b8151801515811461038857600080fd5b60006020828403121561041357600080fd5b813567ffffffffffffffff81111561042a57600080fd5b61027c848285016102de565b6000815180845261044e81602086016020860161050c565b601f01601f19169290920160200192915050565b6001600160e01b03198681168252606086901b6bffffffffffffffffffffffff1916600483015260e085901b811660188301528316601c82015281516000906104b281602080860190870161050c565b919091016020019695505050505050565b6020815260006103886020830184610436565b600063ffffffff80831681851680830382111561050357634e487b7160e01b600052601160045260246000fd5b01949350505050565b60005b8381101561052757818101518382015260200161050f565b83811115610536576000848401525b50505050565b634e487b7160e01b600052604160045260246000fd5b6001600160a01b038116811461056757600080fd5b5056fea2646970667358221220219101fe3dfac540e82d76e5589723eff8e76fa08579e9bdbc942692a6622ae264736f6c63430008060033",
    "linkReferences": {}
  },
  "methodIdentifiers": {
    "allowedRecipientsRegistry()": "fdcceb14",
    "createEVMScript(address,bytes)": "fea21c9c",
    "decodeEVMScriptCallData(bytes)": "ecf7c690",
    "trustedCaller()": "268f0760"
  },
  "storageLayout": {
    "storage": [
      {
        "astId": 959,
        "contract": "contracts/EVMScriptFactories/RemoveAllowedRecipient.sol:RemoveAllowedRecipient",
        "label": "allowedRecipientsRegistry",
        "offset": 0,
        "slot": "0",
        "type": "t_contract(AllowedRecipientsRegistry)263"
      }
    ],
    "types": {
      "t_contract(AllowedRecipientsRegistry)263": {
        "encoding": "inplace",
        "label": "contract AllowedRecipientsRegistry",
        "numberOfBytes": "20"
      }
    }
  },
  "id": 5
}