{
  "abi": [
    {
      "inputs": [
        {
          "internalType": "address",
          "name": "_trustedCaller",
          "type": "address"
        },
        {
          "internalType": "address",
          "name": "_allowedRecipientsRegistry",
          "type": "address"
        },
        {
          "internalType": "address",
          "name": "_finance",
          "type": "address"
        },
        {
          "internalType": "address",
          "name": "_token",
          "type": "address"
        },
        {
          "internalType": "address",
          "name": "_easyTrack",
          "type": "address"
        }
      ],
      "stateMutability": "nonpayable",
      "type": "constructor"
    },
    {
      "inputs": [],
      "name": "allowedRecipientsRegistry",
      "outputs": [
        {
          "internalType": "contract AllowedRecipientsRegistry",
          "name": "",
          "type": "address"
        }
      ],
      "stateMutability": "view",
      "type": "function"
    },
    {
      "inputs": [
        {
          "internalType": "address",
          "name": "_creator",
          "type": "address"
        },
        {
          "internalType": "bytes",
          "name": "_evmScriptCallData",
          "type": "bytes"
        }
      ],
      "name": "createEVMScript",
      "outputs": [
        {
          "internalType": "bytes",
          "name": "",
          "type": "bytes"
        }
      ],
      "stateMutability": "view",
      "type": "function"
    },
    {
      "inputs": [
        {
          "internalType": "bytes",
          "name": "_evmScriptCallData",
          "type": "bytes"
        }
      ],
      "name": "decodeEVMScriptCallData",
      "outputs": [
        {
          "internalType": "address[]",
          "name": "recipients",
          "type": "address[]"
        },
        {
          "internalType": "uint256[]",
          "name": "amounts",
          "type": "uint256[]"
        }
      ],
      "stateMutability": "pure",
      "type": "function"
    },
    {
      "inputs": [],
      "name": "easyTrack",
      "outputs": [
        {
          "internalType": "contract EasyTrack",
          "name": "",
          "type": "address"
        }
      ],
      "stateMutability": "view",
      "type": "function"
    },
    {
      "inputs": [],
      "name": "finance",
      "outputs": [
        {
          "internalType": "contract IFinance",
          "name": "",
          "type": "address"
        }
      ],
      "stateMutability": "view",
      "type": "function"
    },
    {
      "inputs": [],
      "name": "token",
      "outputs": [
        {
          "internalType": "address",
          "name": "",
          "type": "address"
        }
      ],
      "stateMutability": "view",
      "type": "function"
    },
    {
      "inputs": [],
      "name": "trustedCaller",
      "outputs": [
        {
          "internalType": "address",
          "name": "",
          "type": "address"
        }
      ],
      "stateMutability": "view",
      "type": "function"
    }
  ],
  "bytecode": {
    "object": "0x60e06040523480156200001157600080fd5b506040516200126e3803806200126e833981016040819052620000349162000114565b60408051808201909152601e81527f545255535445445f43414c4c45525f49535f5a45524f5f414444524553530000602082015285906001600160a01b0382166200009d5760405162461bcd60e51b815260040162000094919062000184565b60405180910390fd5b506001600160601b0319606091821b811660805293811b841660c052600080546001600160a01b039485166001600160a01b031991821617909155600180549690941695169490941790915590911b1660a05250620001dc565b80516001600160a01b03811681146200010f57600080fd5b919050565b600080600080600060a086880312156200012d57600080fd5b6200013886620000f7565b94506200014860208701620000f7565b93506200015860408701620000f7565b92506200016860608701620000f7565b91506200017860808701620000f7565b90509295509295909350565b600060208083528351808285015260005b81811015620001b35785810183015185820160400152820162000195565b81811115620001c6576000604083870101525b50601f01601f1916929092016040019392505050565b60805160601c60a05160601c60c05160601c611047620002276000396000818160cb01526103fb01526000818160f201526109a40152600081816087015261019501526110476000f3fe608060405234801561001057600080fd5b506004361061007d5760003560e01c8063ecf7c6901161005b578063ecf7c69014610114578063fc0c546a14610135578063fdcceb1414610148578063fea21c9c1461015b57600080fd5b8063268f076014610082578063313b7b19146100c6578063c368df7e146100ed575b600080fd5b6100a97f000000000000000000000000000000000000000000000000000000000000000081565b6040516001600160a01b0390911681526020015b60405180910390f35b6100a97f000000000000000000000000000000000000000000000000000000000000000081565b6100a97f000000000000000000000000000000000000000000000000000000000000000081565b610127610122366004610d1c565b61017b565b6040516100bd929190610e56565b6000546100a9906001600160a01b031681565b6001546100a9906001600160a01b031681565b61016e610169366004610be1565b610190565b6040516100bd9190610ecd565b60608061018783610598565b91509150915091565b6060827f00000000000000000000000000000000000000000000000000000000000000006001600160a01b0316816001600160a01b0316146040518060400160405280601381526020017221a0a62622a92fa4a9afa327a92124a22222a760691b8152509061021b5760405162461bcd60e51b81526004016102129190610ecd565b60405180910390fd5b5060008061022885610598565b91509150600061023883836105af565b905060008351600161024a9190610f35565b67ffffffffffffffff81111561026257610262610fe3565b60405190808252806020026020018201604052801561028b578160200160208202803683370190505b50905060008451600161029e9190610f35565b67ffffffffffffffff8111156102b6576102b6610fe3565b6040519080825280602002602001820160405280156102df578160200160208202803683370190505b5090506000855160016102f29190610f35565b67ffffffffffffffff81111561030a5761030a610fe3565b60405190808252806020026020018201604052801561033d57816020015b60608152602001906001900390816103285790505b5060015484519192506001600160a01b031690849060009061036157610361610fcd565b60200260200101906001600160a01b031690816001600160a01b031681525050636667122960e01b8260008151811061039c5761039c610fcd565b6001600160e01b0319929092166020928302919091018201526040805191820186905201604051602081830303815290604052816000815181106103e2576103e2610fcd565b602002602001018190525060005b865181101561057e577f000000000000000000000000000000000000000000000000000000000000000084610426836001610f35565b8151811061043657610436610fcd565b6001600160a01b0390921660209283029190910190910152637b1b242360e11b83610462836001610f35565b8151811061047257610472610fcd565b6001600160e01b03199092166020928302919091019091015260005487516001600160a01b03909116908890839081106104ae576104ae610fcd565b60200260200101518783815181106104c8576104c8610fcd565b6020026020010151604051602001610536939291906001600160a01b0393841681529190921660208201526040810191909152608060608201819052601c908201527f4561737920547261636b3a20746f7020757020726563697069656e740000000060a082015260c00190565b60408051601f1981840301815291905282610552836001610f35565b8151811061056257610562610fcd565b60200260200101819052508061057790610f9c565b90506103f0565b5061058a8383836107f0565b9a9950505050505050505050565b606080828060200190518101906101879190610c31565b600082518251146040518060400160405280600f81526020016e0988a9c8ea890be9a92a69a82a8869608b1b815250906105fc5760405162461bcd60e51b81526004016102129190610ecd565b5060008351116040518060400160405280600a815260200169454d5054595f4441544160b01b815250906106435760405162461bcd60e51b81526004016102129190610ecd565b5060005b83518110156107e057600083828151811061066457610664610fcd565b6020026020010151116040518060400160405280600b81526020016a16915493d7d05353d5539560aa1b815250906106af5760405162461bcd60e51b81526004016102129190610ecd565b5060015484516001600160a01b0390911690638400c307908690849081106106d9576106d9610fcd565b60200260200101516040518263ffffffff1660e01b815260040161070c91906001600160a01b0391909116815260200190565b60206040518083038186803b15801561072457600080fd5b505afa158015610738573d6000803e3d6000fd5b505050506040513d601f19601f8201168201806040525081019061075c9190610cf3565b60405180604001604052806015815260200174149150d2541251539517d393d517d0531313d5d151605a1b815250906107a85760405162461bcd60e51b81526004016102129190610ecd565b508281815181106107bb576107bb610fcd565b6020026020010151826107ce9190610f35565b91506107d981610f9c565b9050610647565b506107ea8161097d565b92915050565b606082518451146108355760405162461bcd60e51b815260206004820152600f60248201526e0988a9c8ea890be9a92a69a82a8869608b1b6044820152606401610212565b81518451146108785760405162461bcd60e51b815260206004820152600f60248201526e0988a9c8ea890be9a92a69a82a8869608b1b6044820152606401610212565b60005b845181101561094d578185828151811061089757610897610fcd565b60200260200101518483815181106108b1576108b1610fcd565b60200260200101515160046108c69190610f4d565b8684815181106108d8576108d8610fcd565b60200260200101518685815181106108f2576108f2610fcd565b602002602001015160405160200161090d9493929190610d9e565b60408051601f198184030181529082905261092b9291602001610e27565b60405160208183030381529060405291508061094690610f9c565b905061087b565b50600160e01b81604051602001610965929190610df6565b60405160208183030381529060405290509392505050565b600160009054906101000a90046001600160a01b03166001600160a01b0316634ba578ab827f00000000000000000000000000000000000000000000000000000000000000006001600160a01b03166364993a736040518163ffffffff1660e01b815260040160206040518083038186803b1580156109fb57600080fd5b505afa158015610a0f573d6000803e3d6000fd5b505050506040513d601f19601f82011682018060405250810190610a339190610d59565b6040516001600160e01b031960e085901b1681526004810192909252602482015260440160206040518083038186803b158015610a6f57600080fd5b505afa158015610a83573d6000803e3d6000fd5b505050506040513d601f19601f82011682018060405250810190610aa79190610cf3565b6040518060400160405280601d81526020017f53554d5f455843454544535f5350454e4441424c455f42414c414e434500000081525090610afb5760405162461bcd60e51b81526004016102129190610ecd565b5050565b600082601f830112610b1057600080fd5b81516020610b25610b2083610f11565b610ee0565b80838252828201915082860187848660051b8901011115610b4557600080fd5b60005b85811015610b6457815184529284019290840190600101610b48565b5090979650505050505050565b600082601f830112610b8257600080fd5b813567ffffffffffffffff811115610b9c57610b9c610fe3565b610baf601f8201601f1916602001610ee0565b818152846020838601011115610bc457600080fd5b816020850160208301376000918101602001919091529392505050565b60008060408385031215610bf457600080fd5b8235610bff81610ff9565b9150602083013567ffffffffffffffff811115610c1b57600080fd5b610c2785828601610b71565b9150509250929050565b60008060408385031215610c4457600080fd5b825167ffffffffffffffff80821115610c5c57600080fd5b818501915085601f830112610c7057600080fd5b81516020610c80610b2083610f11565b8083825282820191508286018a848660051b8901011115610ca057600080fd5b600096505b84871015610ccc578051610cb881610ff9565b835260019690960195918301918301610ca5565b5091880151919650909350505080821115610ce657600080fd5b50610c2785828601610aff565b600060208284031215610d0557600080fd5b81518015158114610d1557600080fd5b9392505050565b600060208284031215610d2e57600080fd5b813567ffffffffffffffff811115610d4557600080fd5b610d5184828501610b71565b949350505050565b600060208284031215610d6b57600080fd5b5051919050565b60008151808452610d8a816020860160208601610f6c565b601f01601f19169290920160200192915050565b6bffffffffffffffffffffffff19606086901b1681526001600160e01b031960e085901b81166014830152831660188201528151600090610de681601c850160208701610f6c565b91909101601c0195945050505050565b6001600160e01b0319831681528151600090610e19816004850160208701610f6c565b919091016004019392505050565b60008351610e39818460208801610f6c565b835190830190610e4d818360208801610f6c565b01949350505050565b604080825283519082018190526000906020906060840190828701845b82811015610e985781516001600160a01b031684529284019290840190600101610e73565b5050508381038285015284518082528583019183019060005b81811015610b6457835183529284019291840191600101610eb1565b602081526000610d156020830184610d72565b604051601f8201601f1916810167ffffffffffffffff81118282101715610f0957610f09610fe3565b604052919050565b600067ffffffffffffffff821115610f2b57610f2b610fe3565b5060051b60200190565b60008219821115610f4857610f48610fb7565b500190565b600063ffffffff808316818516808303821115610e4d57610e4d610fb7565b60005b83811015610f87578181015183820152602001610f6f565b83811115610f96576000848401525b50505050565b6000600019821415610fb057610fb0610fb7565b5060010190565b634e487b7160e01b600052601160045260246000fd5b634e487b7160e01b600052603260045260246000fd5b634e487b7160e01b600052604160045260246000fd5b6001600160a01b038116811461100e57600080fd5b5056fea264697066735822122000277657b9b274219277556de7b60064c674bec0c427cbc0f844ea6713954cee64736f6c63430008060033",
    "linkReferences": {}
  },
  "methodIdentifiers": {
    "allowedRecipientsRegistry()": "fdcceb14",
    "createEVMScript(address,bytes)": "fea21c9c",
    "decodeEVMScriptCallData(bytes)": "ecf7c690",
    "easyTrack()": "c368df7e",
    "finance()": "313b7b19",
    "token()": "fc0c546a",
    "trustedCaller()": "268f0760"
  },
  "storageLayout": {
    "storage": [
      {
        "astId": 1184,
        "contract": "contracts/EVMScriptFactories/TopUpAllowedRecipients.sol:TopUpAllowedRecipients",
        "label": "token",
        "offset": 0,
        "slot": "0",
        "type": "t_address"
      },
      {
        "astId": 1188,
        "contract": "contracts/EVMScriptFactories/TopUpAllowedRecipients.sol:TopUpAllowedRecipients",
        "label": "allowedRecipientsRegistry",
        "offset": 0,
        "slot": "1",
        "type": "t_contract(AllowedRecipientsRegistry)263"
      }
    ],
    "types": {
      "t_address": {
        "encoding": "inplace",
        "label": "address",
        "numberOfBytes": "20"
      },
      "t_contract(AllowedRecipientsRegistry)263": {
        "encoding": "inplace",
        "label": "contract AllowedRecipientsRegistry",
        "numberOfBytes": "20"
      }
    }
  },
  "id": 7
}