{
  "abi": [
    {
      "inputs": [
        {
          "internalType": "address",
          "name": "_trustedCaller",
          "type": "address"
        },
        {
          "internalType": "address",
          "name": "_rewardProgramsRegistry",
          "type": "address"
        }
      ],
      "stateMutability": "nonpayable",
      "type": "constructor"
    },
    {
      "inputs": [
        {
          "internalType": "address",
          "name": "_creator",
          "type": "address"
        },
        {
          "internalType": "bytes",
          "name": "_evmScriptCallData",
          "type": "bytes"
        }
      ],
      "name": "createEVMScript",
      "outputs": [
        {
          "internalType": "bytes",
          "name": "",
          "type": "bytes"
        }
      ],
      "stateMutability": "view",
      "type": "function"
    },
    {
      "inputs": [
        {
          "internalType": "bytes",
          "name": "_evmScriptCallData",
          "type": "bytes"
        }
      ],
      "name": "decodeEVMScriptCallData",
      "outputs": [
        {
          "internalType": "address",
          "name": "",
          "type": "address"
        },
        {
          "internalType": "string",
          "name": "",
          "type": "string"
        }
      ],
      "stateMutability": "pure",
      "type": "function"
    },
    {
      "inputs": [],
      "name": "rewardProgramsRegistry",
      "outputs": [
        {
          "internalType": "contract RewardProgramsRegistry",
          "name": "",
          "type": "address"
        }
      ],
      "stateMutability": "view",
      "type": "function"
    },
    {
      "inputs": [],
      "name": "trustedCaller",
      "outputs": [
        {
          "internalType": "address",
          "name": "",
          "type": "address"
        }
      ],
      "stateMutability": "view",
      "type": "function"
    }
  ],
  "bytecode": {
    "object": "0x60c060405234801561001057600080fd5b5060405161084e38038061084e83398101604081905261002f916100d2565b60408051808201909152601e81527f545255535445445f43414c4c45525f49535f5a45524f5f414444524553530000602082015282906001600160a01b0382166100955760405162461bcd60e51b815260040161008c9190610105565b60405180910390fd5b506001600160601b0319606091821b811660805291901b1660a0525061015a565b80516001600160a01b03811681146100cd57600080fd5b919050565b600080604083850312156100e557600080fd5b6100ee836100b6565b91506100fc602084016100b6565b90509250929050565b600060208083528351808285015260005b8181101561013257858101830151858201604001528201610116565b81811115610144576000604083870101525b50601f01601f1916929092016040019392505050565b60805160601c60a05160601c6106b661019860003960008181609a015281816101cd01526102a40152600081816056015261011801526106b66000f3fe608060405234801561001057600080fd5b506004361061004c5760003560e01c8063268f0760146100515780633f052ae914610095578063ecf7c690146100bc578063fea21c9c146100dd575b600080fd5b6100787f000000000000000000000000000000000000000000000000000000000000000081565b6040516001600160a01b0390911681526020015b60405180910390f35b6100787f000000000000000000000000000000000000000000000000000000000000000081565b6100cf6100ca366004610492565b6100fd565b60405161008c92919061055c565b6100f06100eb366004610419565b610113565b60405161008c9190610580565b6000606061010a836102da565b91509150915091565b6060827f00000000000000000000000000000000000000000000000000000000000000006001600160a01b0316816001600160a01b0316146040518060400160405280601381526020017221a0a62622a92fa4a9afa327a92124a22222a760691b8152509061019e5760405162461bcd60e51b81526004016101959190610580565b60405180910390fd5b5060006101aa846102da565b50604051632549560760e21b81526001600160a01b0380831660048301529192507f000000000000000000000000000000000000000000000000000000000000000090911690639525581c9060240160206040518083038186803b15801561021157600080fd5b505afa158015610225573d6000803e3d6000fd5b505050506040513d601f19601f820116820180604052508101906102499190610469565b156040518060400160405280601c81526020017f5245574152445f50524f4752414d5f414c52454144595f4144444544000000008152509061029e5760405162461bcd60e51b81526004016101959190610580565b506102d17f000000000000000000000000000000000000000000000000000000000000000063fa508cef60e01b866102f2565b95945050505050565b600060608280602001905181019061010a919061038c565b6060600160e01b848351600461030891906105ec565b858560405160200161031e9594939291906104fb565b60405160208183030381529060405290509392505050565b600082601f83011261034757600080fd5b813561035a610355826105c4565b610593565b81815284602083860101111561036f57600080fd5b816020850160208301376000918101602001919091529392505050565b6000806040838503121561039f57600080fd5b82516103aa81610668565b602084015190925067ffffffffffffffff8111156103c757600080fd5b8301601f810185136103d857600080fd5b80516103e6610355826105c4565b8181528660208385010111156103fb57600080fd5b61040c826020830160208601610622565b8093505050509250929050565b6000806040838503121561042c57600080fd5b823561043781610668565b9150602083013567ffffffffffffffff81111561045357600080fd5b61045f85828601610336565b9150509250929050565b60006020828403121561047b57600080fd5b8151801515811461048b57600080fd5b9392505050565b6000602082840312156104a457600080fd5b813567ffffffffffffffff8111156104bb57600080fd5b6104c784828501610336565b949350505050565b600081518084526104e7816020860160208601610622565b601f01601f19169290920160200192915050565b6001600160e01b03198681168252606086901b6bffffffffffffffffffffffff1916600483015260e085901b811660188301528316601c820152815160009061054b816020808601908701610622565b919091016020019695505050505050565b6001600160a01b03831681526040602082018190526000906104c7908301846104cf565b60208152600061048b60208301846104cf565b604051601f8201601f1916810167ffffffffffffffff811182821017156105bc576105bc610652565b604052919050565b600067ffffffffffffffff8211156105de576105de610652565b50601f01601f191660200190565b600063ffffffff80831681851680830382111561061957634e487b7160e01b600052601160045260246000fd5b01949350505050565b60005b8381101561063d578181015183820152602001610625565b8381111561064c576000848401525b50505050565b634e487b7160e01b600052604160045260246000fd5b6001600160a01b038116811461067d57600080fd5b5056fea264697066735822122032dc494621a8b19913676304f849486c9676a5c24c35d0ac1d18718073e4939a64736f6c63430008060033",
    "linkReferences": {}
  },
  "methodIdentifiers": {
    "createEVMScript(address,bytes)": "fea21c9c",
    "decodeEVMScriptCallData(bytes)": "ecf7c690",
    "rewardProgramsRegistry()": "3f052ae9",
    "trustedCaller()": "268f0760"
  },
  "storageLayout": {
    "storage": [],
    "types": {}
  },
  "id": 3
}