{
  "abi": [
    {
      "inputs": [
        {
          "internalType": "address",
          "name": "_governanceToken",
          "type": "address"
        },
        {
          "internalType": "address",
          "name": "_admin",
          "type": "address"
        },
        {
          "internalType": "uint256",
          "name": "_motionDuration",
          "type": "uint256"
        },
        {
          "internalType": "uint256",
          "name": "_motionsCountLimit",
          "type": "uint256"
        },
        {
          "internalType": "uint256",
          "name": "_objectionsThreshold",
          "type": "uint256"
        }
      ],
      "stateMutability": "nonpayable",
      "type": "constructor"
    },
    {
      "anonymous": false,
      "inputs": [
        {
          "indexed": true,
          "internalType": "address",
          "name": "_evmScriptExecutor",
          "type": "address"
        }
      ],
      "name": "EVMScriptExecutorChanged",
      "type": "event"
    },
    {
      "anonymous": false,
      "inputs": [
        {
          "indexed": true,
          "internalType": "address",
          "name": "_evmScriptFactory",
          "type": "address"
        },
        {
          "indexed": false,
          "internalType": "bytes",
          "name": "_permissions",
          "type": "bytes"
        }
      ],
      "name": "EVMScriptFactoryAdded",
      "type": "event"
    },
    {
      "anonymous": false,
      "inputs": [
        {
          "indexed": true,
          "internalType": "address",
          "name": "_evmScriptFactory",
          "type": "address"
        }
      ],
      "name": "EVMScriptFactoryRemoved",
      "type": "event"
    },
    {
      "anonymous": false,
      "inputs": [
        {
          "indexed": true,
          "internalType": "uint256",
          "name": "_motionId",
          "type": "uint256"
        }
      ],
      "name": "MotionCanceled",
      "type": "event"
    },
    {
      "anonymous": false,
      "inputs": [
        {
          "indexed": true,
          "internalType": "uint256",
          "name": "_motionId",
          "type": "uint256"
        },
        {
          "indexed": false,
          "internalType": "address",
          "name": "_creator",
          "type": "address"
        },
        {
          "indexed": true,
          "internalType": "address",
          "name": "_evmScriptFactory",
          "type": "address"
        },
        {
          "indexed": false,
          "internalType": "bytes",
          "name": "_evmScriptCallData",
          "type": "bytes"
        },
        {
          "indexed": false,
          "internalType": "bytes",
          "name": "_evmScript",
          "type": "bytes"
        }
      ],
      "name": "MotionCreated",
      "type": "event"
    },
    {
      "anonymous": false,
      "inputs": [
        {
          "indexed": false,
          "internalType": "uint256",
          "name": "_motionDuration",
          "type": "uint256"
        }
      ],
      "name": "MotionDurationChanged",
      "type": "event"
    },
    {
      "anonymous": false,
      "inputs": [
        {
          "indexed": true,
          "internalType": "uint256",
          "name": "_motionId",
          "type": "uint256"
        }
      ],
      "name": "MotionEnacted",
      "type": "event"
    },
    {
      "anonymous": false,
      "inputs": [
        {
          "indexed": true,
          "internalType": "uint256",
          "name": "_motionId",
          "type": "uint256"
        },
        {
          "indexed": true,
          "internalType": "address",
          "name": "_objector",
          "type": "address"
        },
        {
          "indexed": false,
          "internalType": "uint256",
          "name": "_weight",
          "type": "uint256"
        },
        {
          "indexed": false,
          "internalType": "uint256",
          "name": "_newObjectionsAmount",
          "type": "uint256"
        },
        {
          "indexed": false,
          "internalType": "uint256",
          "name": "_newObjectionsAmountPct",
          "type": "uint256"
        }
      ],
      "name": "MotionObjected",
      "type": "event"
    },
    {
      "anonymous": false,
      "inputs": [
        {
          "indexed": true,
          "internalType": "uint256",
          "name": "_motionId",
          "type": "uint256"
        }
      ],
      "name": "MotionRejected",
      "type": "event"
    },
    {
      "anonymous": false,
      "inputs": [
        {
          "indexed": false,
          "internalType": "uint256",
          "name": "_newMotionsCountLimit",
          "type": "uint256"
        }
      ],
      "name": "MotionsCountLimitChanged",
      "type": "event"
    },
    {
      "anonymous": false,
      "inputs": [
        {
          "indexed": false,
          "internalType": "uint256",
          "name": "_newThreshold",
          "type": "uint256"
        }
      ],
      "name": "ObjectionsThresholdChanged",
      "type": "event"
    },
    {
      "anonymous": false,
      "inputs": [
        {
          "indexed": false,
          "internalType": "address",
          "name": "account",
          "type": "address"
        }
      ],
      "name": "Paused",
      "type": "event"
    },
    {
      "anonymous": false,
      "inputs": [
        {
          "indexed": true,
          "internalType": "bytes32",
          "name": "role",
          "type": "bytes32"
        },
        {
          "indexed": true,
          "internalType": "bytes32",
          "name": "previousAdminRole",
          "type": "bytes32"
        },
        {
          "indexed": true,
          "internalType": "bytes32",
          "name": "newAdminRole",
          "type": "bytes32"
        }
      ],
      "name": "RoleAdminChanged",
      "type": "event"
    },
    {
      "anonymous": false,
      "inputs": [
        {
          "indexed": true,
          "internalType": "bytes32",
          "name": "role",
          "type": "bytes32"
        },
        {
          "indexed": true,
          "internalType": "address",
          "name": "account",
          "type": "address"
        },
        {
          "indexed": true,
          "internalType": "address",
          "name": "sender",
          "type": "address"
        }
      ],
      "name": "RoleGranted",
      "type": "event"
    },
    {
      "anonymous": false,
      "inputs": [
        {
          "indexed": true,
          "internalType": "bytes32",
          "name": "role",
          "type": "bytes32"
        },
        {
          "indexed": true,
          "internalType": "address",
          "name": "account",
          "type": "address"
        },
        {
          "indexed": true,
          "internalType": "address",
          "name": "sender",
          "type": "address"
        }
      ],
      "name": "RoleRevoked",
      "type": "event"
    },
    {
      "anonymous": false,
      "inputs": [
        {
          "indexed": false,
          "internalType": "address",
          "name": "account",
          "type": "address"
        }
      ],
      "name": "Unpaused",
      "type": "event"
    },
    {
      "inputs": [],
      "name": "CANCEL_ROLE",
      "outputs": [
        {
          "internalType": "bytes32",
          "name": "",
          "type": "bytes32"
        }
      ],
      "stateMutability": "view",
      "type": "function"
    },
    {
      "inputs": [],
      "name": "DEFAULT_ADMIN_ROLE",
      "outputs": [
        {
          "internalType": "bytes32",
          "name": "",
          "type": "bytes32"
        }
      ],
      "stateMutability": "view",
      "type": "function"
    },
    {
      "inputs": [],
      "name": "MAX_MOTIONS_LIMIT",
      "outputs": [
        {
          "internalType": "uint256",
          "name": "",
          "type": "uint256"
        }
      ],
      "stateMutability": "view",
      "type": "function"
    },
    {
      "inputs": [],
      "name": "MAX_OBJECTIONS_THRESHOLD",
      "outputs": [
        {
          "internalType": "uint256",
          "name": "",
          "type": "uint256"
        }
      ],
      "stateMutability": "view",
      "type": "function"
    },
    {
      "inputs": [],
      "name": "MIN_MOTION_DURATION",
      "outputs": [
        {
          "internalType": "uint256",
          "name": "",
          "type": "uint256"
        }
      ],
      "stateMutability": "view",
      "type": "function"
    },
    {
      "inputs": [],
      "name": "PAUSE_ROLE",
      "outputs": [
        {
          "internalType": "bytes32",
          "name": "",
          "type": "bytes32"
        }
      ],
      "stateMutability": "view",
      "type": "function"
    },
    {
      "inputs": [],
      "name": "UNPAUSE_ROLE",
      "outputs": [
        {
          "internalType": "bytes32",
          "name": "",
          "type": "bytes32"
        }
      ],
      "stateMutability": "view",
      "type": "function"
    },
    {
      "inputs": [
        {
          "internalType": "address",
          "name": "_evmScriptFactory",
          "type": "address"
        },
        {
          "internalType": "bytes",
          "name": "_permissions",
          "type": "bytes"
        }
      ],
      "name": "addEVMScriptFactory",
      "outputs": [],
      "stateMutability": "nonpayable",
      "type": "function"
    },
    {
      "inputs": [
        {
          "internalType": "uint256",
          "name": "_motionId",
          "type": "uint256"
        },
        {
          "internalType": "address",
          "name": "_objector",
          "type": "address"
        }
      ],
      "name": "canObjectToMotion",
      "outputs": [
        {
          "internalType": "bool",
          "name": "",
          "type": "bool"
        }
      ],
      "stateMutability": "view",
      "type": "function"
    },
    {
      "inputs": [],
      "name": "cancelAllMotions",
      "outputs": [],
      "stateMutability": "nonpayable",
      "type": "function"
    },
    {
      "inputs": [
        {
          "internalType": "uint256",
          "name": "_motionId",
          "type": "uint256"
        }
      ],
      "name": "cancelMotion",
      "outputs": [],
      "stateMutability": "nonpayable",
      "type": "function"
    },
    {
      "inputs": [
        {
          "internalType": "uint256[]",
          "name": "_motionIds",
          "type": "uint256[]"
        }
      ],
      "name": "cancelMotions",
      "outputs": [],
      "stateMutability": "nonpayable",
      "type": "function"
    },
    {
      "inputs": [
        {
          "internalType": "address",
          "name": "_evmScriptFactory",
          "type": "address"
        },
        {
          "internalType": "bytes",
          "name": "_evmScriptCallData",
          "type": "bytes"
        }
      ],
      "name": "createMotion",
      "outputs": [
        {
          "internalType": "uint256",
          "name": "_newMotionId",
          "type": "uint256"
        }
      ],
      "stateMutability": "nonpayable",
      "type": "function"
    },
    {
      "inputs": [
        {
          "internalType": "uint256",
          "name": "_motionId",
          "type": "uint256"
        },
        {
          "internalType": "bytes",
          "name": "_evmScriptCallData",
          "type": "bytes"
        }
      ],
      "name": "enactMotion",
      "outputs": [],
      "stateMutability": "nonpayable",
      "type": "function"
    },
    {
      "inputs": [],
      "name": "evmScriptExecutor",
      "outputs": [
        {
          "internalType": "contract IEVMScriptExecutor",
          "name": "",
          "type": "address"
        }
      ],
      "stateMutability": "view",
      "type": "function"
    },
    {
      "inputs": [
        {
          "internalType": "uint256",
          "name": "",
          "type": "uint256"
        }
      ],
      "name": "evmScriptFactories",
      "outputs": [
        {
          "internalType": "address",
          "name": "",
          "type": "address"
        }
      ],
      "stateMutability": "view",
      "type": "function"
    },
    {
      "inputs": [
        {
          "internalType": "address",
          "name": "",
          "type": "address"
        }
      ],
      "name": "evmScriptFactoryPermissions",
      "outputs": [
        {
          "internalType": "bytes",
          "name": "",
          "type": "bytes"
        }
      ],
      "stateMutability": "view",
      "type": "function"
    },
    {
      "inputs": [],
      "name": "getEVMScriptFactories",
      "outputs": [
        {
          "internalType": "address[]",
          "name": "",
          "type": "address[]"
        }
      ],
      "stateMutability": "view",
      "type": "function"
    },
    {
      "inputs": [
        {
          "internalType": "uint256",
          "name": "_motionId",
          "type": "uint256"
        }
      ],
      "name": "getMotion",
      "outputs": [
        {
          "components": [
            {
              "internalType": "uint256",
              "name": "id",
              "type": "uint256"
            },
            {
              "internalType": "address",
              "name": "evmScriptFactory",
              "type": "address"
            },
            {
              "internalType": "address",
              "name": "creator",
              "type": "address"
            },
            {
              "internalType": "uint256",
              "name": "duration",
              "type": "uint256"
            },
            {
              "internalType": "uint256",
              "name": "startDate",
              "type": "uint256"
            },
            {
              "internalType": "uint256",
              "name": "snapshotBlock",
              "type": "uint256"
            },
            {
              "internalType": "uint256",
              "name": "objectionsThreshold",
              "type": "uint256"
            },
            {
              "internalType": "uint256",
              "name": "objectionsAmount",
              "type": "uint256"
            },
            {
              "internalType": "bytes32",
              "name": "evmScriptHash",
              "type": "bytes32"
            }
          ],
          "internalType": "struct EasyTrack.Motion",
          "name": "",
          "type": "tuple"
        }
      ],
      "stateMutability": "view",
      "type": "function"
    },
    {
      "inputs": [],
      "name": "getMotions",
      "outputs": [
        {
          "components": [
            {
              "internalType": "uint256",
              "name": "id",
              "type": "uint256"
            },
            {
              "internalType": "address",
              "name": "evmScriptFactory",
              "type": "address"
            },
            {
              "internalType": "address",
              "name": "creator",
              "type": "address"
            },
            {
              "internalType": "uint256",
              "name": "duration",
              "type": "uint256"
            },
            {
              "internalType": "uint256",
              "name": "startDate",
              "type": "uint256"
            },
            {
              "internalType": "uint256",
              "name": "snapshotBlock",
              "type": "uint256"
            },
            {
              "internalType": "uint256",
              "name": "objectionsThreshold",
              "type": "uint256"
            },
            {
              "internalType": "uint256",
              "name": "objectionsAmount",
              "type": "uint256"
            },
            {
              "internalType": "bytes32",
              "name": "evmScriptHash",
              "type": "bytes32"
            }
          ],
          "internalType": "struct EasyTrack.Motion[]",
          "name": "",
          "type": "tuple[]"
        }
      ],
      "stateMutability": "view",
      "type": "function"
    },
    {
      "inputs": [
        {
          "internalType": "bytes32",
          "name": "role",
          "type": "bytes32"
        }
      ],
      "name": "getRoleAdmin",
      "outputs": [
        {
          "internalType": "bytes32",
          "name": "",
          "type": "bytes32"
        }
      ],
      "stateMutability": "view",
      "type": "function"
    },
    {
      "inputs": [],
      "name": "governanceToken",
      "outputs": [
        {
          "internalType": "contract IMiniMeToken",
          "name": "",
          "type": "address"
        }
      ],
      "stateMutability": "view",
      "type": "function"
    },
    {
      "inputs": [
        {
          "internalType": "bytes32",
          "name": "role",
          "type": "bytes32"
        },
        {
          "internalType": "address",
          "name": "account",
          "type": "address"
        }
      ],
      "name": "grantRole",
      "outputs": [],
      "stateMutability": "nonpayable",
      "type": "function"
    },
    {
      "inputs": [
        {
          "internalType": "bytes32",
          "name": "role",
          "type": "bytes32"
        },
        {
          "internalType": "address",
          "name": "account",
          "type": "address"
        }
      ],
      "name": "hasRole",
      "outputs": [
        {
          "internalType": "bool",
          "name": "",
          "type": "bool"
        }
      ],
      "stateMutability": "view",
      "type": "function"
    },
    {
      "inputs": [
        {
          "internalType": "address",
          "name": "_maybeEVMScriptFactory",
          "type": "address"
        }
      ],
      "name": "isEVMScriptFactory",
      "outputs": [
        {
          "internalType": "bool",
          "name": "",
          "type": "bool"
        }
      ],
      "stateMutability": "view",
      "type": "function"
    },
    {
      "inputs": [],
      "name": "motionDuration",
      "outputs": [
        {
          "internalType": "uint256",
          "name": "",
          "type": "uint256"
        }
      ],
      "stateMutability": "view",
      "type": "function"
    },
    {
      "inputs": [
        {
          "internalType": "uint256",
          "name": "",
          "type": "uint256"
        }
      ],
      "name": "motions",
      "outputs": [
        {
          "internalType": "uint256",
          "name": "id",
          "type": "uint256"
        },
        {
          "internalType": "address",
          "name": "evmScriptFactory",
          "type": "address"
        },
        {
          "internalType": "address",
          "name": "creator",
          "type": "address"
        },
        {
          "internalType": "uint256",
          "name": "duration",
          "type": "uint256"
        },
        {
          "internalType": "uint256",
          "name": "startDate",
          "type": "uint256"
        },
        {
          "internalType": "uint256",
          "name": "snapshotBlock",
          "type": "uint256"
        },
        {
          "internalType": "uint256",
          "name": "objectionsThreshold",
          "type": "uint256"
        },
        {
          "internalType": "uint256",
          "name": "objectionsAmount",
          "type": "uint256"
        },
        {
          "internalType": "bytes32",
          "name": "evmScriptHash",
          "type": "bytes32"
        }
      ],
      "stateMutability": "view",
      "type": "function"
    },
    {
      "inputs": [],
      "name": "motionsCountLimit",
      "outputs": [
        {
          "internalType": "uint256",
          "name": "",
          "type": "uint256"
        }
      ],
      "stateMutability": "view",
      "type": "function"
    },
    {
      "inputs": [
        {
          "internalType": "uint256",
          "name": "_motionId",
          "type": "uint256"
        }
      ],
      "name": "objectToMotion",
      "outputs": [],
      "stateMutability": "nonpayable",
      "type": "function"
    },
    {
      "inputs": [
        {
          "internalType": "uint256",
          "name": "",
          "type": "uint256"
        },
        {
          "internalType": "address",
          "name": "",
          "type": "address"
        }
      ],
      "name": "objections",
      "outputs": [
        {
          "internalType": "bool",
          "name": "",
          "type": "bool"
        }
      ],
      "stateMutability": "view",
      "type": "function"
    },
    {
      "inputs": [],
      "name": "objectionsThreshold",
      "outputs": [
        {
          "internalType": "uint256",
          "name": "",
          "type": "uint256"
        }
      ],
      "stateMutability": "view",
      "type": "function"
    },
    {
      "inputs": [],
      "name": "pause",
      "outputs": [],
      "stateMutability": "nonpayable",
      "type": "function"
    },
    {
      "inputs": [],
      "name": "paused",
      "outputs": [
        {
          "internalType": "bool",
          "name": "",
          "type": "bool"
        }
      ],
      "stateMutability": "view",
      "type": "function"
    },
    {
      "inputs": [
        {
          "internalType": "address",
          "name": "_evmScriptFactory",
          "type": "address"
        }
      ],
      "name": "removeEVMScriptFactory",
      "outputs": [],
      "stateMutability": "nonpayable",
      "type": "function"
    },
    {
      "inputs": [
        {
          "internalType": "bytes32",
          "name": "role",
          "type": "bytes32"
        },
        {
          "internalType": "address",
          "name": "account",
          "type": "address"
        }
      ],
      "name": "renounceRole",
      "outputs": [],
      "stateMutability": "nonpayable",
      "type": "function"
    },
    {
      "inputs": [
        {
          "internalType": "bytes32",
          "name": "role",
          "type": "bytes32"
        },
        {
          "internalType": "address",
          "name": "account",
          "type": "address"
        }
      ],
      "name": "revokeRole",
      "outputs": [],
      "stateMutability": "nonpayable",
      "type": "function"
    },
    {
      "inputs": [
        {
          "internalType": "address",
          "name": "_evmScriptExecutor",
          "type": "address"
        }
      ],
      "name": "setEVMScriptExecutor",
      "outputs": [],
      "stateMutability": "nonpayable",
      "type": "function"
    },
    {
      "inputs": [
        {
          "internalType": "uint256",
          "name": "_motionDuration",
          "type": "uint256"
        }
      ],
      "name": "setMotionDuration",
      "outputs": [],
      "stateMutability": "nonpayable",
      "type": "function"
    },
    {
      "inputs": [
        {
          "internalType": "uint256",
          "name": "_motionsCountLimit",
          "type": "uint256"
        }
      ],
      "name": "setMotionsCountLimit",
      "outputs": [],
      "stateMutability": "nonpayable",
      "type": "function"
    },
    {
      "inputs": [
        {
          "internalType": "uint256",
          "name": "_objectionsThreshold",
          "type": "uint256"
        }
      ],
      "name": "setObjectionsThreshold",
      "outputs": [],
      "stateMutability": "nonpayable",
      "type": "function"
    },
    {
      "inputs": [
        {
          "internalType": "bytes4",
          "name": "interfaceId",
          "type": "bytes4"
        }
      ],
      "name": "supportsInterface",
      "outputs": [
        {
          "internalType": "bool",
          "name": "",
          "type": "bool"
        }
      ],
      "stateMutability": "view",
      "type": "function"
    },
    {
      "inputs": [],
      "name": "unpause",
      "outputs": [],
      "stateMutability": "nonpayable",
      "type": "function"
    }
  ],
  "bytecode": {
    "object": "0x60806040523480156200001157600080fd5b506040516200300538038062003005833981016040819052620000349162000394565b6000805460ff191681558490819085908590859062000054908562000147565b6200005f8362000157565b6200006a82620001ea565b62000075816200026c565b506200008992506000915083905062000147565b506200009760008562000147565b620000c37f139c2898040ef16910dc9f44dc697df79363da767d8bc92f2e310312b816e46d8562000147565b620000ef7f265b220c5a8891efdd9e1b1b7fa72f257bd5169f8d87e319cf3dad6ff52b94ae8562000147565b6200011b7f9f959e00d95122f5cbd677010436cf273ef535b86b056afc172852144b9491d78562000147565b5050600a80546001600160a01b0319166001600160a01b039490941693909317909255506200043f9050565b620001538282620002ef565b5050565b60408051808201909152600f81526e159053155157d513d3d7d4d3505313608a1b60208201526202a300821015620001ad5760405162461bcd60e51b8152600401620001a49190620003e7565b60405180910390fd5b5060048190556040518181527f03765c4aa18fde3bfe4015073c2b138ce5a02536dd88ceae9739d3e0dbad5d0e906020015b60405180910390a150565b60408051808201909152600f81526e56414c55455f544f4f5f4c4152474560881b60208201526018821115620002355760405162461bcd60e51b8152600401620001a49190620003e7565b5060038190556040518181527f5e368703b7ab35fe9ef4dbc482cd414476841204c7484b8e834d0d3ac4ed867290602001620001df565b60408051808201909152600f81526e56414c55455f544f4f5f4c4152474560881b60208201526101f4821115620002b85760405162461bcd60e51b8152600401620001a49190620003e7565b5060028190556040518181527fd60715ce58337415334d06256811f30ed8db120287970870d8505e5ed9074c6090602001620001df565b60008281526001602090815260408083206001600160a01b038516845290915290205460ff16620001535760008281526001602081815260408084206001600160a01b0386168086529252808420805460ff19169093179092559051339285917f2f8788117e7eff1d82e926ec794901d17c78024a50270940304540a733656f0d9190a45050565b80516001600160a01b03811681146200038f57600080fd5b919050565b600080600080600060a08688031215620003ad57600080fd5b620003b88662000377565b9450620003c86020870162000377565b6040870151606088015160809098015196999198509695945092505050565b600060208083528351808285015260005b818110156200041657858101830151858201604001528201620003f8565b8181111562000429576000604083870101525b50601f01601f1916929092016040019392505050565b612bb6806200044f6000396000f3fe608060405234801561001057600080fd5b506004361061025e5760003560e01c80639a4ee59c11610146578063de7cb878116100c3578063ef1ae2f611610087578063ef1ae2f61461058d578063ef89ad95146105a0578063f0fdd736146105cb578063f96dae0a146105de578063f9783b48146105f1578063fdc28ab81461061157600080fd5b8063de7cb87814610527578063e16373951461052f578063e6f5ed5d14610537578063ee20ff081461054a578063ee7eae291461055f57600080fd5b8063b2223eb51161010a578063b2223eb5146104d2578063c34205cd146104e5578063c7794870146104f8578063cdb6aefc1461050b578063d547741f1461051457600080fd5b80639a4ee59c14610421578063a217fddf14610434578063a3e730781461043c578063ad15aad21461044f578063b21d36a81461046f57600080fd5b8063389ed267116101df57806364993a73116101a357806364993a73146103d75780637d3ac0fb146103e05780638456cb59146103f357806388407bd4146103fb57806391d1485414610405578063930c2b311461041857600080fd5b8063389ed2671461037757806338c1f8761461039e5780633f4ba83a146103b157806342f04989146103b95780635c975abb146103cc57600080fd5b8063309756fb11610226578063309756fb1461030c5780633128cce01461033357806331a40e6e1461033c578063329696bc1461034f57806336568abe1461036457600080fd5b806301ffc9a71461026357806313c27ca71461028b578063248a9ca3146102c05780632d65a9f0146102e45780632f2ff15d146102f7575b600080fd5b61027661027136600461267b565b610624565b60405190151581526020015b60405180910390f35b6102b27f9f959e00d95122f5cbd677010436cf273ef535b86b056afc172852144b9491d781565b604051908152602001610282565b6102b26102ce366004612636565b6000908152600160208190526040909120015490565b6102766102f2366004612520565b61065b565b61030a61030536600461264f565b61067b565b005b6102b27f265b220c5a8891efdd9e1b1b7fa72f257bd5169f8d87e319cf3dad6ff52b94ae81565b6102b260035481565b61030a61034a366004612636565b6106a7565b6103576106c0565b6040516102829190612917565b61030a61037236600461264f565b610781565b6102b27f139c2898040ef16910dc9f44dc697df79363da767d8bc92f2e310312b816e46d81565b61030a6103ac366004612636565b610800565b61030a610abc565b61030a6103c736600461253b565b610b3b565b60005460ff16610276565b6102b260045481565b61030a6103ee366004612520565b610cb2565b61030a610e13565b6102b26202a30081565b61027661041336600461264f565b610e69565b6102b260025481565b61030a61042f36600461272c565b610e94565b6102b2600081565b61027661044a36600461264f565b61106a565b61046261045d366004612636565b611143565b6040516102829190612997565b61048261047d366004612636565b611225565b60408051998a526001600160a01b0398891660208b015296909716958801959095526060870193909352608086019190915260a085015260c084015260e083015261010082015261012001610282565b61030a6104e0366004612520565b61128d565b61030a6104f3366004612636565b6112e4565b61030a610506366004612589565b61137a565b6102b26101f481565b61030a61052236600461264f565b61145f565b61030a611486565b6102b2601881565b6102b261054536600461253b565b61152b565b6105526116be565b60405161028291906128ca565b61027661056d36600461264f565b600d60209081526000928352604080842090915290825290205460ff1681565b61030a61059b366004612636565b611720565b6105b36105ae366004612636565b611735565b6040516001600160a01b039091168152602001610282565b600b546105b3906001600160a01b031681565b600a546105b3906001600160a01b031681565b6106046105ff366004612520565b61175f565b604051610282919061295a565b61030a61061f366004612636565b6117f9565b60006001600160e01b03198216637965db0b60e01b148061065557506301ffc9a760e01b6001600160e01b03198316145b92915050565b6001600160a01b0381166000908152600660205260408120541515610655565b60008281526001602081905260409091200154610698813361180e565b6106a28383611872565b505050565b60006106b3813361180e565b6106bc826118dd565b5050565b60606008805480602002602001604051908101604052809291908181526020016000905b82821015610778576000848152602090819020604080516101208101825260098602909201805483526001808201546001600160a01b0390811685870152600283015416928401929092526003810154606084015260048101546080840152600581015460a0840152600681015460c0840152600781015460e08401526008015461010083015290835290920191016106e4565b50505050905090565b6001600160a01b03811633146107f65760405162461bcd60e51b815260206004820152602f60248201527f416363657373436f6e74726f6c3a2063616e206f6e6c792072656e6f756e636560448201526e103937b632b9903337b91039b2b63360891b60648201526084015b60405180910390fd5b6106bc8282611964565b600061080b826119cb565b6000838152600d60209081526040808320338452825291829020548251808401909352601083526f1053149150511657d3d0929150d5115160821b918301919091529192509060ff16156108725760405162461bcd60e51b81526004016107ed919061295a565b506000828152600d60209081526040808320338085529252808320805460ff191660011790556005840154600a54915163277166bf60e11b815260048101939093526024830181905292916001600160a01b0390911690634ee2cd7e9060440160206040518083038186803b1580156108ea57600080fd5b505afa1580156108fe573d6000803e3d6000fd5b505050506040513d601f19601f820116820180604052508101906109229190612713565b905060008111604051806040016040528060128152602001714e4f545f454e4f5547485f42414c414e434560701b815250906109715760405162461bcd60e51b81526004016107ed919061295a565b50600a54604051630981b24d60e41b8152600481018490526000916001600160a01b03169063981b24d09060240160206040518083038186803b1580156109b757600080fd5b505afa1580156109cb573d6000803e3d6000fd5b505050506040513d601f19601f820116820180604052508101906109ef9190612713565b90506000828560070154610a0391906129ff565b9050600082610a1483612710612a2b565b610a1e9190612a17565b6040805186815260208101859052908101829052909150339088907fa64d606df8b3e72e8f53ac4185170bbd4348d0ee03c2cfceadeafc2b316c3e6b9060600160405180910390a38560060154811015610a7e5760078601829055610ab3565b610a8787611a56565b60405187907f6a4120e111f0bfb3586b7dc9317f9ae5441ce866d1ad9d221ce6d76431f8442690600090a25b50505050505050565b60005460ff16610b055760405162461bcd60e51b815260206004820152601460248201527314185d5cd8589b194e881b9bdd081c185d5cd95960621b60448201526064016107ed565b7f265b220c5a8891efdd9e1b1b7fa72f257bd5169f8d87e319cf3dad6ff52b94ae610b30813361180e565b610b38611bfc565b50565b6000610b47813361180e565b610b5082611c8f565b610b925760405162461bcd60e51b8152602060048201526013602482015272494e56414c49445f5045524d495353494f4e5360681b60448201526064016107ed565b6001600160a01b03831660009081526006602052604090205415610bf85760405162461bcd60e51b815260206004820181905260248201527f45564d5f5343524950545f464143544f52595f414c52454144595f414444454460448201526064016107ed565b600580546001810182557f036b6384b5eca791c62761152d0c79bb0604c104a5fb6f4eb0703f3154bb3db00180546001600160a01b0319166001600160a01b03861690811790915590546000918252600660209081526040808420929092556007815291208351610c6b928501906123df565b50826001600160a01b03167fa95e7ae5870d8fc3c3f7b7a378c9c4f469e724c240ee45fbab61758fe7eb981783604051610ca5919061295a565b60405180910390a2505050565b6000610cbe813361180e565b6000610cc983611cbb565b600554909150600090610cde90600190612a4a565b9050808214610d7a57600060058281548110610cfc57610cfc612b54565b600091825260209091200154600580546001600160a01b039092169250829185908110610d2b57610d2b612b54565b600091825260209091200180546001600160a01b0319166001600160a01b0392909216919091179055610d5f8360016129ff565b6001600160a01b039091166000908152600660205260409020555b6005805480610d8b57610d8b612b3e565b60008281526020808220830160001990810180546001600160a01b03191690559092019092556001600160a01b038616825260068152604080832083905560079091528120610dd991612463565b6040516001600160a01b038516907f158e73cc156a7591e8e04fa6cdfc13d89de9e19fdc692bf0502e2a622c08a12a90600090a250505050565b60005460ff1615610e365760405162461bcd60e51b81526004016107ed9061296d565b7f139c2898040ef16910dc9f44dc697df79363da767d8bc92f2e310312b816e46d610e61813361180e565b610b38611d2c565b60009182526001602090815260408084206001600160a01b0393909316845291905290205460ff1690565b60005460ff1615610eb75760405162461bcd60e51b81526004016107ed9061296d565b6000610ec2836119cb565b90504281600301548260040154610ed991906129ff565b1115604051806040016040528060118152602001701353d51253d397d393d517d41054d4d151607a1b81525090610f235760405162461bcd60e51b81526004016107ed919061295a565b506002810154600882015460018301546001600160a01b039283169216610f4986611a56565b60405186907fd4fbbd7bf63590ce72807eb770b83aaf2f3a7958a4b2093fd9ab89b27609694290600090a26000610f81828588611d84565b9050808051906020012083146040518060400160405280601581526020017415539156141150d5115117d1559357d4d0d4925415605a1b81525090610fd95760405162461bcd60e51b81526004016107ed919061295a565b50600b54604051634a27111d60e01b81526001600160a01b0390911690634a27111d9061100a90849060040161295a565b600060405180830381600087803b15801561102457600080fd5b505af1158015611038573d6000803e3d6000fd5b505050506040513d6000823e601f3d908101601f1916820160405261106091908101906126a5565b5050505050505050565b600080611076846119cb565b600a54600582015460405163277166bf60e11b81526001600160a01b0387811660048301526024820192909252929350600092911690634ee2cd7e9060440160206040518083038186803b1580156110cd57600080fd5b505afa1580156110e1573d6000803e3d6000fd5b505050506040513d601f19601f820116820180604052508101906111059190612713565b905060008111801561113a57506000858152600d602090815260408083206001600160a01b038816845290915290205460ff16155b95945050505050565b6111a76040518061012001604052806000815260200160006001600160a01b0316815260200160006001600160a01b031681526020016000815260200160008152602001600081526020016000815260200160008152602001600080191681525090565b6111b0826119cb565b60408051610120810182528254815260018301546001600160a01b039081166020830152600284015416918101919091526003820154606082015260048201546080820152600582015460a0820152600682015460c0820152600782015460e082015260089091015461010082015292915050565b6008818154811061123557600080fd5b60009182526020909120600990910201805460018201546002830154600384015460048501546005860154600687015460078801546008909801549698506001600160a01b0395861697949095169592949193909289565b6000611299813361180e565b600b80546001600160a01b0319166001600160a01b0384169081179091556040517f5ed6ba59d23ef79b1a31c9f04da9f879ef6cdb89ad0241716ebdc1f02f5f465a90600090a25050565b60006112ef826119cb565b600281015460408051808201909152600b81526a2727aa2fa1a922a0aa27a960a91b60208201529192506001600160a01b031633146113415760405162461bcd60e51b81526004016107ed919061295a565b5061134b82611a56565b60405182907f801fcb98a9fa2e695209772f0a24f3f7ac36f6568659ae2e0cd7763fb73f286290600090a25050565b7f9f959e00d95122f5cbd677010436cf273ef535b86b056afc172852144b9491d76113a5813361180e565b60005b82518110156106a2576000600c60008584815181106113c9576113c9612b54565b6020026020010151815260200190815260200160002054111561144f576114088382815181106113fb576113fb612b54565b6020026020010151611a56565b82818151811061141a5761141a612b54565b60200260200101517f801fcb98a9fa2e695209772f0a24f3f7ac36f6568659ae2e0cd7763fb73f286260405160405180910390a25b61145881612ae3565b90506113a8565b6000828152600160208190526040909120015461147c813361180e565b6106a28383611964565b7f9f959e00d95122f5cbd677010436cf273ef535b86b056afc172852144b9491d76114b1813361180e565b6008545b80156106bc576114c6600182612a4a565b90506000600882815481106114dd576114dd612b54565b90600052602060002090600902016000015490506114fa81611a56565b60405181907f801fcb98a9fa2e695209772f0a24f3f7ac36f6568659ae2e0cd7763fb73f286290600090a2506114b5565b6000805460ff161561154f5760405162461bcd60e51b81526004016107ed9061296d565b6003546008546040805180820190915260158152741353d51253d394d7d31253525517d4915050d21151605a1b602082015291116115a05760405162461bcd60e51b81526004016107ed919061295a565b50600880546001810182556000918252600980549181027ff3f7a9fe364faab93b216da50a3214154f22a0a2b415b23a84c8169e8b636ee3019290916115e590612ae3565b918290555080825560028083018054336001600160a01b0319918216811790925542600480870191909155436005870155546003860155915460068501556001840180549092166001600160a01b038816179091556008546000838152600c602052604081209190915591935061165e90869086611d84565b905080805190602001208260080181905550846001600160a01b0316837f2775db1f1f2dd97c60ba2903b3ca235c9cecb3cb47a9cb464f86578b9877f4a43387856040516116ae9392919061288a565b60405180910390a3505092915050565b6060600580548060200260200160405190810160405280929190818152602001828054801561171657602002820191906000526020600020905b81546001600160a01b031681526001909101906020018083116116f8575b5050505050905090565b600061172c813361180e565b6106bc82611f7b565b6005818154811061174557600080fd5b6000918252602090912001546001600160a01b0316905081565b6007602052600090815260409020805461177890612aa8565b80601f01602080910402602001604051908101604052809291908181526020018280546117a490612aa8565b80156117f15780601f106117c6576101008083540402835291602001916117f1565b820191906000526020600020905b8154815290600101906020018083116117d457829003601f168201915b505050505081565b6000611805813361180e565b6106bc82611ffa565b6118188282610e69565b6106bc57611830816001600160a01b03166014612078565b61183b836020612078565b60405160200161184c9291906127f1565b60408051601f198184030181529082905262461bcd60e51b82526107ed9160040161295a565b61187c8282610e69565b6106bc5760008281526001602081815260408084206001600160a01b0386168086529252808420805460ff19169093179092559051339285917f2f8788117e7eff1d82e926ec794901d17c78024a50270940304540a733656f0d9190a45050565b60408051808201909152600f81526e159053155157d513d3d7d4d3505313608a1b60208201526202a3008210156119275760405162461bcd60e51b81526004016107ed919061295a565b5060048190556040518181527f03765c4aa18fde3bfe4015073c2b138ce5a02536dd88ceae9739d3e0dbad5d0e906020015b60405180910390a150565b61196e8282610e69565b156106bc5760008281526001602090815260408083206001600160a01b0385168085529252808320805460ff1916905551339285917ff6391f5c32d9c69d2a47ea670b442974b53935d1edc7fd64eb21e047a839171b9190a45050565b6000818152600c60209081526040808320548151808301909252601082526f1353d51253d397d393d517d193d5539160821b9282019290925281611a225760405162461bcd60e51b81526004016107ed919061295a565b506008611a30600183612a4a565b81548110611a4057611a40612b54565b9060005260206000209060090201915050919050565b6000818152600c6020526040812054611a7190600190612a4a565b600854909150600090611a8690600190612a4a565b9050808214611b7457600060088281548110611aa457611aa4612b54565b906000526020600020906009020190508060088481548110611ac857611ac8612b54565b60009182526020909120825460099092020190815560018083015481830180546001600160a01b039283166001600160a01b031991821617909155600280860154908501805491909316911617905560038084015490830155600480840154908301556005808401549083015560068084015490830155600780840154908301556008928301549290910191909155611b629084906129ff565b90546000908152600c60205260409020555b6008805480611b8557611b85612b3e565b600082815260208082206009600019909401938402018281556001810180546001600160a01b03199081169091556002820180549091169055600381018390556004810183905560058101839055600681018390556007810183905560080182905591909255938152600c90935250506040812055565b60005460ff16611c455760405162461bcd60e51b815260206004820152601460248201527314185d5cd8589b194e881b9bdd081c185d5cd95960621b60448201526064016107ed565b6000805460ff191690557f5db9ee0a495bf2e6ff9c91a7834c1ba4fdd244a5e8aa4e537bd38aeae4b073aa335b6040516001600160a01b03909116815260200160405180910390a1565b60008082511180156106555750611ca8600460146129ff565b8251611cb49190612afe565b1592915050565b6001600160a01b03811660009081526006602052604090205480611d215760405162461bcd60e51b815260206004820152601c60248201527f45564d5f5343524950545f464143544f52595f4e4f545f464f554e440000000060448201526064016107ed565b610655600182612a4a565b60005460ff1615611d4f5760405162461bcd60e51b81526004016107ed9061296d565b6000805460ff191660011790557f62e78cea01bee320cd4e420270b5ea74000d11b0c9f74754ebdbfc544b05a258611c723390565b6060611da7846001600160a01b0316600090815260066020526040902054151590565b611df35760405162461bcd60e51b815260206004820152601c60248201527f45564d5f5343524950545f464143544f52595f4e4f545f464f554e440000000060448201526064016107ed565b604051633fa8872760e21b81526001600160a01b0385169063fea21c9c90611e219086908690600401612866565b600060405180830381600087803b158015611e3b57600080fd5b505af1158015611e4f573d6000803e3d6000fd5b505050506040513d6000823e601f3d908101601f19168201604052611e7791908101906126a5565b6001600160a01b038516600090815260076020526040812080549293509091611e9f90612aa8565b80601f0160208091040260200160405190810160405280929190818152602001828054611ecb90612aa8565b8015611f185780601f10611eed57610100808354040283529160200191611f18565b820191906000526020600020905b815481529060010190602001808311611efb57829003601f168201915b50505050509050611f32828261221b90919063ffffffff16565b611f735760405162461bcd60e51b81526020600482015260126024820152714841535f4e4f5f5045524d495353494f4e5360701b60448201526064016107ed565b509392505050565b60408051808201909152600f81526e56414c55455f544f4f5f4c4152474560881b60208201526101f4821115611fc45760405162461bcd60e51b81526004016107ed919061295a565b5060028190556040518181527fd60715ce58337415334d06256811f30ed8db120287970870d8505e5ed9074c6090602001611959565b60408051808201909152600f81526e56414c55455f544f4f5f4c4152474560881b602082015260188211156120425760405162461bcd60e51b81526004016107ed919061295a565b5060038190556040518181527f5e368703b7ab35fe9ef4dbc482cd414476841204c7484b8e834d0d3ac4ed867290602001611959565b60606000612087836002612a2b565b6120929060026129ff565b67ffffffffffffffff8111156120aa576120aa612b6a565b6040519080825280601f01601f1916602001820160405280156120d4576020820181803683370190505b509050600360fc1b816000815181106120ef576120ef612b54565b60200101906001600160f81b031916908160001a905350600f60fb1b8160018151811061211e5761211e612b54565b60200101906001600160f81b031916908160001a9053506000612142846002612a2b565b61214d9060016129ff565b90505b60018111156121c5576f181899199a1a9b1b9c1cb0b131b232b360811b85600f166010811061218157612181612b54565b1a60f81b82828151811061219757612197612b54565b60200101906001600160f81b031916908160001a90535060049490941c936121be81612a91565b9050612150565b5083156122145760405162461bcd60e51b815260206004820181905260248201527f537472696e67733a20686578206c656e67746820696e73756666696369656e7460448201526064016107ed565b9392505050565b6000600461222884611c8f565b1580612235575080835111155b15612244576000915050610655565b82518110156122a85760008061225a85846122b2565b91509150612268868361232d565b6122785760009350505050610655565b63ffffffff811661228b600460146129ff565b61229591906129ff565b61229f90846129ff565b92505050612244565b5060019392505050565b600080806122c08585612391565b905060006122d96122d26014876129ff565b87906123ac565b905060006122fe60046122ed6014896129ff565b6122f791906129ff565b88906123ac565b90508260601b6bffffffffffffffffffffffff19168163ffffffff1660401b1782945094505050509250929050565b6000805b835181101561238757600061234685836123c7565b905067ffffffffffffffff19808216908516141561236957600192505050610655565b612375600460146129ff565b61237f90836129ff565b915050612331565b5060009392505050565b6000806123a18484016020015190565b60601c949350505050565b6000806123bc8484016020015190565b60e01c949350505050565b6000806123d78484016020015190565b949350505050565b8280546123eb90612aa8565b90600052602060002090601f01602090048101928261240d5760008555612453565b82601f1061242657805160ff1916838001178555612453565b82800160010185558215612453579182015b82811115612453578251825591602001919060010190612438565b5061245f929150612499565b5090565b50805461246f90612aa8565b6000825580601f1061247f575050565b601f016020900490600052602060002090810190610b3891905b5b8082111561245f576000815560010161249a565b80356001600160a01b03811681146124c557600080fd5b919050565b600082601f8301126124db57600080fd5b81356124ee6124e9826129d7565b6129a6565b81815284602083860101111561250357600080fd5b816020850160208301376000918101602001919091529392505050565b60006020828403121561253257600080fd5b612214826124ae565b6000806040838503121561254e57600080fd5b612557836124ae565b9150602083013567ffffffffffffffff81111561257357600080fd5b61257f858286016124ca565b9150509250929050565b6000602080838503121561259c57600080fd5b823567ffffffffffffffff808211156125b457600080fd5b818501915085601f8301126125c857600080fd5b8135818111156125da576125da612b6a565b8060051b91506125eb8483016129a6565b8181528481019084860184860187018a101561260657600080fd5b600095505b8386101561262957803583526001959095019491860191860161260b565b5098975050505050505050565b60006020828403121561264857600080fd5b5035919050565b6000806040838503121561266257600080fd5b82359150612672602084016124ae565b90509250929050565b60006020828403121561268d57600080fd5b81356001600160e01b03198116811461221457600080fd5b6000602082840312156126b757600080fd5b815167ffffffffffffffff8111156126ce57600080fd5b8201601f810184136126df57600080fd5b80516126ed6124e9826129d7565b81815285602083850101111561270257600080fd5b61113a826020830160208601612a61565b60006020828403121561272557600080fd5b5051919050565b6000806040838503121561273f57600080fd5b82359150602083013567ffffffffffffffff81111561257357600080fd5b60008151808452612775816020860160208601612a61565b601f01601f19169290920160200192915050565b80518252602081015160018060a01b0380821660208501528060408401511660408501525050606081015160608301526080810151608083015260a081015160a083015260c081015160c083015260e081015160e08301526101008082015181840152505050565b7f416363657373436f6e74726f6c3a206163636f756e7420000000000000000000815260008351612829816017850160208801612a61565b7001034b99036b4b9b9b4b733903937b6329607d1b601791840191820152835161285a816028840160208801612a61565b01602801949350505050565b6001600160a01b03831681526040602082018190526000906123d79083018461275d565b6001600160a01b03841681526060602082018190526000906128ae9083018561275d565b82810360408401526128c0818561275d565b9695505050505050565b6020808252825182820181905260009190848201906040850190845b8181101561290b5783516001600160a01b0316835292840192918401916001016128e6565b50909695505050505050565b6020808252825182820181905260009190848201906040850190845b8181101561290b57612946838551612789565b928401926101209290920191600101612933565b602081526000612214602083018461275d565b60208082526010908201526f14185d5cd8589b194e881c185d5cd95960821b604082015260600190565b61012081016106558284612789565b604051601f8201601f1916810167ffffffffffffffff811182821017156129cf576129cf612b6a565b604052919050565b600067ffffffffffffffff8211156129f1576129f1612b6a565b50601f01601f191660200190565b60008219821115612a1257612a12612b12565b500190565b600082612a2657612a26612b28565b500490565b6000816000190483118215151615612a4557612a45612b12565b500290565b600082821015612a5c57612a5c612b12565b500390565b60005b83811015612a7c578181015183820152602001612a64565b83811115612a8b576000848401525b50505050565b600081612aa057612aa0612b12565b506000190190565b600181811c90821680612abc57607f821691505b60208210811415612add57634e487b7160e01b600052602260045260246000fd5b50919050565b6000600019821415612af757612af7612b12565b5060010190565b600082612b0d57612b0d612b28565b500690565b634e487b7160e01b600052601160045260246000fd5b634e487b7160e01b600052601260045260246000fd5b634e487b7160e01b600052603160045260246000fd5b634e487b7160e01b600052603260045260246000fd5b634e487b7160e01b600052604160045260246000fdfea2646970667358221220323ef40a64b561eae6363404d17d7c8da4a2db88aea08981e7f796bfb59a96ce64736f6c63430008060033",
    "linkReferences": {}
  },
  "methodIdentifiers": {
    "CANCEL_ROLE()": "13c27ca7",
    "DEFAULT_ADMIN_ROLE()": "a217fddf",
    "MAX_MOTIONS_LIMIT()": "e1637395",
    "MAX_OBJECTIONS_THRESHOLD()": "cdb6aefc",
    "MIN_MOTION_DURATION()": "88407bd4",
    "PAUSE_ROLE()": "389ed267",
    "UNPAUSE_ROLE()": "309756fb",
    "addEVMScriptFactory(address,bytes)": "42f04989",
    "canObjectToMotion(uint256,address)": "a3e73078",
    "cancelAllMotions()": "de7cb878",
    "cancelMotion(uint256)": "c34205cd",
    "cancelMotions(uint256[])": "c7794870",
    "createMotion(address,bytes)": "e6f5ed5d",
    "enactMotion(uint256,bytes)": "9a4ee59c",
    "evmScriptExecutor()": "f0fdd736",
    "evmScriptFactories(uint256)": "ef89ad95",
    "evmScriptFactoryPermissions(address)": "f9783b48",
    "getEVMScriptFactories()": "ee20ff08",
    "getMotion(uint256)": "ad15aad2",
    "getMotions()": "329696bc",
    "getRoleAdmin(bytes32)": "248a9ca3",
    "governanceToken()": "f96dae0a",
    "grantRole(bytes32,address)": "2f2ff15d",
    "hasRole(bytes32,address)": "91d14854",
    "isEVMScriptFactory(address)": "2d65a9f0",
    "motionDuration()": "64993a73",
    "motions(uint256)": "b21d36a8",
    "motionsCountLimit()": "3128cce0",
    "objectToMotion(uint256)": "38c1f876",
    "objections(uint256,address)": "ee7eae29",
    "objectionsThreshold()": "930c2b31",
    "pause()": "8456cb59",
    "paused()": "5c975abb",
    "removeEVMScriptFactory(address)": "7d3ac0fb",
    "renounceRole(bytes32,address)": "36568abe",
    "revokeRole(bytes32,address)": "d547741f",
    "setEVMScriptExecutor(address)": "b2223eb5",
    "setMotionDuration(uint256)": "31a40e6e",
    "setMotionsCountLimit(uint256)": "fdc28ab8",
    "setObjectionsThreshold(uint256)": "ef1ae2f6",
    "supportsInterface(bytes4)": "01ffc9a7",
    "unpause()": "3f4ba83a"
  },
  "storageLayout": {
    "storage": [
      {
        "astId": 5654,
        "contract": "contracts/EasyTrack.sol:EasyTrack",
        "label": "_paused",
        "offset": 0,
        "slot": "0",
        "type": "t_bool"
      },
      {
        "astId": 5177,
        "contract": "contracts/EasyTrack.sol:EasyTrack",
        "label": "_roles",
        "offset": 0,
        "slot": "1",
        "type": "t_mapping(t_bytes32,t_struct(RoleData)5172_storage)"
      },
      {
        "astId": 3655,
        "contract": "contracts/EasyTrack.sol:EasyTrack",
        "label": "objectionsThreshold",
        "offset": 0,
        "slot": "2",
        "type": "t_uint256"
      },
      {
        "astId": 3658,
        "contract": "contracts/EasyTrack.sol:EasyTrack",
        "label": "motionsCountLimit",
        "offset": 0,
        "slot": "3",
        "type": "t_uint256"
      },
      {
        "astId": 3661,
        "contract": "contracts/EasyTrack.sol:EasyTrack",
        "label": "motionDuration",
        "offset": 0,
        "slot": "4",
        "type": "t_uint256"
      },
      {
        "astId": 2021,
        "contract": "contracts/EasyTrack.sol:EasyTrack",
        "label": "evmScriptFactories",
        "offset": 0,
        "slot": "5",
        "type": "t_array(t_address)dyn_storage"
      },
      {
        "astId": 2025,
        "contract": "contracts/EasyTrack.sol:EasyTrack",
        "label": "evmScriptFactoryIndices",
        "offset": 0,
        "slot": "6",
        "type": "t_mapping(t_address,t_uint256)"
      },
      {
        "astId": 2030,
        "contract": "contracts/EasyTrack.sol:EasyTrack",
        "label": "evmScriptFactoryPermissions",
        "offset": 0,
        "slot": "7",
        "type": "t_mapping(t_address,t_bytes_storage)"
      },
      {
        "astId": 2402,
        "contract": "contracts/EasyTrack.sol:EasyTrack",
        "label": "motions",
        "offset": 0,
        "slot": "8",
        "type": "t_array(t_struct(Motion)2318_storage)dyn_storage"
      },
      {
        "astId": 2404,
        "contract": "contracts/EasyTrack.sol:EasyTrack",
        "label": "lastMotionId",
        "offset": 0,
        "slot": "9",
        "type": "t_uint256"
      },
      {
        "astId": 2408,
        "contract": "contracts/EasyTrack.sol:EasyTrack",
        "label": "governanceToken",
        "offset": 0,
        "slot": "10",
        "type": "t_contract(IMiniMeToken)2290"
      },
      {
        "astId": 2412,
        "contract": "contracts/EasyTrack.sol:EasyTrack",
        "label": "evmScriptExecutor",
        "offset": 0,
        "slot": "11",
        "type": "t_contract(IEVMScriptExecutor)4137"
      },
      {
        "astId": 2416,
        "contract": "contracts/EasyTrack.sol:EasyTrack",
        "label": "motionIndicesByMotionId",
        "offset": 0,
        "slot": "12",
        "type": "t_mapping(t_uint256,t_uint256)"
      },
      {
        "astId": 2423,
        "contract": "contracts/EasyTrack.sol:EasyTrack",
        "label": "objections",
        "offset": 0,
        "slot": "13",
        "type": "t_mapping(t_uint256,t_mapping(t_address,t_bool))"
      }
    ],
    "types": {
      "t_address": {
        "encoding": "inplace",
        "label": "address",
        "numberOfBytes": "20"
      },
      "t_array(t_address)dyn_storage": {
        "encoding": "dynamic_array",
        "label": "address[]",
        "numberOfBytes": "32",
        "base": "t_address"
      },
      "t_array(t_struct(Motion)2318_storage)dyn_storage": {
        "encoding": "dynamic_array",
        "label": "struct EasyTrack.Motion[]",
        "numberOfBytes": "32",
        "base": "t_struct(Motion)2318_storage"
      },
      "t_bool": {
        "encoding": "inplace",
        "label": "bool",
        "numberOfBytes": "1"
      },
      "t_bytes32": {
        "encoding": "inplace",
        "label": "bytes32",
        "numberOfBytes": "32"
      },
      "t_bytes_storage": {
        "encoding": "bytes",
        "label": "bytes",
        "numberOfBytes": "32"
      },
      "t_contract(IEVMScriptExecutor)4137": {
        "encoding": "inplace",
        "label": "contract IEVMScriptExecutor",
        "numberOfBytes": "20"
      },
      "t_contract(IMiniMeToken)2290": {
        "encoding": "inplace",
        "label": "contract IMiniMeToken",
        "numberOfBytes": "20"
      },
      "t_mapping(t_address,t_bool)": {
        "encoding": "mapping",
        "key": "t_address",
        "label": "mapping(address => bool)",
        "numberOfBytes": "32",
        "value": "t_bool"
      },
      "t_mapping(t_address,t_bytes_storage)": {
        "encoding": "mapping",
        "key": "t_address",
        "label": "mapping(address => bytes)",
        "numberOfBytes": "32",
        "value": "t_bytes_storage"
      },
      "t_mapping(t_address,t_uint256)": {
        "encoding": "mapping",
        "key": "t_address",
        "label": "mapping(address => uint256)",
        "numberOfBytes": "32",
        "value": "t_uint256"
      },
      "t_mapping(t_bytes32,t_struct(RoleData)5172_storage)": {
        "encoding": "mapping",
        "key": "t_bytes32",
        "label": "mapping(bytes32 => struct AccessControl.RoleData)",
        "numberOfBytes": "32",
        "value": "t_struct(RoleData)5172_storage"
      },
      "t_mapping(t_uint256,t_mapping(t_address,t_bool))": {
        "encoding": "mapping",
        "key": "t_uint256",
        "label": "mapping(uint256 => mapping(address => bool))",
        "numberOfBytes": "32",
        "value": "t_mapping(t_address,t_bool)"
      },
      "t_mapping(t_uint256,t_uint256)": {
        "encoding": "mapping",
        "key": "t_uint256",
        "label": "mapping(uint256 => uint256)",
        "numberOfBytes": "32",
        "value": "t_uint256"
      },
      "t_struct(Motion)2318_storage": {
        "encoding": "inplace",
        "label": "struct EasyTrack.Motion",
        "numberOfBytes": "288",
        "members": [
          {
            "astId": 2301,
            "contract": "contracts/EasyTrack.sol:EasyTrack",
            "label": "id",
            "offset": 0,
            "slot": "0",
            "type": "t_uint256"
          },
          {
            "astId": 2303,
            "contract": "contracts/EasyTrack.sol:EasyTrack",
            "label": "evmScriptFactory",
            "offset": 0,
            "slot": "1",
            "type": "t_address"
          },
          {
            "astId": 2305,
            "contract": "contracts/EasyTrack.sol:EasyTrack",
            "label": "creator",
            "offset": 0,
            "slot": "2",
            "type": "t_address"
          },
          {
            "astId": 2307,
            "contract": "contracts/EasyTrack.sol:EasyTrack",
            "label": "duration",
            "offset": 0,
            "slot": "3",
            "type": "t_uint256"
          },
          {
            "astId": 2309,
            "contract": "contracts/EasyTrack.sol:EasyTrack",
            "label": "startDate",
            "offset": 0,
            "slot": "4",
            "type": "t_uint256"
          },
          {
            "astId": 2311,
            "contract": "contracts/EasyTrack.sol:EasyTrack",
            "label": "snapshotBlock",
            "offset": 0,
            "slot": "5",
            "type": "t_uint256"
          },
          {
            "astId": 2313,
            "contract": "contracts/EasyTrack.sol:EasyTrack",
            "label": "objectionsThreshold",
            "offset": 0,
            "slot": "6",
            "type": "t_uint256"
          },
          {
            "astId": 2315,
            "contract": "contracts/EasyTrack.sol:EasyTrack",
            "label": "objectionsAmount",
            "offset": 0,
            "slot": "7",
            "type": "t_uint256"
          },
          {
            "astId": 2317,
            "contract": "contracts/EasyTrack.sol:EasyTrack",
            "label": "evmScriptHash",
            "offset": 0,
            "slot": "8",
            "type": "t_bytes32"
          }
        ]
      },
      "t_struct(RoleData)5172_storage": {
        "encoding": "inplace",
        "label": "struct AccessControl.RoleData",
        "numberOfBytes": "64",
        "members": [
          {
            "astId": 5169,
            "contract": "contracts/EasyTrack.sol:EasyTrack",
            "label": "members",
            "offset": 0,
            "slot": "0",
            "type": "t_mapping(t_address,t_bool)"
          },
          {
            "astId": 5171,
            "contract": "contracts/EasyTrack.sol:EasyTrack",
            "label": "adminRole",
            "offset": 0,
            "slot": "1",
            "type": "t_bytes32"
          }
        ]
      },
      "t_uint256": {
        "encoding": "inplace",
        "label": "uint256",
        "numberOfBytes": "32"
      }
    }
  },
  "id": 11
}