{
  "abi": [
    {
      "inputs": [],
      "name": "DEFAULT_EVM_SCRIPT",
      "outputs": [
        {
          "internalType": "bytes",
          "name": "",
          "type": "bytes"
        }
      ],
      "stateMutability": "view",
      "type": "function"
    },
    {
      "inputs": [],
      "name": "DEFAULT_EVM_SCRIPT_HASH",
      "outputs": [
        {
          "internalType": "bytes32",
          "name": "",
          "type": "bytes32"
        }
      ],
      "stateMutability": "view",
      "type": "function"
    },
    {
      "inputs": [],
      "name": "DEFAULT_PERMISSIONS",
      "outputs": [
        {
          "internalType": "bytes",
          "name": "",
          "type": "bytes"
        }
      ],
      "stateMutability": "view",
      "type": "function"
    },
    {
      "inputs": [
        {
          "internalType": "address",
          "name": "_creator",
          "type": "address"
        },
        {
          "internalType": "bytes",
          "name": "_evmScriptCallData",
          "type": "bytes"
        }
      ],
      "name": "createEVMScript",
      "outputs": [
        {
          "internalType": "bytes",
          "name": "",
          "type": "bytes"
        }
      ],
      "stateMutability": "nonpayable",
      "type": "function"
    },
    {
      "inputs": [],
      "name": "creator",
      "outputs": [
        {
          "internalType": "address",
          "name": "",
          "type": "address"
        }
      ],
      "stateMutability": "view",
      "type": "function"
    },
    {
      "inputs": [],
      "name": "evmScript",
      "outputs": [
        {
          "internalType": "bytes",
          "name": "",
          "type": "bytes"
        }
      ],
      "stateMutability": "view",
      "type": "function"
    },
    {
      "inputs": [],
      "name": "evmScriptCallData",
      "outputs": [
        {
          "internalType": "bytes",
          "name": "",
          "type": "bytes"
        }
      ],
      "stateMutability": "view",
      "type": "function"
    },
    {
      "inputs": [
        {
          "internalType": "bytes",
          "name": "_evmScript",
          "type": "bytes"
        }
      ],
      "name": "setEVMScript",
      "outputs": [],
      "stateMutability": "nonpayable",
      "type": "function"
    }
  ],
  "bytecode": {
    "object": "0x610100604052606060808181529061072a60a03980516100279160029160209091019061003a565b5034801561003457600080fd5b5061010e565b828054610046906100d3565b90600052602060002090601f01602090048101928261006857600085556100ae565b82601f1061008157805160ff19168380011785556100ae565b828001600101855582156100ae579182015b828111156100ae578251825591602001919060010190610093565b506100ba9291506100be565b5090565b5b808211156100ba57600081556001016100bf565b600181811c908216806100e757607f821691505b6020821081141561010857634e487b7160e01b600052602260045260246000fd5b50919050565b61060d8061011d6000396000f3fe608060405234801561001057600080fd5b50600436106100885760003560e01c8063dffa6a861161005b578063dffa6a8614610131578063e4b89c6514610139578063e6e48e2114610141578063fea21c9c1461014957600080fd5b806302d05d3f1461008d5780630cf46293146100bd578063733fad10146100d2578063809e05eb146100e8575b600080fd5b6000546100a0906001600160a01b031681565b6040516001600160a01b0390911681526020015b60405180910390f35b6100d06100cb366004610494565b61015c565b005b6100da610173565b6040519081526020016100b4565b6101246040518060400160405280601881526020017f420b1099b9ef5baba6d92029594ef45e19a04a4aae962acf000000000000000081525081565b6040516100b491906104d1565b610124610196565b6101246101b2565b610124610240565b610124610157366004610438565b61024d565b805161016f906002906020840190610312565b5050565b604051806080016040528060608152602001610578606091398051906020012081565b6040518060800160405280606081526020016105786060913981565b600180546101bf90610526565b80601f01602080910402602001604051908101604052809291908181526020018280546101eb90610526565b80156102385780601f1061020d57610100808354040283529160200191610238565b820191906000526020600020905b81548152906001019060200180831161021b57829003601f168201915b505050505081565b600280546101bf90610526565b600080546001600160a01b0319166001600160a01b038416179055805160609061027e906001906020850190610312565b506002805461028c90610526565b80601f01602080910402602001604051908101604052809291908181526020018280546102b890610526565b80156103055780601f106102da57610100808354040283529160200191610305565b820191906000526020600020905b8154815290600101906020018083116102e857829003601f168201915b5050505050905092915050565b82805461031e90610526565b90600052602060002090601f0160209004810192826103405760008555610386565b82601f1061035957805160ff1916838001178555610386565b82800160010185558215610386579182015b8281111561038657825182559160200191906001019061036b565b50610392929150610396565b5090565b5b808211156103925760008155600101610397565b600082601f8301126103bc57600080fd5b813567ffffffffffffffff808211156103d7576103d7610561565b604051601f8301601f19908116603f011681019082821181831017156103ff576103ff610561565b8160405283815286602085880101111561041857600080fd5b836020870160208301376000602085830101528094505050505092915050565b6000806040838503121561044b57600080fd5b82356001600160a01b038116811461046257600080fd5b9150602083013567ffffffffffffffff81111561047e57600080fd5b61048a858286016103ab565b9150509250929050565b6000602082840312156104a657600080fd5b813567ffffffffffffffff8111156104bd57600080fd5b6104c9848285016103ab565b949350505050565b600060208083528351808285015260005b818110156104fe578581018301518582016040015282016104e2565b81811115610510576000604083870101525b50601f01601f1916929092016040019392505050565b600181811c9082168061053a57607f821691505b6020821081141561055b57634e487b7160e01b600052602260045260246000fd5b50919050565b634e487b7160e01b600052604160045260246000fdfe00000001420b1099b9ef5baba6d92029594ef45e19a04a4a00000044ae962acf000000000000000000000000000000000000000000000000000000000000000100000000000000000000000000000000000000000000000000000000000001f4a2646970667358221220eea68b0b960f23f3f8a0f7295dc4ada3e0e94be6c3336e7a27d6894ab259631564736f6c6343000806003300000001420b1099b9ef5baba6d92029594ef45e19a04a4a00000044ae962acf000000000000000000000000000000000000000000000000000000000000000100000000000000000000000000000000000000000000000000000000000001f4",
    "linkReferences": {}
  },
  "methodIdentifiers": {
    "DEFAULT_EVM_SCRIPT()": "dffa6a86",
    "DEFAULT_EVM_SCRIPT_HASH()": "733fad10",
    "DEFAULT_PERMISSIONS()": "809e05eb",
    "createEVMScript(address,bytes)": "fea21c9c",
    "creator()": "02d05d3f",
    "evmScript()": "e6e48e21",
    "evmScriptCallData()": "e4b89c65",
    "setEVMScript(bytes)": "0cf46293"
  },
  "storageLayout": {
    "storage": [
      {
        "astId": 4888,
        "contract": "contracts/test/EVMScriptFactoryStub.sol:EVMScriptFactoryStub",
        "label": "creator",
        "offset": 0,
        "slot": "0",
        "type": "t_address"
      },
      {
        "astId": 4890,
        "contract": "contracts/test/EVMScriptFactoryStub.sol:EVMScriptFactoryStub",
        "label": "evmScriptCallData",
        "offset": 0,
        "slot": "1",
        "type": "t_bytes_storage"
      },
      {
        "astId": 4893,
        "contract": "contracts/test/EVMScriptFactoryStub.sol:EVMScriptFactoryStub",
        "label": "evmScript",
        "offset": 0,
        "slot": "2",
        "type": "t_bytes_storage"
      }
    ],
    "types": {
      "t_address": {
        "encoding": "inplace",
        "label": "address",
        "numberOfBytes": "20"
      },
      "t_bytes_storage": {
        "encoding": "bytes",
        "label": "bytes",
        "numberOfBytes": "32"
      }
    }
  },
  "id": 26
}