{
  "abi": [
    {
      "inputs": [
        {
          "internalType": "address",
          "name": "_admin",
          "type": "address"
        }
      ],
      "stateMutability": "nonpayable",
      "type": "constructor"
    },
    {
      "anonymous": false,
      "inputs": [
        {
          "indexed": true,
          "internalType": "address",
          "name": "_evmScriptFactory",
          "type": "address"
        },
        {
          "indexed": false,
          "internalType": "bytes",
          "name": "_permissions",
          "type": "bytes"
        }
      ],
      "name": "EVMScriptFactoryAdded",
      "type": "event"
    },
    {
      "anonymous": false,
      "inputs": [
        {
          "indexed": true,
          "internalType": "address",
          "name": "_evmScriptFactory",
          "type": "address"
        }
      ],
      "name": "EVMScriptFactoryRemoved",
      "type": "event"
    },
    {
      "anonymous": false,
      "inputs": [
        {
          "indexed": true,
          "internalType": "bytes32",
          "name": "role",
          "type": "bytes32"
        },
        {
          "indexed": true,
          "internalType": "bytes32",
          "name": "previousAdminRole",
          "type": "bytes32"
        },
        {
          "indexed": true,
          "internalType": "bytes32",
          "name": "newAdminRole",
          "type": "bytes32"
        }
      ],
      "name": "RoleAdminChanged",
      "type": "event"
    },
    {
      "anonymous": false,
      "inputs": [
        {
          "indexed": true,
          "internalType": "bytes32",
          "name": "role",
          "type": "bytes32"
        },
        {
          "indexed": true,
          "internalType": "address",
          "name": "account",
          "type": "address"
        },
        {
          "indexed": true,
          "internalType": "address",
          "name": "sender",
          "type": "address"
        }
      ],
      "name": "RoleGranted",
      "type": "event"
    },
    {
      "anonymous": false,
      "inputs": [
        {
          "indexed": true,
          "internalType": "bytes32",
          "name": "role",
          "type": "bytes32"
        },
        {
          "indexed": true,
          "internalType": "address",
          "name": "account",
          "type": "address"
        },
        {
          "indexed": true,
          "internalType": "address",
          "name": "sender",
          "type": "address"
        }
      ],
      "name": "RoleRevoked",
      "type": "event"
    },
    {
      "inputs": [],
      "name": "DEFAULT_ADMIN_ROLE",
      "outputs": [
        {
          "internalType": "bytes32",
          "name": "",
          "type": "bytes32"
        }
      ],
      "stateMutability": "view",
      "type": "function"
    },
    {
      "inputs": [
        {
          "internalType": "address",
          "name": "_evmScriptFactory",
          "type": "address"
        },
        {
          "internalType": "bytes",
          "name": "_permissions",
          "type": "bytes"
        }
      ],
      "name": "addEVMScriptFactory",
      "outputs": [],
      "stateMutability": "nonpayable",
      "type": "function"
    },
    {
      "inputs": [
        {
          "internalType": "uint256",
          "name": "",
          "type": "uint256"
        }
      ],
      "name": "evmScriptFactories",
      "outputs": [
        {
          "internalType": "address",
          "name": "",
          "type": "address"
        }
      ],
      "stateMutability": "view",
      "type": "function"
    },
    {
      "inputs": [
        {
          "internalType": "address",
          "name": "",
          "type": "address"
        }
      ],
      "name": "evmScriptFactoryPermissions",
      "outputs": [
        {
          "internalType": "bytes",
          "name": "",
          "type": "bytes"
        }
      ],
      "stateMutability": "view",
      "type": "function"
    },
    {
      "inputs": [],
      "name": "getEVMScriptFactories",
      "outputs": [
        {
          "internalType": "address[]",
          "name": "",
          "type": "address[]"
        }
      ],
      "stateMutability": "view",
      "type": "function"
    },
    {
      "inputs": [
        {
          "internalType": "bytes32",
          "name": "role",
          "type": "bytes32"
        }
      ],
      "name": "getRoleAdmin",
      "outputs": [
        {
          "internalType": "bytes32",
          "name": "",
          "type": "bytes32"
        }
      ],
      "stateMutability": "view",
      "type": "function"
    },
    {
      "inputs": [
        {
          "internalType": "bytes32",
          "name": "role",
          "type": "bytes32"
        },
        {
          "internalType": "address",
          "name": "account",
          "type": "address"
        }
      ],
      "name": "grantRole",
      "outputs": [],
      "stateMutability": "nonpayable",
      "type": "function"
    },
    {
      "inputs": [
        {
          "internalType": "bytes32",
          "name": "role",
          "type": "bytes32"
        },
        {
          "internalType": "address",
          "name": "account",
          "type": "address"
        }
      ],
      "name": "hasRole",
      "outputs": [
        {
          "internalType": "bool",
          "name": "",
          "type": "bool"
        }
      ],
      "stateMutability": "view",
      "type": "function"
    },
    {
      "inputs": [
        {
          "internalType": "address",
          "name": "_maybeEVMScriptFactory",
          "type": "address"
        }
      ],
      "name": "isEVMScriptFactory",
      "outputs": [
        {
          "internalType": "bool",
          "name": "",
          "type": "bool"
        }
      ],
      "stateMutability": "view",
      "type": "function"
    },
    {
      "inputs": [
        {
          "internalType": "address",
          "name": "_evmScriptFactory",
          "type": "address"
        }
      ],
      "name": "removeEVMScriptFactory",
      "outputs": [],
      "stateMutability": "nonpayable",
      "type": "function"
    },
    {
      "inputs": [
        {
          "internalType": "bytes32",
          "name": "role",
          "type": "bytes32"
        },
        {
          "internalType": "address",
          "name": "account",
          "type": "address"
        }
      ],
      "name": "renounceRole",
      "outputs": [],
      "stateMutability": "nonpayable",
      "type": "function"
    },
    {
      "inputs": [
        {
          "internalType": "bytes32",
          "name": "role",
          "type": "bytes32"
        },
        {
          "internalType": "address",
          "name": "account",
          "type": "address"
        }
      ],
      "name": "revokeRole",
      "outputs": [],
      "stateMutability": "nonpayable",
      "type": "function"
    },
    {
      "inputs": [
        {
          "internalType": "bytes4",
          "name": "interfaceId",
          "type": "bytes4"
        }
      ],
      "name": "supportsInterface",
      "outputs": [
        {
          "internalType": "bool",
          "name": "",
          "type": "bool"
        }
      ],
      "stateMutability": "view",
      "type": "function"
    }
  ],
  "bytecode": {
    "object": "0x608060405234801561001057600080fd5b506040516110e33803806110e383398101604081905261002f916100ec565b61003a600082610040565b5061011c565b61004a828261004e565b5050565b6000828152602081815260408083206001600160a01b038516845290915290205460ff1661004a576000828152602081815260408083206001600160a01b03851684529091529020805460ff191660011790556100a83390565b6001600160a01b0316816001600160a01b0316837f2f8788117e7eff1d82e926ec794901d17c78024a50270940304540a733656f0d60405160405180910390a45050565b6000602082840312156100fe57600080fd5b81516001600160a01b038116811461011557600080fd5b9392505050565b610fb88061012b6000396000f3fe608060405234801561001057600080fd5b50600436106100cf5760003560e01c80637d3ac0fb1161008c578063d547741f11610066578063d547741f146101a9578063ee20ff08146101bc578063ef89ad95146101d1578063f9783b48146101fc57600080fd5b80637d3ac0fb1461017b57806391d148541461018e578063a217fddf146101a157600080fd5b806301ffc9a7146100d4578063248a9ca3146100fc5780632d65a9f01461012d5780632f2ff15d1461014057806336568abe1461015557806342f0498914610168575b600080fd5b6100e76100e2366004610d0d565b61021c565b60405190151581526020015b60405180910390f35b61011f61010a366004610cc8565b60009081526020819052604090206001015490565b6040519081526020016100f3565b6100e761013b366004610beb565b610253565b61015361014e366004610ce1565b610273565b005b610153610163366004610ce1565b61029e565b610153610176366004610c06565b610321565b610153610189366004610beb565b610497565b6100e761019c366004610ce1565b6105f7565b61011f600081565b6101536101b7366004610ce1565b610620565b6101c4610646565b6040516100f39190610dd8565b6101e46101df366004610cc8565b6106a8565b6040516001600160a01b0390911681526020016100f3565b61020f61020a366004610beb565b6106d2565b6040516100f39190610e25565b60006001600160e01b03198216637965db0b60e01b148061024d57506301ffc9a760e01b6001600160e01b03198316145b92915050565b6001600160a01b038116600090815260026020526040812054151561024d565b60008281526020819052604090206001015461028f813361076c565b61029983836107d0565b505050565b6001600160a01b03811633146103135760405162461bcd60e51b815260206004820152602f60248201527f416363657373436f6e74726f6c3a2063616e206f6e6c792072656e6f756e636560448201526e103937b632b9903337b91039b2b63360891b60648201526084015b60405180910390fd5b61031d8282610854565b5050565b600061032d813361076c565b610336826108b9565b6103785760405162461bcd60e51b8152602060048201526013602482015272494e56414c49445f5045524d495353494f4e5360681b604482015260640161030a565b6001600160a01b038316600090815260026020526040902054156103de5760405162461bcd60e51b815260206004820181905260248201527f45564d5f5343524950545f464143544f52595f414c52454144595f4144444544604482015260640161030a565b6001805480820182557fb10e2d527612073b26eecdfd717e6a320cf44b4afac2b0732d9fcbe2b7fa0cf60180546001600160a01b0319166001600160a01b0386169081179091559054600091825260026020908152604080842092909255600381529120835161045092850190610af9565b50826001600160a01b03167fa95e7ae5870d8fc3c3f7b7a378c9c4f469e724c240ee45fbab61758fe7eb98178360405161048a9190610e25565b60405180910390a2505050565b60006104a3813361076c565b60006104ae836108e5565b600180549192506000916104c29190610e6f565b905080821461055e576000600182815481106104e0576104e0610f56565b600091825260209091200154600180546001600160a01b03909216925082918590811061050f5761050f610f56565b600091825260209091200180546001600160a01b0319166001600160a01b0392909216919091179055610543836001610e38565b6001600160a01b039091166000908152600260205260409020555b600180548061056f5761056f610f40565b60008281526020808220830160001990810180546001600160a01b03191690559092019092556001600160a01b0386168252600281526040808320839055600390915281206105bd91610b7d565b6040516001600160a01b038516907f158e73cc156a7591e8e04fa6cdfc13d89de9e19fdc692bf0502e2a622c08a12a90600090a250505050565b6000918252602082815260408084206001600160a01b0393909316845291905290205460ff1690565b60008281526020819052604090206001015461063c813361076c565b6102998383610854565b6060600180548060200260200160405190810160405280929190818152602001828054801561069e57602002820191906000526020600020905b81546001600160a01b03168152600190910190602001808311610680575b5050505050905090565b600181815481106106b857600080fd5b6000918252602090912001546001600160a01b0316905081565b600360205260009081526040902080546106eb90610ecd565b80601f016020809104026020016040519081016040528092919081815260200182805461071790610ecd565b80156107645780601f1061073957610100808354040283529160200191610764565b820191906000526020600020905b81548152906001019060200180831161074757829003601f168201915b505050505081565b61077682826105f7565b61031d5761078e816001600160a01b03166014610956565b610799836020610956565b6040516020016107aa929190610d63565b60408051601f198184030181529082905262461bcd60e51b825261030a91600401610e25565b6107da82826105f7565b61031d576000828152602081815260408083206001600160a01b03851684529091529020805460ff191660011790556108103390565b6001600160a01b0316816001600160a01b0316837f2f8788117e7eff1d82e926ec794901d17c78024a50270940304540a733656f0d60405160405180910390a45050565b61085e82826105f7565b1561031d576000828152602081815260408083206001600160a01b0385168085529252808320805460ff1916905551339285917ff6391f5c32d9c69d2a47ea670b442974b53935d1edc7fd64eb21e047a839171b9190a45050565b600080825111801561024d57506108d260046014610e38565b82516108de9190610f08565b1592915050565b6001600160a01b0381166000908152600260205260409020548061094b5760405162461bcd60e51b815260206004820152601c60248201527f45564d5f5343524950545f464143544f52595f4e4f545f464f554e4400000000604482015260640161030a565b61024d600182610e6f565b60606000610965836002610e50565b610970906002610e38565b67ffffffffffffffff81111561098857610988610f6c565b6040519080825280601f01601f1916602001820160405280156109b2576020820181803683370190505b509050600360fc1b816000815181106109cd576109cd610f56565b60200101906001600160f81b031916908160001a905350600f60fb1b816001815181106109fc576109fc610f56565b60200101906001600160f81b031916908160001a9053506000610a20846002610e50565b610a2b906001610e38565b90505b6001811115610aa3576f181899199a1a9b1b9c1cb0b131b232b360811b85600f1660108110610a5f57610a5f610f56565b1a60f81b828281518110610a7557610a75610f56565b60200101906001600160f81b031916908160001a90535060049490941c93610a9c81610eb6565b9050610a2e565b508315610af25760405162461bcd60e51b815260206004820181905260248201527f537472696e67733a20686578206c656e67746820696e73756666696369656e74604482015260640161030a565b9392505050565b828054610b0590610ecd565b90600052602060002090601f016020900481019282610b275760008555610b6d565b82601f10610b4057805160ff1916838001178555610b6d565b82800160010185558215610b6d579182015b82811115610b6d578251825591602001919060010190610b52565b50610b79929150610bba565b5090565b508054610b8990610ecd565b6000825580601f10610b99575050565b601f016020900490600052602060002090810190610bb79190610bba565b50565b5b80821115610b795760008155600101610bbb565b80356001600160a01b0381168114610be657600080fd5b919050565b600060208284031215610bfd57600080fd5b610af282610bcf565b60008060408385031215610c1957600080fd5b610c2283610bcf565b9150602083013567ffffffffffffffff80821115610c3f57600080fd5b818501915085601f830112610c5357600080fd5b813581811115610c6557610c65610f6c565b604051601f8201601f19908116603f01168101908382118183101715610c8d57610c8d610f6c565b81604052828152886020848701011115610ca657600080fd5b8260208601602083013760006020848301015280955050505050509250929050565b600060208284031215610cda57600080fd5b5035919050565b60008060408385031215610cf457600080fd5b82359150610d0460208401610bcf565b90509250929050565b600060208284031215610d1f57600080fd5b81356001600160e01b031981168114610af257600080fd5b60008151808452610d4f816020860160208601610e86565b601f01601f19169290920160200192915050565b7f416363657373436f6e74726f6c3a206163636f756e7420000000000000000000815260008351610d9b816017850160208801610e86565b7001034b99036b4b9b9b4b733903937b6329607d1b6017918401918201528351610dcc816028840160208801610e86565b01602801949350505050565b6020808252825182820181905260009190848201906040850190845b81811015610e195783516001600160a01b031683529284019291840191600101610df4565b50909695505050505050565b602081526000610af26020830184610d37565b60008219821115610e4b57610e4b610f2a565b500190565b6000816000190483118215151615610e6a57610e6a610f2a565b500290565b600082821015610e8157610e81610f2a565b500390565b60005b83811015610ea1578181015183820152602001610e89565b83811115610eb0576000848401525b50505050565b600081610ec557610ec5610f2a565b506000190190565b600181811c90821680610ee157607f821691505b60208210811415610f0257634e487b7160e01b600052602260045260246000fd5b50919050565b600082610f2557634e487b7160e01b600052601260045260246000fd5b500690565b634e487b7160e01b600052601160045260246000fd5b634e487b7160e01b600052603160045260246000fd5b634e487b7160e01b600052603260045260246000fd5b634e487b7160e01b600052604160045260246000fdfea26469706673582212206dea3175e22f8f94d10f615af1483776f4e84b850eb044961fde5b3ab01c2d2864736f6c63430008060033",
    "linkReferences": {}
  },
  "methodIdentifiers": {
    "DEFAULT_ADMIN_ROLE()": "a217fddf",
    "addEVMScriptFactory(address,bytes)": "42f04989",
    "evmScriptFactories(uint256)": "ef89ad95",
    "evmScriptFactoryPermissions(address)": "f9783b48",
    "getEVMScriptFactories()": "ee20ff08",
    "getRoleAdmin(bytes32)": "248a9ca3",
    "grantRole(bytes32,address)": "2f2ff15d",
    "hasRole(bytes32,address)": "91d14854",
    "isEVMScriptFactory(address)": "2d65a9f0",
    "removeEVMScriptFactory(address)": "7d3ac0fb",
    "renounceRole(bytes32,address)": "36568abe",
    "revokeRole(bytes32,address)": "d547741f",
    "supportsInterface(bytes4)": "01ffc9a7"
  },
  "storageLayout": {
    "storage": [
      {
        "astId": 5177,
        "contract": "contracts/EVMScriptFactoriesRegistry.sol:EVMScriptFactoriesRegistry",
        "label": "_roles",
        "offset": 0,
        "slot": "0",
        "type": "t_mapping(t_bytes32,t_struct(RoleData)5172_storage)"
      },
      {
        "astId": 2021,
        "contract": "contracts/EVMScriptFactoriesRegistry.sol:EVMScriptFactoriesRegistry",
        "label": "evmScriptFactories",
        "offset": 0,
        "slot": "1",
        "type": "t_array(t_address)dyn_storage"
      },
      {
        "astId": 2025,
        "contract": "contracts/EVMScriptFactoriesRegistry.sol:EVMScriptFactoriesRegistry",
        "label": "evmScriptFactoryIndices",
        "offset": 0,
        "slot": "2",
        "type": "t_mapping(t_address,t_uint256)"
      },
      {
        "astId": 2030,
        "contract": "contracts/EVMScriptFactoriesRegistry.sol:EVMScriptFactoriesRegistry",
        "label": "evmScriptFactoryPermissions",
        "offset": 0,
        "slot": "3",
        "type": "t_mapping(t_address,t_bytes_storage)"
      }
    ],
    "types": {
      "t_address": {
        "encoding": "inplace",
        "label": "address",
        "numberOfBytes": "20"
      },
      "t_array(t_address)dyn_storage": {
        "encoding": "dynamic_array",
        "label": "address[]",
        "numberOfBytes": "32",
        "base": "t_address"
      },
      "t_bool": {
        "encoding": "inplace",
        "label": "bool",
        "numberOfBytes": "1"
      },
      "t_bytes32": {
        "encoding": "inplace",
        "label": "bytes32",
        "numberOfBytes": "32"
      },
      "t_bytes_storage": {
        "encoding": "bytes",
        "label": "bytes",
        "numberOfBytes": "32"
      },
      "t_mapping(t_address,t_bool)": {
        "encoding": "mapping",
        "key": "t_address",
        "label": "mapping(address => bool)",
        "numberOfBytes": "32",
        "value": "t_bool"
      },
      "t_mapping(t_address,t_bytes_storage)": {
        "encoding": "mapping",
        "key": "t_address",
        "label": "mapping(address => bytes)",
        "numberOfBytes": "32",
        "value": "t_bytes_storage"
      },
      "t_mapping(t_address,t_uint256)": {
        "encoding": "mapping",
        "key": "t_address",
        "label": "mapping(address => uint256)",
        "numberOfBytes": "32",
        "value": "t_uint256"
      },
      "t_mapping(t_bytes32,t_struct(RoleData)5172_storage)": {
        "encoding": "mapping",
        "key": "t_bytes32",
        "label": "mapping(bytes32 => struct AccessControl.RoleData)",
        "numberOfBytes": "32",
        "value": "t_struct(RoleData)5172_storage"
      },
      "t_struct(RoleData)5172_storage": {
        "encoding": "inplace",
        "label": "struct AccessControl.RoleData",
        "numberOfBytes": "64",
        "members": [
          {
            "astId": 5169,
            "contract": "contracts/EVMScriptFactoriesRegistry.sol:EVMScriptFactoriesRegistry",
            "label": "members",
            "offset": 0,
            "slot": "0",
            "type": "t_mapping(t_address,t_bool)"
          },
          {
            "astId": 5171,
            "contract": "contracts/EVMScriptFactoriesRegistry.sol:EVMScriptFactoriesRegistry",
            "label": "adminRole",
            "offset": 0,
            "slot": "1",
            "type": "t_bytes32"
          }
        ]
      },
      "t_uint256": {
        "encoding": "inplace",
        "label": "uint256",
        "numberOfBytes": "32"
      }
    }
  },
  "id": 10
}