{
  "abi": [
    {
      "inputs": [
        {
          "internalType": "address[]",
          "name": "_setLimitParametersRoleHolders",
          "type": "address[]"
        },
        {
          "internalType": "address[]",
          "name": "_updateSpentAmountRoleHolders",
          "type": "address[]"
        },
        {
          "internalType": "contract IBokkyPooBahsDateTimeContract",
          "name": "_bokkyPooBahsDateTimeContract",
          "type": "address"
        }
      ],
      "stateMutability": "nonpayable",
      "type": "constructor"
    },
    {
      "anonymous": false,
      "inputs": [
        {
          "indexed": true,
          "internalType": "uint256",
          "name": "_periodStartTimestamp",
          "type": "uint256"
        }
      ],
      "name": "CurrentPeriodAdvanced",
      "type": "event"
    },
    {
      "anonymous": false,
      "inputs": [
        {
          "indexed": false,
          "internalType": "uint256",
          "name": "_limit",
          "type": "uint256"
        },
        {
          "indexed": false,
          "internalType": "uint256",
          "name": "_periodDurationMonths",
          "type": "uint256"
        }
      ],
      "name": "LimitsParametersChanged",
      "type": "event"
    },
    {
      "anonymous": false,
      "inputs": [
        {
          "indexed": true,
          "internalType": "bytes32",
          "name": "role",
          "type": "bytes32"
        },
        {
          "indexed": true,
          "internalType": "bytes32",
          "name": "previousAdminRole",
          "type": "bytes32"
        },
        {
          "indexed": true,
          "internalType": "bytes32",
          "name": "newAdminRole",
          "type": "bytes32"
        }
      ],
      "name": "RoleAdminChanged",
      "type": "event"
    },
    {
      "anonymous": false,
      "inputs": [
        {
          "indexed": true,
          "internalType": "bytes32",
          "name": "role",
          "type": "bytes32"
        },
        {
          "indexed": true,
          "internalType": "address",
          "name": "account",
          "type": "address"
        },
        {
          "indexed": true,
          "internalType": "address",
          "name": "sender",
          "type": "address"
        }
      ],
      "name": "RoleGranted",
      "type": "event"
    },
    {
      "anonymous": false,
      "inputs": [
        {
          "indexed": true,
          "internalType": "bytes32",
          "name": "role",
          "type": "bytes32"
        },
        {
          "indexed": true,
          "internalType": "address",
          "name": "account",
          "type": "address"
        },
        {
          "indexed": true,
          "internalType": "address",
          "name": "sender",
          "type": "address"
        }
      ],
      "name": "RoleRevoked",
      "type": "event"
    },
    {
      "anonymous": false,
      "inputs": [
        {
          "indexed": false,
          "internalType": "uint256",
          "name": "_alreadySpentAmount",
          "type": "uint256"
        },
        {
          "indexed": false,
          "internalType": "uint256",
          "name": "_spendableBalance",
          "type": "uint256"
        },
        {
          "indexed": true,
          "internalType": "uint256",
          "name": "_periodStartTimestamp",
          "type": "uint256"
        },
        {
          "indexed": false,
          "internalType": "uint256",
          "name": "_periodEndTimestamp",
          "type": "uint256"
        }
      ],
      "name": "SpendableAmountChanged",
      "type": "event"
    },
    {
      "inputs": [],
      "name": "DEFAULT_ADMIN_ROLE",
      "outputs": [
        {
          "internalType": "bytes32",
          "name": "",
          "type": "bytes32"
        }
      ],
      "stateMutability": "view",
      "type": "function"
    },
    {
      "inputs": [],
      "name": "SET_LIMIT_PARAMETERS_ROLE",
      "outputs": [
        {
          "internalType": "bytes32",
          "name": "",
          "type": "bytes32"
        }
      ],
      "stateMutability": "view",
      "type": "function"
    },
    {
      "inputs": [],
      "name": "UPDATE_SPENT_AMOUNT_ROLE",
      "outputs": [
        {
          "internalType": "bytes32",
          "name": "",
          "type": "bytes32"
        }
      ],
      "stateMutability": "view",
      "type": "function"
    },
    {
      "inputs": [],
      "name": "bokkyPooBahsDateTimeContract",
      "outputs": [
        {
          "internalType": "contract IBokkyPooBahsDateTimeContract",
          "name": "",
          "type": "address"
        }
      ],
      "stateMutability": "view",
      "type": "function"
    },
    {
      "inputs": [
        {
          "internalType": "uint256",
          "name": "_month",
          "type": "uint256"
        }
      ],
      "name": "getFirstMonthInPeriodFromCurrentMonth",
      "outputs": [
        {
          "internalType": "uint256",
          "name": "_firstMonthInPeriod",
          "type": "uint256"
        }
      ],
      "stateMutability": "view",
      "type": "function"
    },
    {
      "inputs": [],
      "name": "getLimitParameters",
      "outputs": [
        {
          "internalType": "uint256",
          "name": "",
          "type": "uint256"
        },
        {
          "internalType": "uint256",
          "name": "",
          "type": "uint256"
        }
      ],
      "stateMutability": "view",
      "type": "function"
    },
    {
      "inputs": [
        {
          "internalType": "uint256",
          "name": "_timestamp",
          "type": "uint256"
        }
      ],
      "name": "getPeriodEndFromTimestamp",
      "outputs": [
        {
          "internalType": "uint256",
          "name": "",
          "type": "uint256"
        }
      ],
      "stateMutability": "view",
      "type": "function"
    },
    {
      "inputs": [
        {
          "internalType": "uint256",
          "name": "_timestamp",
          "type": "uint256"
        }
      ],
      "name": "getPeriodStartFromTimestamp",
      "outputs": [
        {
          "internalType": "uint256",
          "name": "",
          "type": "uint256"
        }
      ],
      "stateMutability": "view",
      "type": "function"
    },
    {
      "inputs": [],
      "name": "getPeriodState",
      "outputs": [
        {
          "internalType": "uint256",
          "name": "_alreadySpentAmount",
          "type": "uint256"
        },
        {
          "internalType": "uint256",
          "name": "_spendableBalanceInPeriod",
          "type": "uint256"
        },
        {
          "internalType": "uint256",
          "name": "_periodStartTimestamp",
          "type": "uint256"
        },
        {
          "internalType": "uint256",
          "name": "_periodEndTimestamp",
          "type": "uint256"
        }
      ],
      "stateMutability": "view",
      "type": "function"
    },
    {
      "inputs": [
        {
          "internalType": "bytes32",
          "name": "role",
          "type": "bytes32"
        }
      ],
      "name": "getRoleAdmin",
      "outputs": [
        {
          "internalType": "bytes32",
          "name": "",
          "type": "bytes32"
        }
      ],
      "stateMutability": "view",
      "type": "function"
    },
    {
      "inputs": [
        {
          "internalType": "bytes32",
          "name": "role",
          "type": "bytes32"
        },
        {
          "internalType": "address",
          "name": "account",
          "type": "address"
        }
      ],
      "name": "grantRole",
      "outputs": [],
      "stateMutability": "nonpayable",
      "type": "function"
    },
    {
      "inputs": [
        {
          "internalType": "bytes32",
          "name": "role",
          "type": "bytes32"
        },
        {
          "internalType": "address",
          "name": "account",
          "type": "address"
        }
      ],
      "name": "hasRole",
      "outputs": [
        {
          "internalType": "bool",
          "name": "",
          "type": "bool"
        }
      ],
      "stateMutability": "view",
      "type": "function"
    },
    {
      "inputs": [
        {
          "internalType": "uint256",
          "name": "_payoutAmount",
          "type": "uint256"
        },
        {
          "internalType": "uint256",
          "name": "_motionDuration",
          "type": "uint256"
        }
      ],
      "name": "isUnderSpendableBalance",
      "outputs": [
        {
          "internalType": "bool",
          "name": "",
          "type": "bool"
        }
      ],
      "stateMutability": "view",
      "type": "function"
    },
    {
      "inputs": [
        {
          "internalType": "bytes32",
          "name": "role",
          "type": "bytes32"
        },
        {
          "internalType": "address",
          "name": "account",
          "type": "address"
        }
      ],
      "name": "renounceRole",
      "outputs": [],
      "stateMutability": "nonpayable",
      "type": "function"
    },
    {
      "inputs": [
        {
          "internalType": "bytes32",
          "name": "role",
          "type": "bytes32"
        },
        {
          "internalType": "address",
          "name": "account",
          "type": "address"
        }
      ],
      "name": "revokeRole",
      "outputs": [],
      "stateMutability": "nonpayable",
      "type": "function"
    },
    {
      "inputs": [
        {
          "internalType": "uint256",
          "name": "_limit",
          "type": "uint256"
        },
        {
          "internalType": "uint256",
          "name": "_periodDurationMonths",
          "type": "uint256"
        }
      ],
      "name": "setLimitParameters",
      "outputs": [],
      "stateMutability": "nonpayable",
      "type": "function"
    },
    {
      "inputs": [],
      "name": "spendableBalance",
      "outputs": [
        {
          "internalType": "uint256",
          "name": "",
          "type": "uint256"
        }
      ],
      "stateMutability": "view",
      "type": "function"
    },
    {
      "inputs": [
        {
          "internalType": "bytes4",
          "name": "interfaceId",
          "type": "bytes4"
        }
      ],
      "name": "supportsInterface",
      "outputs": [
        {
          "internalType": "bool",
          "name": "",
          "type": "bool"
        }
      ],
      "stateMutability": "view",
      "type": "function"
    },
    {
      "inputs": [
        {
          "internalType": "uint256",
          "name": "_payoutAmount",
          "type": "uint256"
        }
      ],
      "name": "updateSpentAmount",
      "outputs": [],
      "stateMutability": "nonpayable",
      "type": "function"
    }
  ],
  "bytecode": {
    "object": "0x60a06040523480156200001157600080fd5b506040516200159338038062001593833981016040819052620000349162000296565b82828260005b8351811015620000a757620000927f389c107d46e44659ea9e3d38a2e43f5414bdd0fd8244fa558561536ea90c2ece8583815181106200007e576200007e62000340565b60200260200101516200012160201b60201c565b806200009e8162000316565b9150506200003a565b5060005b82518110156200010457620000ef7fc5260260446719a726d11a6faece21d19daa48b4cbcca118345832d4cb71df998483815181106200007e576200007e62000340565b80620000fb8162000316565b915050620000ab565b5060601b6001600160601b03191660805250620003859350505050565b6200012d828262000131565b5050565b6000828152602081815260408083206001600160a01b038516845290915290205460ff166200012d576000828152602081815260408083206001600160a01b03851684529091529020805460ff191660011790556200018d3390565b6001600160a01b0316816001600160a01b0316837f2f8788117e7eff1d82e926ec794901d17c78024a50270940304540a733656f0d60405160405180910390a45050565b8051620001de816200036c565b919050565b600082601f830112620001f557600080fd5b815160206001600160401b038083111562000214576200021462000356565b8260051b604051601f19603f830116810181811084821117156200023c576200023c62000356565b604052848152838101925086840182880185018910156200025c57600080fd5b600092505b858310156200028a576200027581620001d1565b84529284019260019290920191840162000261565b50979650505050505050565b600080600060608486031215620002ac57600080fd5b83516001600160401b0380821115620002c457600080fd5b620002d287838801620001e3565b94506020860151915080821115620002e957600080fd5b50620002f886828701620001e3565b92505060408401516200030b816200036c565b809150509250925092565b60006000198214156200033957634e487b7160e01b600052601160045260246000fd5b5060010190565b634e487b7160e01b600052603260045260246000fd5b634e487b7160e01b600052604160045260246000fd5b6001600160a01b03811681146200038257600080fd5b50565b60805160601c6111da620003b96000396000818161026101528181610acc01528181610b550152610c3d01526111da6000f3fe608060405234801561001057600080fd5b50600436106101215760003560e01c8063530aa9b0116100ad57806391d148541161007157806391d14854146102ae578063a217fddf146102c1578063d547741f146102c9578063e759b06c146102dc578063ee72782d1461030a57600080fd5b8063530aa9b01461022357806366671229146102365780636e712207146102495780637ef7a4621461025c5780638a168d4f1461029b57600080fd5b80632f2ff15d116100f45780632f2ff15d146101ae57806336568abe146101c35780633e0bde67146101d6578063435bd804146101e95780634ba578ab1461021057600080fd5b806301ffc9a714610126578063236fedce1461014e578063248a9ca3146101835780632a9a872a146101a6575b600080fd5b610139610134366004610f70565b610332565b60405190151581526020015b60405180910390f35b6101757f389c107d46e44659ea9e3d38a2e43f5414bdd0fd8244fa558561536ea90c2ece81565b604051908152602001610145565b610175610191366004610f1b565b60009081526020819052604090206001015490565b610175610369565b6101c16101bc366004610f34565b610391565b005b6101c16101d1366004610f34565b6103bc565b6101c16101e4366004610fb3565b61043f565b6101757fc5260260446719a726d11a6faece21d19daa48b4cbcca118345832d4cb71df9981565b61013961021e366004610fb3565b6105dc565b610175610231366004610f1b565b610640565b6101c1610244366004610f1b565b61065b565b610175610257366004610f1b565b61080b565b6102837f000000000000000000000000000000000000000000000000000000000000000081565b6040516001600160a01b039091168152602001610145565b6101756102a9366004610f1b565b610816565b6101396102bc366004610f34565b610821565b610175600081565b6101c16102d7366004610f34565b61084a565b600254600154604080516001600160801b03909316835267ffffffffffffffff909116602083015201610145565b610312610870565b604080519485526020850193909352918301526060820152608001610145565b60006001600160e01b03198216637965db0b60e01b148061036357506301ffc9a760e01b6001600160e01b03198316145b92915050565b60025460009061038c906001600160801b0380821691600160801b9004166108b5565b905090565b6000828152602081905260409020600101546103ad81336108c8565b6103b7838361092c565b505050565b6001600160a01b03811633146104315760405162461bcd60e51b815260206004820152602f60248201527f416363657373436f6e74726f6c3a2063616e206f6e6c792072656e6f756e636560448201526e103937b632b9903337b91039b2b63360891b60648201526084015b60405180910390fd5b61043b82826109b0565b5050565b7f389c107d46e44659ea9e3d38a2e43f5414bdd0fd8244fa558561536ea90c2ece61046a81336108c8565b60408051808201909152600f81526e1513d3d7d3105491d157d312535255608a1b60208201526001600160801b038411156104b85760405162461bcd60e51b81526004016104289190611078565b506104c282610a15565b6001805467ffffffffffffffff191667ffffffffffffffff841617905560006104ea42610a93565b90506104ff6104fa600183611104565b610b4e565b6040517f01e1441ccf0c1da6f26a624ad4c5c20c52ccc3c56ecad9f154ec6af11122ea5190600090a260018054600160401b600160c01b031916600160401b6001600160801b038481169190910291909117909155600280546fffffffffffffffffffffffffffffffff19168683161790819055600160801b90041684101561059d57600280546001600160801b03808716600160801b0291161790555b60408051858152602081018590527f673d7870f9aef68143dc0ba3aa39a6b503258aecfcb7493060c477921da3b842910160405180910390a150505050565b600154600090600160401b90046001600160801b03166105fc83426110ab565b1061061657506002546001600160801b0316821115610363565b600254610636906001600160801b0380821691600160801b9004166108b5565b9092111592915050565b60015460009061036390839067ffffffffffffffff16610cca565b7fc5260260446719a726d11a6faece21d19daa48b4cbcca118345832d4cb71df9961068681336108c8565b6002546001546001600160801b03600160801b8304811692811691600160401b90041642811161071b576106b942610a93565b6000935090506106cd6104fa600183611104565b6040517f01e1441ccf0c1da6f26a624ad4c5c20c52ccc3c56ecad9f154ec6af11122ea5190600090a260018054600160401b600160c01b031916600160401b6001600160801b038416021790555b61072582846108b5565b8511156040518060400160405280601d81526020017f53554d5f455843454544535f5350454e4441424c455f42414c414e43450000008152509061077c5760405162461bcd60e51b81526004016104289190611078565b5061078785846110ab565b600280546001600160801b03808416600160801b029116179055925060008080806107b3868887610d51565b60408051858152602081018590529081018290529397509195509350915082907fc7b603a3095aa2949aabc1b803b13eec3e3f35b9e735f6700576e5349d454b509060600160405180910390a2505050505050505050565b600061036382610a93565b600061036382610b4e565b6000918252602082815260408084206001600160a01b0393909316845291905290205460ff1690565b60008281526020819052604090206001015461086681336108c8565b6103b783836109b0565b6002546001546000918291829182916108a7916001600160801b0380821692600160801b909204811691600160401b900416610d51565b935093509350935090919293565b60006108c18284611104565b9392505050565b6108d28282610821565b61043b576108ea816001600160a01b03166014610d7f565b6108f5836020610d7f565b604051602001610906929190611003565b60408051601f198184030181529082905262461bcd60e51b825261042891600401611078565b6109368282610821565b61043b576000828152602081815260408083206001600160a01b03851684529091529020805460ff1916600117905561096c3390565b6001600160a01b0316816001600160a01b0316837f2f8788117e7eff1d82e926ec794901d17c78024a50270940304540a733656f0d60405160405180910390a45050565b6109ba8282610821565b1561043b576000828152602081815260408083206001600160a01b0385168085529252808320805460ff1916905551339285917ff6391f5c32d9c69d2a47ea670b442974b53935d1edc7fd64eb21e047a839171b9190a45050565b8060011480610a245750806002145b80610a2f5750806003145b80610a3a5750806006145b80610a45575080600c145b6040518060400160405280601781526020017624a72b20a624a22fa822a924a7a22fa22aa920aa24a7a760491b8152509061043b5760405162461bcd60e51b81526004016104289190611078565b600080610a9f83610b4e565b600154604051634355644d60e01b81526004810183905267ffffffffffffffff90911660248201529091507f00000000000000000000000000000000000000000000000000000000000000006001600160a01b031690634355644d9060440160206040518083038186803b158015610b1657600080fd5b505afa158015610b2a573d6000803e3d6000fd5b505050506040513d601f19601f820116820180604052508101906108c19190610f9a565b60008060007f00000000000000000000000000000000000000000000000000000000000000006001600160a01b031663de5101af856040518263ffffffff1660e01b8152600401610ba191815260200190565b60606040518083038186803b158015610bb957600080fd5b505afa158015610bcd573d6000803e3d6000fd5b505050506040513d601f19601f82011682018060405250810190610bf19190610fd5565b5060015491935091508290600090610c1490849067ffffffffffffffff16610cca565b604051630fa7bbd960e11b815260048101849052602481018290526001604482018190529192507f00000000000000000000000000000000000000000000000000000000000000006001600160a01b031690631f4f77b29060640160206040518083038186803b158015610c8757600080fd5b505afa158015610c9b573d6000803e3d6000fd5b505050506040513d601f19601f82011682018060405250810190610cbf9190610f9a565b979650505050505050565b60408051808201909152601781527624a72b20a624a22fa822a924a7a22fa22aa920aa24a7a760491b602082015260009082610d195760405162461bcd60e51b81526004016104289190611078565b50600082610d28600186611104565b610d3291906110c3565b9050610d3e83826110e5565b610d499060016110ab565b949350505050565b60008060008085610d6288886108b5565b610d706104fa600189611104565b91999098509096509350505050565b60606000610d8e8360026110e5565b610d999060026110ab565b67ffffffffffffffff811115610db157610db161118e565b6040519080825280601f01601f191660200182016040528015610ddb576020820181803683370190505b509050600360fc1b81600081518110610df657610df6611178565b60200101906001600160f81b031916908160001a905350600f60fb1b81600181518110610e2557610e25611178565b60200101906001600160f81b031916908160001a9053506000610e498460026110e5565b610e549060016110ab565b90505b6001811115610ecc576f181899199a1a9b1b9c1cb0b131b232b360811b85600f1660108110610e8857610e88611178565b1a60f81b828281518110610e9e57610e9e611178565b60200101906001600160f81b031916908160001a90535060049490941c93610ec58161114b565b9050610e57565b5083156108c15760405162461bcd60e51b815260206004820181905260248201527f537472696e67733a20686578206c656e67746820696e73756666696369656e746044820152606401610428565b600060208284031215610f2d57600080fd5b5035919050565b60008060408385031215610f4757600080fd5b8235915060208301356001600160a01b0381168114610f6557600080fd5b809150509250929050565b600060208284031215610f8257600080fd5b81356001600160e01b0319811681146108c157600080fd5b600060208284031215610fac57600080fd5b5051919050565b60008060408385031215610fc657600080fd5b50508035926020909101359150565b600080600060608486031215610fea57600080fd5b8351925060208401519150604084015190509250925092565b7f416363657373436f6e74726f6c3a206163636f756e742000000000000000000081526000835161103b81601785016020880161111b565b7001034b99036b4b9b9b4b733903937b6329607d1b601791840191820152835161106c81602884016020880161111b565b01602801949350505050565b602081526000825180602084015261109781604085016020870161111b565b601f01601f19169190910160400192915050565b600082198211156110be576110be611162565b500190565b6000826110e057634e487b7160e01b600052601260045260246000fd5b500490565b60008160001904831182151516156110ff576110ff611162565b500290565b60008282101561111657611116611162565b500390565b60005b8381101561113657818101518382015260200161111e565b83811115611145576000848401525b50505050565b60008161115a5761115a611162565b506000190190565b634e487b7160e01b600052601160045260246000fd5b634e487b7160e01b600052603260045260246000fd5b634e487b7160e01b600052604160045260246000fdfea2646970667358221220c0ec6b5d6a964dfcbd417ef0e43fb5308385968d770fbfe9cbef5be24dc2d9bc64736f6c63430008060033",
    "linkReferences": {}
  },
  "methodIdentifiers": {
    "DEFAULT_ADMIN_ROLE()": "a217fddf",
    "SET_LIMIT_PARAMETERS_ROLE()": "236fedce",
    "UPDATE_SPENT_AMOUNT_ROLE()": "435bd804",
    "bokkyPooBahsDateTimeContract()": "7ef7a462",
    "getFirstMonthInPeriodFromCurrentMonth(uint256)": "530aa9b0",
    "getLimitParameters()": "e759b06c",
    "getPeriodEndFromTimestamp(uint256)": "6e712207",
    "getPeriodStartFromTimestamp(uint256)": "8a168d4f",
    "getPeriodState()": "ee72782d",
    "getRoleAdmin(bytes32)": "248a9ca3",
    "grantRole(bytes32,address)": "2f2ff15d",
    "hasRole(bytes32,address)": "91d14854",
    "isUnderSpendableBalance(uint256,uint256)": "4ba578ab",
    "renounceRole(bytes32,address)": "36568abe",
    "revokeRole(bytes32,address)": "d547741f",
    "setLimitParameters(uint256,uint256)": "3e0bde67",
    "spendableBalance()": "2a9a872a",
    "supportsInterface(bytes4)": "01ffc9a7",
    "updateSpentAmount(uint256)": "66671229"
  },
  "storageLayout": {
    "storage": [
      {
        "astId": 5177,
        "contract": "contracts/test/LimitsCheckerWithPrivateViewsExposed.sol.sol:LimitsCheckerWithPrivateViewsExposed",
        "label": "_roles",
        "offset": 0,
        "slot": "0",
        "type": "t_mapping(t_bytes32,t_struct(RoleData)5172_storage)"
      },
      {
        "astId": 3130,
        "contract": "contracts/test/LimitsCheckerWithPrivateViewsExposed.sol.sol:LimitsCheckerWithPrivateViewsExposed",
        "label": "periodDurationMonths",
        "offset": 0,
        "slot": "1",
        "type": "t_uint64"
      },
      {
        "astId": 3133,
        "contract": "contracts/test/LimitsCheckerWithPrivateViewsExposed.sol.sol:LimitsCheckerWithPrivateViewsExposed",
        "label": "currentPeriodEndTimestamp",
        "offset": 8,
        "slot": "1",
        "type": "t_uint128"
      },
      {
        "astId": 3136,
        "contract": "contracts/test/LimitsCheckerWithPrivateViewsExposed.sol.sol:LimitsCheckerWithPrivateViewsExposed",
        "label": "limit",
        "offset": 0,
        "slot": "2",
        "type": "t_uint128"
      },
      {
        "astId": 3139,
        "contract": "contracts/test/LimitsCheckerWithPrivateViewsExposed.sol.sol:LimitsCheckerWithPrivateViewsExposed",
        "label": "spentAmount",
        "offset": 16,
        "slot": "2",
        "type": "t_uint128"
      }
    ],
    "types": {
      "t_address": {
        "encoding": "inplace",
        "label": "address",
        "numberOfBytes": "20"
      },
      "t_bool": {
        "encoding": "inplace",
        "label": "bool",
        "numberOfBytes": "1"
      },
      "t_bytes32": {
        "encoding": "inplace",
        "label": "bytes32",
        "numberOfBytes": "32"
      },
      "t_mapping(t_address,t_bool)": {
        "encoding": "mapping",
        "key": "t_address",
        "label": "mapping(address => bool)",
        "numberOfBytes": "32",
        "value": "t_bool"
      },
      "t_mapping(t_bytes32,t_struct(RoleData)5172_storage)": {
        "encoding": "mapping",
        "key": "t_bytes32",
        "label": "mapping(bytes32 => struct AccessControl.RoleData)",
        "numberOfBytes": "32",
        "value": "t_struct(RoleData)5172_storage"
      },
      "t_struct(RoleData)5172_storage": {
        "encoding": "inplace",
        "label": "struct AccessControl.RoleData",
        "numberOfBytes": "64",
        "members": [
          {
            "astId": 5169,
            "contract": "contracts/test/LimitsCheckerWithPrivateViewsExposed.sol.sol:LimitsCheckerWithPrivateViewsExposed",
            "label": "members",
            "offset": 0,
            "slot": "0",
            "type": "t_mapping(t_address,t_bool)"
          },
          {
            "astId": 5171,
            "contract": "contracts/test/LimitsCheckerWithPrivateViewsExposed.sol.sol:LimitsCheckerWithPrivateViewsExposed",
            "label": "adminRole",
            "offset": 0,
            "slot": "1",
            "type": "t_bytes32"
          }
        ]
      },
      "t_uint128": {
        "encoding": "inplace",
        "label": "uint128",
        "numberOfBytes": "16"
      },
      "t_uint64": {
        "encoding": "inplace",
        "label": "uint64",
        "numberOfBytes": "8"
      }
    }
  },
  "id": 28
}