{
  "abi": [
    {
      "inputs": [
        {
          "internalType": "address",
          "name": "_trustedCaller",
          "type": "address"
        },
        {
          "internalType": "address",
          "name": "_rewardProgramsRegistry",
          "type": "address"
        }
      ],
      "stateMutability": "nonpayable",
      "type": "constructor"
    },
    {
      "inputs": [
        {
          "internalType": "address",
          "name": "_creator",
          "type": "address"
        },
        {
          "internalType": "bytes",
          "name": "_evmScriptCallData",
          "type": "bytes"
        }
      ],
      "name": "createEVMScript",
      "outputs": [
        {
          "internalType": "bytes",
          "name": "",
          "type": "bytes"
        }
      ],
      "stateMutability": "view",
      "type": "function"
    },
    {
      "inputs": [
        {
          "internalType": "bytes",
          "name": "_evmScriptCallData",
          "type": "bytes"
        }
      ],
      "name": "decodeEVMScriptCallData",
      "outputs": [
        {
          "internalType": "address",
          "name": "_rewardProgram",
          "type": "address"
        }
      ],
      "stateMutability": "pure",
      "type": "function"
    },
    {
      "inputs": [],
      "name": "rewardProgramsRegistry",
      "outputs": [
        {
          "internalType": "contract RewardProgramsRegistry",
          "name": "",
          "type": "address"
        }
      ],
      "stateMutability": "view",
      "type": "function"
    },
    {
      "inputs": [],
      "name": "trustedCaller",
      "outputs": [
        {
          "internalType": "address",
          "name": "",
          "type": "address"
        }
      ],
      "stateMutability": "view",
      "type": "function"
    }
  ],
  "bytecode": {
    "object": "0x60c060405234801561001057600080fd5b5060405161077e38038061077e83398101604081905261002f916100d2565b60408051808201909152601e81527f545255535445445f43414c4c45525f49535f5a45524f5f414444524553530000602082015282906001600160a01b0382166100955760405162461bcd60e51b815260040161008c9190610105565b60405180910390fd5b506001600160601b0319606091821b811660805291901b1660a0525061015a565b80516001600160a01b03811681146100cd57600080fd5b919050565b600080604083850312156100e557600080fd5b6100ee836100b6565b91506100fc602084016100b6565b90509250929050565b600060208083528351808285015260005b8181101561013257858101830151858201604001528201610116565b81811115610144576000604083870101525b50601f01601f1916929092016040019392505050565b60805160601c60a05160601c6105e661019860003960008181609a0152818161018e01526102950152600081816056015261010501526105e66000f3fe608060405234801561001057600080fd5b506004361061004c5760003560e01c8063268f0760146100515780633f052ae914610095578063ecf7c690146100bc578063fea21c9c146100cf575b600080fd5b6100787f000000000000000000000000000000000000000000000000000000000000000081565b6040516001600160a01b0390911681526020015b60405180910390f35b6100787f000000000000000000000000000000000000000000000000000000000000000081565b6100786100ca366004610447565b6100ef565b6100e26100dd3660046103d5565b610100565b60405161008c9190610509565b60006100fa826102ca565b92915050565b6060827f00000000000000000000000000000000000000000000000000000000000000006001600160a01b0316816001600160a01b0316146040518060400160405280601381526020017221a0a62622a92fa4a9afa327a92124a22222a760691b8152509061018b5760405162461bcd60e51b81526004016101829190610509565b60405180910390fd5b507f00000000000000000000000000000000000000000000000000000000000000006001600160a01b0316639525581c6101c4856102ca565b6040516001600160e01b031960e084901b1681526001600160a01b03909116600482015260240160206040518083038186803b15801561020357600080fd5b505afa158015610217573d6000803e3d6000fd5b505050506040513d601f19601f8201168201806040525081019061023b9190610425565b6040518060400160405280601881526020017f5245574152445f50524f4752414d5f4e4f545f464f554e4400000000000000008152509061028f5760405162461bcd60e51b81526004016101829190610509565b506102c27f0000000000000000000000000000000000000000000000000000000000000000634a2919f160e11b856102e0565b949350505050565b6000818060200190518101906100fa91906103b1565b6060600160e01b84835160046102f6919061051c565b858560405160200161030c9594939291906104a8565b60405160208183030381529060405290509392505050565b600082601f83011261033557600080fd5b813567ffffffffffffffff8082111561035057610350610582565b604051601f8301601f19908116603f0116810190828211818310171561037857610378610582565b8160405283815286602085880101111561039157600080fd5b836020870160208301376000602085830101528094505050505092915050565b6000602082840312156103c357600080fd5b81516103ce81610598565b9392505050565b600080604083850312156103e857600080fd5b82356103f381610598565b9150602083013567ffffffffffffffff81111561040f57600080fd5b61041b85828601610324565b9150509250929050565b60006020828403121561043757600080fd5b815180151581146103ce57600080fd5b60006020828403121561045957600080fd5b813567ffffffffffffffff81111561047057600080fd5b6102c284828501610324565b60008151808452610494816020860160208601610552565b601f01601f19169290920160200192915050565b6001600160e01b03198681168252606086901b6bffffffffffffffffffffffff1916600483015260e085901b811660188301528316601c82015281516000906104f8816020808601908701610552565b919091016020019695505050505050565b6020815260006103ce602083018461047c565b600063ffffffff80831681851680830382111561054957634e487b7160e01b600052601160045260246000fd5b01949350505050565b60005b8381101561056d578181015183820152602001610555565b8381111561057c576000848401525b50505050565b634e487b7160e01b600052604160045260246000fd5b6001600160a01b03811681146105ad57600080fd5b5056fea26469706673582212204f558fca19a1d21bd13653fcd9520b44cecdd48ba28c34d61cfc18b9c3e9772b64736f6c63430008060033",
    "linkReferences": {}
  },
  "methodIdentifiers": {
    "createEVMScript(address,bytes)": "fea21c9c",
    "decodeEVMScriptCallData(bytes)": "ecf7c690",
    "rewardProgramsRegistry()": "3f052ae9",
    "trustedCaller()": "268f0760"
  },
  "storageLayout": {
    "storage": [],
    "types": {}
  },
  "id": 6
}