{
  "abi": [
    {
      "inputs": [
        {
          "internalType": "address",
          "name": "_nodeOperatorsRegistry",
          "type": "address"
        }
      ],
      "stateMutability": "nonpayable",
      "type": "constructor"
    },
    {
      "inputs": [
        {
          "internalType": "address",
          "name": "_creator",
          "type": "address"
        },
        {
          "internalType": "bytes",
          "name": "_evmScriptCallData",
          "type": "bytes"
        }
      ],
      "name": "createEVMScript",
      "outputs": [
        {
          "internalType": "bytes",
          "name": "",
          "type": "bytes"
        }
      ],
      "stateMutability": "view",
      "type": "function"
    },
    {
      "inputs": [
        {
          "internalType": "bytes",
          "name": "_evmScriptCallData",
          "type": "bytes"
        }
      ],
      "name": "decodeEVMScriptCallData",
      "outputs": [
        {
          "internalType": "uint256",
          "name": "_nodeOperatorId",
          "type": "uint256"
        },
        {
          "internalType": "uint256",
          "name": "_stakingLimit",
          "type": "uint256"
        }
      ],
      "stateMutability": "pure",
      "type": "function"
    },
    {
      "inputs": [],
      "name": "nodeOperatorsRegistry",
      "outputs": [
        {
          "internalType": "contract INodeOperatorsRegistry",
          "name": "",
          "type": "address"
        }
      ],
      "stateMutability": "view",
      "type": "function"
    }
  ],
  "bytecode": {
    "object": "0x60a060405234801561001057600080fd5b506040516108cb3803806108cb83398101604081905261002f91610044565b60601b6001600160601b031916608052610074565b60006020828403121561005657600080fd5b81516001600160a01b038116811461006d57600080fd5b9392505050565b60805160601c61082d61009e60003960008181604b0152818160f8015261039b015261082d6000f3fe608060405234801561001057600080fd5b50600436106100415760003560e01c8063227242b514610046578063ecf7c6901461008a578063fea21c9c146100b2575b600080fd5b61006d7f000000000000000000000000000000000000000000000000000000000000000081565b6040516001600160a01b0390911681526020015b60405180910390f35b61009d610098366004610609565b6100d2565b60408051928352602083019190915201610081565b6100c56100c03660046104d5565b6100e7565b60405161008191906106f7565b6000806100de8361012c565b91509150915091565b60606100f3838361014d565b6101257f000000000000000000000000000000000000000000000000000000000000000063ae962acf60e01b846102ec565b9392505050565b600080828060200190518101906101439190610646565b9094909350915050565b6000806101598361012c565b91509150600061016883610330565b9050846001600160a01b031681604001516001600160a01b0316146040518060400160405280601b81526020017f43414c4c45525f49535f4e4f545f4e4f44455f4f50455241544f520000000000815250906101e05760405162461bcd60e51b81526004016101d791906106f7565b60405180910390fd5b508060200151604051806040016040528060168152602001751393d11157d3d41154905513d497d11254d05093115160521b815250906102335760405162461bcd60e51b81526004016101d791906106f7565b5081816060015110604051806040016040528060158152602001745354414b494e475f4c494d49545f544f4f5f4c4f5760581b815250906102875760405162461bcd60e51b81526004016101d791906106f7565b5081816080015110156040518060400160405280601781526020017f4e4f545f454e4f5547485f5349474e494e475f4b455953000000000000000000815250906102e45760405162461bcd60e51b81526004016101d791906106f7565b505050505050565b6060600160e01b84835160046103029190610763565b8585604051602001610318959493929190610696565b60405160208183030381529060405290509392505050565b61036d6040518060a001604052806000815260200160001515815260200160006001600160a01b0316815260200160008152602001600081525090565b604051632695a60f60e21b815260048101839052600060248201819052908190819081906001600160a01b037f00000000000000000000000000000000000000000000000000000000000000001690639a56983c9060440160006040518083038186803b1580156103dd57600080fd5b505afa1580156103f1573d6000803e3d6000fd5b505050506040513d6000823e601f3d908101601f191682016040526104199190810190610525565b509a8a525092151560208901526001600160a01b031660408801525067ffffffffffffffff9081166060870152909516608085015250919392505050565b8051610462816107df565b919050565b600082601f83011261047857600080fd5b813561048b6104868261073b565b61070a565b8181528460208386010111156104a057600080fd5b816020850160208301376000918101602001919091529392505050565b805167ffffffffffffffff8116811461046257600080fd5b600080604083850312156104e857600080fd5b82356104f3816107df565b9150602083013567ffffffffffffffff81111561050f57600080fd5b61051b85828601610467565b9150509250929050565b600080600080600080600060e0888a03121561054057600080fd5b8751801515811461055057600080fd5b602089015190975067ffffffffffffffff81111561056d57600080fd5b8801601f81018a1361057e57600080fd5b805161058c6104868261073b565b8181528b60208385010111156105a157600080fd5b6105b2826020830160208601610799565b97506105c391505060408901610457565b94506105d1606089016104bd565b93506105df608089016104bd565b92506105ed60a089016104bd565b91506105fb60c089016104bd565b905092959891949750929550565b60006020828403121561061b57600080fd5b813567ffffffffffffffff81111561063257600080fd5b61063e84828501610467565b949350505050565b6000806040838503121561065957600080fd5b505080516020909101519092909150565b60008151808452610682816020860160208601610799565b601f01601f19169290920160200192915050565b6001600160e01b03198681168252606086901b6bffffffffffffffffffffffff1916600483015260e085901b811660188301528316601c82015281516000906106e6816020808601908701610799565b919091016020019695505050505050565b602081526000610125602083018461066a565b604051601f8201601f1916810167ffffffffffffffff81118282101715610733576107336107c9565b604052919050565b600067ffffffffffffffff821115610755576107556107c9565b50601f01601f191660200190565b600063ffffffff80831681851680830382111561079057634e487b7160e01b600052601160045260246000fd5b01949350505050565b60005b838110156107b457818101518382015260200161079c565b838111156107c3576000848401525b50505050565b634e487b7160e01b600052604160045260246000fd5b6001600160a01b03811681146107f457600080fd5b5056fea264697066735822122056a7eb99b6bcde6a987815280dd48d2c08fdd0d52a1853034db16e78532e767164736f6c63430008060033",
    "linkReferences": {}
  },
  "methodIdentifiers": {
    "createEVMScript(address,bytes)": "fea21c9c",
    "decodeEVMScriptCallData(bytes)": "ecf7c690",
    "nodeOperatorsRegistry()": "227242b5"
  },
  "storageLayout": {
    "storage": [],
    "types": {}
  },
  "id": 4
}