{
  "abi": [
    {
      "inputs": [
        {
          "internalType": "address",
          "name": "_to",
          "type": "address"
        },
        {
          "internalType": "bytes4[]",
          "name": "_methodIds",
          "type": "bytes4[]"
        },
        {
          "internalType": "bytes[]",
          "name": "_evmScriptCallData",
          "type": "bytes[]"
        }
      ],
      "name": "createEVMScript",
      "outputs": [
        {
          "internalType": "bytes",
          "name": "_evmScript",
          "type": "bytes"
        }
      ],
      "stateMutability": "pure",
      "type": "function"
    },
    {
      "inputs": [
        {
          "internalType": "address",
          "name": "_to",
          "type": "address"
        },
        {
          "internalType": "bytes4",
          "name": "_methodId",
          "type": "bytes4"
        },
        {
          "internalType": "bytes",
          "name": "_evmScriptCallData",
          "type": "bytes"
        }
      ],
      "name": "createEVMScript",
      "outputs": [
        {
          "internalType": "bytes",
          "name": "_commands",
          "type": "bytes"
        }
      ],
      "stateMutability": "pure",
      "type": "function"
    },
    {
      "inputs": [
        {
          "internalType": "address[]",
          "name": "_to",
          "type": "address[]"
        },
        {
          "internalType": "bytes4[]",
          "name": "_methodIds",
          "type": "bytes4[]"
        },
        {
          "internalType": "bytes[]",
          "name": "_evmScriptCallData",
          "type": "bytes[]"
        }
      ],
      "name": "createEVMScript",
      "outputs": [
        {
          "internalType": "bytes",
          "name": "_evmScript",
          "type": "bytes"
        }
      ],
      "stateMutability": "pure",
      "type": "function"
    },
    {
      "inputs": [
        {
          "internalType": "address",
          "name": "_to",
          "type": "address"
        },
        {
          "internalType": "bytes4",
          "name": "_methodId",
          "type": "bytes4"
        },
        {
          "internalType": "bytes[]",
          "name": "_evmScriptCallData",
          "type": "bytes[]"
        }
      ],
      "name": "createEVMScript",
      "outputs": [
        {
          "internalType": "bytes",
          "name": "_evmScript",
          "type": "bytes"
        }
      ],
      "stateMutability": "pure",
      "type": "function"
    }
  ],
  "bytecode": {
    "object": "0x610a2461003a600b82828239805160001a60731461002d57634e487b7160e01b600052600060045260246000fd5b30600052607381538281f3fe73000000000000000000000000000000000000000030146080604052600436106100565760003560e01c80631b3c29b81461005b5780637121d9f6146100845780637a0c711514610097578063df053d8b146100aa575b600080fd5b61006e6100693660046105aa565b6100bd565b60405161007b9190610891565b60405180910390f35b61006e610092366004610672565b6100d2565b61006e6100a53660046106c6565b6100df565b61006e6100b836600461061e565b6100ec565b60606100ca8484846100f9565b949350505050565b60606100ca848484610211565b60606100ca84848461023d565b60606100ca848484610356565b606081518351146101255760405162461bcd60e51b815260040161011c906108c4565b60405180910390fd5b60005b83518110156101e1578185848381518110610145576101456109c2565b602002602001015151600461015a9190610942565b86848151811061016c5761016c6109c2565b6020026020010151868581518110610186576101866109c2565b60200260200101516040516020016101a19493929190610778565b60408051601f19818403018152908290526101bf9291602001610862565b6040516020818303038152906040529150806101da90610991565b9050610128565b50600160e01b816040516020016101f9929190610831565b60405160208183030381529060405290509392505050565b6060600160e01b84835160046102279190610942565b85856040516020016101f99594939291906107d0565b606082518451146102605760405162461bcd60e51b815260040161011c906108c4565b81518451146102815760405162461bcd60e51b815260040161011c906108c4565b60005b84518110156101e157818582815181106102a0576102a06109c2565b60200260200101518483815181106102ba576102ba6109c2565b60200260200101515160046102cf9190610942565b8684815181106102e1576102e16109c2565b60200260200101518685815181106102fb576102fb6109c2565b60200260200101516040516020016103169493929190610778565b60408051601f19818403018152908290526103349291602001610862565b60405160208183030381529060405291508061034f90610991565b9050610284565b606060005b82518110156101e1578185848381518110610378576103786109c2565b602002602001015151600461038d9190610942565b868685815181106103a0576103a06109c2565b60200260200101516040516020016103bb9493929190610778565b60408051601f19818403018152908290526103d99291602001610862565b6040516020818303038152906040529150806103f490610991565b905061035b565b80356001600160a01b038116811461041257600080fd5b919050565b600082601f83011261042857600080fd5b8135602061043d6104388361091e565b6108ed565b80838252828201915082860187848660051b890101111561045d57600080fd5b60005b858110156104835761047182610522565b84529284019290840190600101610460565b5090979650505050505050565b600082601f8301126104a157600080fd5b813560206104b16104388361091e565b80838252828201915082860187848660051b89010111156104d157600080fd5b6000805b8681101561051457823567ffffffffffffffff8111156104f3578283fd5b6105018b88838d010161053a565b86525093850193918501916001016104d5565b509198975050505050505050565b80356001600160e01b03198116811461041257600080fd5b600082601f83011261054b57600080fd5b813567ffffffffffffffff811115610565576105656109d8565b610578601f8201601f19166020016108ed565b81815284602083860101111561058d57600080fd5b816020850160208301376000918101602001919091529392505050565b6000806000606084860312156105bf57600080fd5b6105c8846103fb565b9250602084013567ffffffffffffffff808211156105e557600080fd5b6105f187838801610417565b9350604086013591508082111561060757600080fd5b5061061486828701610490565b9150509250925092565b60008060006060848603121561063357600080fd5b61063c846103fb565b925061064a60208501610522565b9150604084013567ffffffffffffffff81111561066657600080fd5b61061486828701610490565b60008060006060848603121561068757600080fd5b610690846103fb565b925061069e60208501610522565b9150604084013567ffffffffffffffff8111156106ba57600080fd5b6106148682870161053a565b6000806000606084860312156106db57600080fd5b833567ffffffffffffffff808211156106f357600080fd5b818601915086601f83011261070757600080fd5b813560206107176104388361091e565b8083825282820191508286018b848660051b890101111561073757600080fd5b600096505b848710156107615761074d816103fb565b83526001969096019591830191830161073c565b50975050870135925050808211156105e557600080fd5b6bffffffffffffffffffffffff19606086901b1681526001600160e01b031960e085901b811660148301528316601882015281516000906107c081601c850160208701610961565b91909101601c0195945050505050565b6001600160e01b03198681168252606086901b6bffffffffffffffffffffffff1916600483015260e085901b811660188301528316601c8201528151600090610820816020808601908701610961565b919091016020019695505050505050565b6001600160e01b0319831681528151600090610854816004850160208701610961565b919091016004019392505050565b60008351610874818460208801610961565b835190830190610888818360208801610961565b01949350505050565b60208152600082518060208401526108b0816040850160208701610961565b601f01601f19169190910160400192915050565b6020808252600f908201526e0988a9c8ea890be9a92a69a82a8869608b1b604082015260600190565b604051601f8201601f1916810167ffffffffffffffff81118282101715610916576109166109d8565b604052919050565b600067ffffffffffffffff821115610938576109386109d8565b5060051b60200190565b600063ffffffff808316818516808303821115610888576108886109ac565b60005b8381101561097c578181015183820152602001610964565b8381111561098b576000848401525b50505050565b60006000198214156109a5576109a56109ac565b5060010190565b634e487b7160e01b600052601160045260246000fd5b634e487b7160e01b600052603260045260246000fd5b634e487b7160e01b600052604160045260246000fdfea2646970667358221220ea483b4b89b1dc4d225c9689ca5ff216714a017d30d295a2f317df26eec1a00a64736f6c63430008060033",
    "linkReferences": {}
  },
  "methodIdentifiers": {
    "createEVMScript(address,bytes4,bytes)": "7121d9f6",
    "createEVMScript(address,bytes4,bytes[])": "df053d8b",
    "createEVMScript(address,bytes4[],bytes[])": "1b3c29b8",
    "createEVMScript(address[],bytes4[],bytes[])": "7a0c7115"
  },
  "storageLayout": {
    "storage": [],
    "types": {}
  },
  "id": 24
}