{
  "abi": [
    {
      "inputs": [
        {
          "internalType": "address",
          "name": "_callsScript",
          "type": "address"
        },
        {
          "internalType": "address",
          "name": "_easyTrack",
          "type": "address"
        }
      ],
      "stateMutability": "nonpayable",
      "type": "constructor"
    },
    {
      "anonymous": false,
      "inputs": [
        {
          "indexed": true,
          "internalType": "address",
          "name": "_previousEasyTrack",
          "type": "address"
        },
        {
          "indexed": true,
          "internalType": "address",
          "name": "_newEasyTrack",
          "type": "address"
        }
      ],
      "name": "EasyTrackChanged",
      "type": "event"
    },
    {
      "anonymous": false,
      "inputs": [
        {
          "indexed": true,
          "internalType": "address",
          "name": "previousOwner",
          "type": "address"
        },
        {
          "indexed": true,
          "internalType": "address",
          "name": "newOwner",
          "type": "address"
        }
      ],
      "name": "OwnershipTransferred",
      "type": "event"
    },
    {
      "anonymous": false,
      "inputs": [
        {
          "indexed": true,
          "internalType": "address",
          "name": "_caller",
          "type": "address"
        },
        {
          "indexed": false,
          "internalType": "bytes",
          "name": "_evmScript",
          "type": "bytes"
        }
      ],
      "name": "ScriptExecuted",
      "type": "event"
    },
    {
      "inputs": [],
      "name": "callsScript",
      "outputs": [
        {
          "internalType": "address",
          "name": "",
          "type": "address"
        }
      ],
      "stateMutability": "view",
      "type": "function"
    },
    {
      "inputs": [],
      "name": "easyTrack",
      "outputs": [
        {
          "internalType": "address",
          "name": "",
          "type": "address"
        }
      ],
      "stateMutability": "view",
      "type": "function"
    },
    {
      "inputs": [
        {
          "internalType": "bytes",
          "name": "_evmScript",
          "type": "bytes"
        }
      ],
      "name": "executeEVMScript",
      "outputs": [
        {
          "internalType": "bytes",
          "name": "",
          "type": "bytes"
        }
      ],
      "stateMutability": "nonpayable",
      "type": "function"
    },
    {
      "inputs": [],
      "name": "owner",
      "outputs": [
        {
          "internalType": "address",
          "name": "",
          "type": "address"
        }
      ],
      "stateMutability": "view",
      "type": "function"
    },
    {
      "inputs": [],
      "name": "renounceOwnership",
      "outputs": [],
      "stateMutability": "nonpayable",
      "type": "function"
    },
    {
      "inputs": [
        {
          "internalType": "address",
          "name": "_easyTrack",
          "type": "address"
        }
      ],
      "name": "setEasyTrack",
      "outputs": [],
      "stateMutability": "nonpayable",
      "type": "function"
    },
    {
      "inputs": [
        {
          "internalType": "address",
          "name": "newOwner",
          "type": "address"
        }
      ],
      "name": "transferOwnership",
      "outputs": [],
      "stateMutability": "nonpayable",
      "type": "function"
    }
  ],
  "bytecode": {
    "object": "0x60a060405234801561001057600080fd5b5060405162000acb38038062000acb83398101604081905261003191610235565b61003a33610106565b61004d8261015660201b6103f51760201c565b6040518060400160405280601c81526020017f43414c4c535f5343524950545f49535f4e4f545f434f4e545241435400000000815250906100aa5760405162461bcd60e51b81526004016100a19190610268565b60405180910390fd5b506001600160601b0319606083901b166080526100c68161015c565b436100fd7febb05b386a8d34882b8711d156f463690983dc47815980fb82aeeff1aa43579e60001b61021660201b6103fb1760201c565b55506102bd9050565b600080546001600160a01b038381166001600160a01b0319831681178455604051919092169283917f8be0079c531659141344cd1fd0a4f28419497f9722a3daafe3b4186f6b6457e09190a35050565b3b151590565b61016f8161015660201b6103f51760201c565b6040518060400160405280601a81526020017f454153595f545241434b5f49535f4e4f545f434f4e5452414354000000000000815250906101c35760405162461bcd60e51b81526004016100a19190610268565b50600180546001600160a01b038381166001600160a01b0319831681179093556040519116919082907faca5390e502ceca9af8fdca7e094a4fe70188a8fcca7c18cd1ff501024f34cc390600090a35050565b90565b80516001600160a01b038116811461023057600080fd5b919050565b6000806040838503121561024857600080fd5b61025183610219565b915061025f60208401610219565b90509250929050565b600060208083528351808285015260005b8181101561029557858101830151858201604001528201610279565b818111156102a7576000604083870101525b50601f01601f1916929092016040019392505050565b60805160601c6107e9620002e26000396000818160f2015261020601526107e96000f3fe608060405234801561001057600080fd5b506004361061007d5760003560e01c8063b4fde62b1161005b578063b4fde62b146100da578063b79340ba146100ed578063c368df7e14610114578063f2fde38b1461012757600080fd5b80634a27111d14610082578063715018a6146100ab5780638da5cb5b146100b5575b600080fd5b610095610090366004610524565b61013a565b6040516100a2919061065a565b60405180910390f35b6100b36102f1565b005b6000546001600160a01b03165b6040516001600160a01b0390911681526020016100a2565b6100b36100e83660046104f4565b610327565b6100c27f000000000000000000000000000000000000000000000000000000000000000081565b6001546100c2906001600160a01b031681565b6100b36101353660046104f4565b61035d565b60015460408051808201909152601381527221a0a62622a92fa4a9afa327a92124a22222a760691b60208201526060916001600160a01b0316331461019b5760405162461bcd60e51b8152600401610192919061065a565b60405180910390fd5b50604080516000808252602082018181528284019093529163279cea3560e01b916101cc918691906064820161066d565b604051602081830303815290604052906001600160e01b0319166020820180516001600160e01b03838183161783525050505090506000807f00000000000000000000000000000000000000000000000000000000000000006001600160a01b03168360405161023c919061063e565b600060405180830381855af49150503d8060008114610277576040519150601f19603f3d011682016040523d82523d6000602084013e61027c565b606091505b509150915081610293576040513d806000833e8082fd5b336001600160a01b03167f089abea492b59933f25cebc96e2bfb473412c71e086c46c12f25dae9c3c7eb84866040516102cc919061065a565b60405180910390a2808060200190518101906102e891906105a4565b95945050505050565b6000546001600160a01b0316331461031b5760405162461bcd60e51b8152600401610192906106df565b61032560006103fe565b565b6000546001600160a01b031633146103515760405162461bcd60e51b8152600401610192906106df565b61035a8161044e565b50565b6000546001600160a01b031633146103875760405162461bcd60e51b8152600401610192906106df565b6001600160a01b0381166103ec5760405162461bcd60e51b815260206004820152602660248201527f4f776e61626c653a206e6577206f776e657220697320746865207a65726f206160448201526564647265737360d01b6064820152608401610192565b61035a816103fe565b3b151590565b90565b600080546001600160a01b038381166001600160a01b0319831681178455604051919092169283917f8be0079c531659141344cd1fd0a4f28419497f9722a3daafe3b4186f6b6457e09190a35050565b60408051808201909152601a81527f454153595f545241434b5f49535f4e4f545f434f4e54524143540000000000006020820152813b6104a15760405162461bcd60e51b8152600401610192919061065a565b50600180546001600160a01b038381166001600160a01b0319831681179093556040519116919082907faca5390e502ceca9af8fdca7e094a4fe70188a8fcca7c18cd1ff501024f34cc390600090a35050565b60006020828403121561050657600080fd5b81356001600160a01b038116811461051d57600080fd5b9392505050565b60006020828403121561053657600080fd5b813567ffffffffffffffff81111561054d57600080fd5b8201601f8101841361055e57600080fd5b803561057161056c82610745565b610714565b81815285602083850101111561058657600080fd5b81602084016020830137600091810160200191909152949350505050565b6000602082840312156105b657600080fd5b815167ffffffffffffffff8111156105cd57600080fd5b8201601f810184136105de57600080fd5b80516105ec61056c82610745565b81815285602083850101111561060157600080fd5b6102e882602083016020860161076d565b6000815180845261062a81602086016020860161076d565b601f01601f19169290920160200192915050565b6000825161065081846020870161076d565b9190910192915050565b60208152600061051d6020830184610612565b6060815260006106806060830186610612565b6020838203818501526106938287610612565b8481036040860152855180825282870193509082019060005b818110156106d15784516001600160a01b0316835293830193918301916001016106ac565b509098975050505050505050565b6020808252818101527f4f776e61626c653a2063616c6c6572206973206e6f7420746865206f776e6572604082015260600190565b604051601f8201601f1916810167ffffffffffffffff8111828210171561073d5761073d61079d565b604052919050565b600067ffffffffffffffff82111561075f5761075f61079d565b50601f01601f191660200190565b60005b83811015610788578181015183820152602001610770565b83811115610797576000848401525b50505050565b634e487b7160e01b600052604160045260246000fdfea2646970667358221220dbbac4d4ead97f6ca81a637982165e7b7b6341d7e67c770235523c8c28167f2764736f6c63430008060033",
    "linkReferences": {}
  },
  "methodIdentifiers": {
    "callsScript()": "b79340ba",
    "easyTrack()": "c368df7e",
    "executeEVMScript(bytes)": "4a27111d",
    "owner()": "8da5cb5b",
    "renounceOwnership()": "715018a6",
    "setEasyTrack(address)": "b4fde62b",
    "transferOwnership(address)": "f2fde38b"
  },
  "storageLayout": {
    "storage": [
      {
        "astId": 5540,
        "contract": "contracts/EVMScriptExecutor.sol:EVMScriptExecutor",
        "label": "_owner",
        "offset": 0,
        "slot": "0",
        "type": "t_address"
      },
      {
        "astId": 314,
        "contract": "contracts/EVMScriptExecutor.sol:EVMScriptExecutor",
        "label": "easyTrack",
        "offset": 0,
        "slot": "1",
        "type": "t_address"
      }
    ],
    "types": {
      "t_address": {
        "encoding": "inplace",
        "label": "address",
        "numberOfBytes": "20"
      }
    }
  },
  "id": 1
}