{
  "abi": [
    {
      "inputs": [
        {
          "internalType": "address[]",
          "name": "_setLimitParametersRoleHolders",
          "type": "address[]"
        },
        {
          "internalType": "address[]",
          "name": "_updateSpentAmountRoleHolders",
          "type": "address[]"
        },
        {
          "internalType": "contract IBokkyPooBahsDateTimeContract",
          "name": "_bokkyPooBahsDateTimeContract",
          "type": "address"
        }
      ],
      "stateMutability": "nonpayable",
      "type": "constructor"
    },
    {
      "anonymous": false,
      "inputs": [
        {
          "indexed": true,
          "internalType": "uint256",
          "name": "_periodStartTimestamp",
          "type": "uint256"
        }
      ],
      "name": "CurrentPeriodAdvanced",
      "type": "event"
    },
    {
      "anonymous": false,
      "inputs": [
        {
          "indexed": false,
          "internalType": "uint256",
          "name": "_limit",
          "type": "uint256"
        },
        {
          "indexed": false,
          "internalType": "uint256",
          "name": "_periodDurationMonths",
          "type": "uint256"
        }
      ],
      "name": "LimitsParametersChanged",
      "type": "event"
    },
    {
      "anonymous": false,
      "inputs": [
        {
          "indexed": true,
          "internalType": "bytes32",
          "name": "role",
          "type": "bytes32"
        },
        {
          "indexed": true,
          "internalType": "bytes32",
          "name": "previousAdminRole",
          "type": "bytes32"
        },
        {
          "indexed": true,
          "internalType": "bytes32",
          "name": "newAdminRole",
          "type": "bytes32"
        }
      ],
      "name": "RoleAdminChanged",
      "type": "event"
    },
    {
      "anonymous": false,
      "inputs": [
        {
          "indexed": true,
          "internalType": "bytes32",
          "name": "role",
          "type": "bytes32"
        },
        {
          "indexed": true,
          "internalType": "address",
          "name": "account",
          "type": "address"
        },
        {
          "indexed": true,
          "internalType": "address",
          "name": "sender",
          "type": "address"
        }
      ],
      "name": "RoleGranted",
      "type": "event"
    },
    {
      "anonymous": false,
      "inputs": [
        {
          "indexed": true,
          "internalType": "bytes32",
          "name": "role",
          "type": "bytes32"
        },
        {
          "indexed": true,
          "internalType": "address",
          "name": "account",
          "type": "address"
        },
        {
          "indexed": true,
          "internalType": "address",
          "name": "sender",
          "type": "address"
        }
      ],
      "name": "RoleRevoked",
      "type": "event"
    },
    {
      "anonymous": false,
      "inputs": [
        {
          "indexed": false,
          "internalType": "uint256",
          "name": "_alreadySpentAmount",
          "type": "uint256"
        },
        {
          "indexed": false,
          "internalType": "uint256",
          "name": "_spendableBalance",
          "type": "uint256"
        },
        {
          "indexed": true,
          "internalType": "uint256",
          "name": "_periodStartTimestamp",
          "type": "uint256"
        },
        {
          "indexed": false,
          "internalType": "uint256",
          "name": "_periodEndTimestamp",
          "type": "uint256"
        }
      ],
      "name": "SpendableAmountChanged",
      "type": "event"
    },
    {
      "inputs": [],
      "name": "DEFAULT_ADMIN_ROLE",
      "outputs": [
        {
          "internalType": "bytes32",
          "name": "",
          "type": "bytes32"
        }
      ],
      "stateMutability": "view",
      "type": "function"
    },
    {
      "inputs": [],
      "name": "SET_LIMIT_PARAMETERS_ROLE",
      "outputs": [
        {
          "internalType": "bytes32",
          "name": "",
          "type": "bytes32"
        }
      ],
      "stateMutability": "view",
      "type": "function"
    },
    {
      "inputs": [],
      "name": "UPDATE_SPENT_AMOUNT_ROLE",
      "outputs": [
        {
          "internalType": "bytes32",
          "name": "",
          "type": "bytes32"
        }
      ],
      "stateMutability": "view",
      "type": "function"
    },
    {
      "inputs": [],
      "name": "bokkyPooBahsDateTimeContract",
      "outputs": [
        {
          "internalType": "contract IBokkyPooBahsDateTimeContract",
          "name": "",
          "type": "address"
        }
      ],
      "stateMutability": "view",
      "type": "function"
    },
    {
      "inputs": [],
      "name": "getLimitParameters",
      "outputs": [
        {
          "internalType": "uint256",
          "name": "",
          "type": "uint256"
        },
        {
          "internalType": "uint256",
          "name": "",
          "type": "uint256"
        }
      ],
      "stateMutability": "view",
      "type": "function"
    },
    {
      "inputs": [],
      "name": "getPeriodState",
      "outputs": [
        {
          "internalType": "uint256",
          "name": "_alreadySpentAmount",
          "type": "uint256"
        },
        {
          "internalType": "uint256",
          "name": "_spendableBalanceInPeriod",
          "type": "uint256"
        },
        {
          "internalType": "uint256",
          "name": "_periodStartTimestamp",
          "type": "uint256"
        },
        {
          "internalType": "uint256",
          "name": "_periodEndTimestamp",
          "type": "uint256"
        }
      ],
      "stateMutability": "view",
      "type": "function"
    },
    {
      "inputs": [
        {
          "internalType": "bytes32",
          "name": "role",
          "type": "bytes32"
        }
      ],
      "name": "getRoleAdmin",
      "outputs": [
        {
          "internalType": "bytes32",
          "name": "",
          "type": "bytes32"
        }
      ],
      "stateMutability": "view",
      "type": "function"
    },
    {
      "inputs": [
        {
          "internalType": "bytes32",
          "name": "role",
          "type": "bytes32"
        },
        {
          "internalType": "address",
          "name": "account",
          "type": "address"
        }
      ],
      "name": "grantRole",
      "outputs": [],
      "stateMutability": "nonpayable",
      "type": "function"
    },
    {
      "inputs": [
        {
          "internalType": "bytes32",
          "name": "role",
          "type": "bytes32"
        },
        {
          "internalType": "address",
          "name": "account",
          "type": "address"
        }
      ],
      "name": "hasRole",
      "outputs": [
        {
          "internalType": "bool",
          "name": "",
          "type": "bool"
        }
      ],
      "stateMutability": "view",
      "type": "function"
    },
    {
      "inputs": [
        {
          "internalType": "uint256",
          "name": "_payoutAmount",
          "type": "uint256"
        },
        {
          "internalType": "uint256",
          "name": "_motionDuration",
          "type": "uint256"
        }
      ],
      "name": "isUnderSpendableBalance",
      "outputs": [
        {
          "internalType": "bool",
          "name": "",
          "type": "bool"
        }
      ],
      "stateMutability": "view",
      "type": "function"
    },
    {
      "inputs": [
        {
          "internalType": "bytes32",
          "name": "role",
          "type": "bytes32"
        },
        {
          "internalType": "address",
          "name": "account",
          "type": "address"
        }
      ],
      "name": "renounceRole",
      "outputs": [],
      "stateMutability": "nonpayable",
      "type": "function"
    },
    {
      "inputs": [
        {
          "internalType": "bytes32",
          "name": "role",
          "type": "bytes32"
        },
        {
          "internalType": "address",
          "name": "account",
          "type": "address"
        }
      ],
      "name": "revokeRole",
      "outputs": [],
      "stateMutability": "nonpayable",
      "type": "function"
    },
    {
      "inputs": [
        {
          "internalType": "uint256",
          "name": "_limit",
          "type": "uint256"
        },
        {
          "internalType": "uint256",
          "name": "_periodDurationMonths",
          "type": "uint256"
        }
      ],
      "name": "setLimitParameters",
      "outputs": [],
      "stateMutability": "nonpayable",
      "type": "function"
    },
    {
      "inputs": [],
      "name": "spendableBalance",
      "outputs": [
        {
          "internalType": "uint256",
          "name": "",
          "type": "uint256"
        }
      ],
      "stateMutability": "view",
      "type": "function"
    },
    {
      "inputs": [
        {
          "internalType": "bytes4",
          "name": "interfaceId",
          "type": "bytes4"
        }
      ],
      "name": "supportsInterface",
      "outputs": [
        {
          "internalType": "bool",
          "name": "",
          "type": "bool"
        }
      ],
      "stateMutability": "view",
      "type": "function"
    },
    {
      "inputs": [
        {
          "internalType": "uint256",
          "name": "_payoutAmount",
          "type": "uint256"
        }
      ],
      "name": "updateSpentAmount",
      "outputs": [],
      "stateMutability": "nonpayable",
      "type": "function"
    }
  ],
  "bytecode": {
    "object": "0x60a06040523480156200001157600080fd5b506040516200150238038062001502833981016040819052620000349162000290565b60005b8351811015620000a4576200008f7f389c107d46e44659ea9e3d38a2e43f5414bdd0fd8244fa558561536ea90c2ece8583815181106200007b576200007b6200033a565b60200260200101516200011b60201b60201c565b806200009b8162000310565b91505062000037565b5060005b82518110156200010157620000ec7fc5260260446719a726d11a6faece21d19daa48b4cbcca118345832d4cb71df998483815181106200007b576200007b6200033a565b80620000f88162000310565b915050620000a8565b5060601b6001600160601b031916608052506200037f9050565b6200012782826200012b565b5050565b6000828152602081815260408083206001600160a01b038516845290915290205460ff1662000127576000828152602081815260408083206001600160a01b03851684529091529020805460ff19166001179055620001873390565b6001600160a01b0316816001600160a01b0316837f2f8788117e7eff1d82e926ec794901d17c78024a50270940304540a733656f0d60405160405180910390a45050565b8051620001d88162000366565b919050565b600082601f830112620001ef57600080fd5b815160206001600160401b03808311156200020e576200020e62000350565b8260051b604051601f19603f8301168101818110848211171562000236576200023662000350565b604052848152838101925086840182880185018910156200025657600080fd5b600092505b8583101562000284576200026f81620001cb565b8452928401926001929092019184016200025b565b50979650505050505050565b600080600060608486031215620002a657600080fd5b83516001600160401b0380821115620002be57600080fd5b620002cc87838801620001dd565b94506020860151915080821115620002e357600080fd5b50620002f286828701620001dd565b9250506040840151620003058162000366565b809150509250925092565b60006000198214156200033357634e487b7160e01b600052601160045260246000fd5b5060010190565b634e487b7160e01b600052603260045260246000fd5b634e487b7160e01b600052604160045260246000fd5b6001600160a01b03811681146200037c57600080fd5b50565b60805160601c61114f620003b36000396000818161021a01528181610a4101528181610aca0152610bb2015261114f6000f3fe608060405234801561001057600080fd5b50600436106101005760003560e01c80634ba578ab11610097578063a217fddf11610066578063a217fddf14610267578063d547741f1461026f578063e759b06c14610282578063ee72782d146102b057600080fd5b80634ba578ab146101ef57806366671229146102025780637ef7a4621461021557806391d148541461025457600080fd5b80632f2ff15d116100d35780632f2ff15d1461018d57806336568abe146101a25780633e0bde67146101b5578063435bd804146101c857600080fd5b806301ffc9a714610105578063236fedce1461012d578063248a9ca3146101625780632a9a872a14610185575b600080fd5b610118610113366004610ee5565b6102d8565b60405190151581526020015b60405180910390f35b6101547f389c107d46e44659ea9e3d38a2e43f5414bdd0fd8244fa558561536ea90c2ece81565b604051908152602001610124565b610154610170366004610e90565b60009081526020819052604090206001015490565b61015461030f565b6101a061019b366004610ea9565b610337565b005b6101a06101b0366004610ea9565b610362565b6101a06101c3366004610f28565b6103e5565b6101547fc5260260446719a726d11a6faece21d19daa48b4cbcca118345832d4cb71df9981565b6101186101fd366004610f28565b610582565b6101a0610210366004610e90565b6105e6565b61023c7f000000000000000000000000000000000000000000000000000000000000000081565b6040516001600160a01b039091168152602001610124565b610118610262366004610ea9565b610796565b610154600081565b6101a061027d366004610ea9565b6107bf565b600254600154604080516001600160801b03909316835267ffffffffffffffff909116602083015201610124565b6102b86107e5565b604080519485526020850193909352918301526060820152608001610124565b60006001600160e01b03198216637965db0b60e01b148061030957506301ffc9a760e01b6001600160e01b03198316145b92915050565b600254600090610332906001600160801b0380821691600160801b90041661082a565b905090565b600082815260208190526040902060010154610353813361083d565b61035d83836108a1565b505050565b6001600160a01b03811633146103d75760405162461bcd60e51b815260206004820152602f60248201527f416363657373436f6e74726f6c3a2063616e206f6e6c792072656e6f756e636560448201526e103937b632b9903337b91039b2b63360891b60648201526084015b60405180910390fd5b6103e18282610925565b5050565b7f389c107d46e44659ea9e3d38a2e43f5414bdd0fd8244fa558561536ea90c2ece610410813361083d565b60408051808201909152600f81526e1513d3d7d3105491d157d312535255608a1b60208201526001600160801b0384111561045e5760405162461bcd60e51b81526004016103ce9190610fed565b506104688261098a565b6001805467ffffffffffffffff191667ffffffffffffffff8416179055600061049042610a08565b90506104a56104a0600183611079565b610ac3565b6040517f01e1441ccf0c1da6f26a624ad4c5c20c52ccc3c56ecad9f154ec6af11122ea5190600090a260018054600160401b600160c01b031916600160401b6001600160801b038481169190910291909117909155600280546fffffffffffffffffffffffffffffffff19168683161790819055600160801b90041684101561054357600280546001600160801b03808716600160801b0291161790555b60408051858152602081018590527f673d7870f9aef68143dc0ba3aa39a6b503258aecfcb7493060c477921da3b842910160405180910390a150505050565b600154600090600160401b90046001600160801b03166105a28342611020565b106105bc57506002546001600160801b0316821115610309565b6002546105dc906001600160801b0380821691600160801b90041661082a565b9092111592915050565b7fc5260260446719a726d11a6faece21d19daa48b4cbcca118345832d4cb71df99610611813361083d565b6002546001546001600160801b03600160801b8304811692811691600160401b9004164281116106a65761064442610a08565b6000935090506106586104a0600183611079565b6040517f01e1441ccf0c1da6f26a624ad4c5c20c52ccc3c56ecad9f154ec6af11122ea5190600090a260018054600160401b600160c01b031916600160401b6001600160801b038416021790555b6106b0828461082a565b8511156040518060400160405280601d81526020017f53554d5f455843454544535f5350454e4441424c455f42414c414e4345000000815250906107075760405162461bcd60e51b81526004016103ce9190610fed565b506107128584611020565b600280546001600160801b03808416600160801b0291161790559250600080808061073e868887610c3f565b60408051858152602081018590529081018290529397509195509350915082907fc7b603a3095aa2949aabc1b803b13eec3e3f35b9e735f6700576e5349d454b509060600160405180910390a2505050505050505050565b6000918252602082815260408084206001600160a01b0393909316845291905290205460ff1690565b6000828152602081905260409020600101546107db813361083d565b61035d8383610925565b60025460015460009182918291829161081c916001600160801b0380821692600160801b909204811691600160401b900416610c3f565b935093509350935090919293565b60006108368284611079565b9392505050565b6108478282610796565b6103e15761085f816001600160a01b03166014610c6d565b61086a836020610c6d565b60405160200161087b929190610f78565b60408051601f198184030181529082905262461bcd60e51b82526103ce91600401610fed565b6108ab8282610796565b6103e1576000828152602081815260408083206001600160a01b03851684529091529020805460ff191660011790556108e13390565b6001600160a01b0316816001600160a01b0316837f2f8788117e7eff1d82e926ec794901d17c78024a50270940304540a733656f0d60405160405180910390a45050565b61092f8282610796565b156103e1576000828152602081815260408083206001600160a01b0385168085529252808320805460ff1916905551339285917ff6391f5c32d9c69d2a47ea670b442974b53935d1edc7fd64eb21e047a839171b9190a45050565b80600114806109995750806002145b806109a45750806003145b806109af5750806006145b806109ba575080600c145b6040518060400160405280601781526020017624a72b20a624a22fa822a924a7a22fa22aa920aa24a7a760491b815250906103e15760405162461bcd60e51b81526004016103ce9190610fed565b600080610a1483610ac3565b600154604051634355644d60e01b81526004810183905267ffffffffffffffff90911660248201529091507f00000000000000000000000000000000000000000000000000000000000000006001600160a01b031690634355644d9060440160206040518083038186803b158015610a8b57600080fd5b505afa158015610a9f573d6000803e3d6000fd5b505050506040513d601f19601f820116820180604052508101906108369190610f0f565b60008060007f00000000000000000000000000000000000000000000000000000000000000006001600160a01b031663de5101af856040518263ffffffff1660e01b8152600401610b1691815260200190565b60606040518083038186803b158015610b2e57600080fd5b505afa158015610b42573d6000803e3d6000fd5b505050506040513d601f19601f82011682018060405250810190610b669190610f4a565b5060015491935091508290600090610b8990849067ffffffffffffffff16610e09565b604051630fa7bbd960e11b815260048101849052602481018290526001604482018190529192507f00000000000000000000000000000000000000000000000000000000000000006001600160a01b031690631f4f77b29060640160206040518083038186803b158015610bfc57600080fd5b505afa158015610c10573d6000803e3d6000fd5b505050506040513d601f19601f82011682018060405250810190610c349190610f0f565b979650505050505050565b60008060008085610c50888861082a565b610c5e6104a0600189611079565b91999098509096509350505050565b60606000610c7c83600261105a565b610c87906002611020565b67ffffffffffffffff811115610c9f57610c9f611103565b6040519080825280601f01601f191660200182016040528015610cc9576020820181803683370190505b509050600360fc1b81600081518110610ce457610ce46110ed565b60200101906001600160f81b031916908160001a905350600f60fb1b81600181518110610d1357610d136110ed565b60200101906001600160f81b031916908160001a9053506000610d3784600261105a565b610d42906001611020565b90505b6001811115610dba576f181899199a1a9b1b9c1cb0b131b232b360811b85600f1660108110610d7657610d766110ed565b1a60f81b828281518110610d8c57610d8c6110ed565b60200101906001600160f81b031916908160001a90535060049490941c93610db3816110c0565b9050610d45565b5083156108365760405162461bcd60e51b815260206004820181905260248201527f537472696e67733a20686578206c656e67746820696e73756666696369656e7460448201526064016103ce565b60408051808201909152601781527624a72b20a624a22fa822a924a7a22fa22aa920aa24a7a760491b602082015260009082610e585760405162461bcd60e51b81526004016103ce9190610fed565b50600082610e67600186611079565b610e719190611038565b9050610e7d838261105a565b610e88906001611020565b949350505050565b600060208284031215610ea257600080fd5b5035919050565b60008060408385031215610ebc57600080fd5b8235915060208301356001600160a01b0381168114610eda57600080fd5b809150509250929050565b600060208284031215610ef757600080fd5b81356001600160e01b03198116811461083657600080fd5b600060208284031215610f2157600080fd5b5051919050565b60008060408385031215610f3b57600080fd5b50508035926020909101359150565b600080600060608486031215610f5f57600080fd5b8351925060208401519150604084015190509250925092565b7f416363657373436f6e74726f6c3a206163636f756e7420000000000000000000815260008351610fb0816017850160208801611090565b7001034b99036b4b9b9b4b733903937b6329607d1b6017918401918201528351610fe1816028840160208801611090565b01602801949350505050565b602081526000825180602084015261100c816040850160208701611090565b601f01601f19169190910160400192915050565b60008219821115611033576110336110d7565b500190565b60008261105557634e487b7160e01b600052601260045260246000fd5b500490565b6000816000190483118215151615611074576110746110d7565b500290565b60008282101561108b5761108b6110d7565b500390565b60005b838110156110ab578181015183820152602001611093565b838111156110ba576000848401525b50505050565b6000816110cf576110cf6110d7565b506000190190565b634e487b7160e01b600052601160045260246000fd5b634e487b7160e01b600052603260045260246000fd5b634e487b7160e01b600052604160045260246000fdfea26469706673582212204c7cea718ed3dc74a559ca9f83823e10dc1d26958c1d1e390b71990ddea11e3264736f6c63430008060033",
    "linkReferences": {}
  },
  "methodIdentifiers": {
    "DEFAULT_ADMIN_ROLE()": "a217fddf",
    "SET_LIMIT_PARAMETERS_ROLE()": "236fedce",
    "UPDATE_SPENT_AMOUNT_ROLE()": "435bd804",
    "bokkyPooBahsDateTimeContract()": "7ef7a462",
    "getLimitParameters()": "e759b06c",
    "getPeriodState()": "ee72782d",
    "getRoleAdmin(bytes32)": "248a9ca3",
    "grantRole(bytes32,address)": "2f2ff15d",
    "hasRole(bytes32,address)": "91d14854",
    "isUnderSpendableBalance(uint256,uint256)": "4ba578ab",
    "renounceRole(bytes32,address)": "36568abe",
    "revokeRole(bytes32,address)": "d547741f",
    "setLimitParameters(uint256,uint256)": "3e0bde67",
    "spendableBalance()": "2a9a872a",
    "supportsInterface(bytes4)": "01ffc9a7",
    "updateSpentAmount(uint256)": "66671229"
  },
  "storageLayout": {
    "storage": [
      {
        "astId": 5177,
        "contract": "contracts/LimitsChecker.sol:LimitsChecker",
        "label": "_roles",
        "offset": 0,
        "slot": "0",
        "type": "t_mapping(t_bytes32,t_struct(RoleData)5172_storage)"
      },
      {
        "astId": 3130,
        "contract": "contracts/LimitsChecker.sol:LimitsChecker",
        "label": "periodDurationMonths",
        "offset": 0,
        "slot": "1",
        "type": "t_uint64"
      },
      {
        "astId": 3133,
        "contract": "contracts/LimitsChecker.sol:LimitsChecker",
        "label": "currentPeriodEndTimestamp",
        "offset": 8,
        "slot": "1",
        "type": "t_uint128"
      },
      {
        "astId": 3136,
        "contract": "contracts/LimitsChecker.sol:LimitsChecker",
        "label": "limit",
        "offset": 0,
        "slot": "2",
        "type": "t_uint128"
      },
      {
        "astId": 3139,
        "contract": "contracts/LimitsChecker.sol:LimitsChecker",
        "label": "spentAmount",
        "offset": 16,
        "slot": "2",
        "type": "t_uint128"
      }
    ],
    "types": {
      "t_address": {
        "encoding": "inplace",
        "label": "address",
        "numberOfBytes": "20"
      },
      "t_bool": {
        "encoding": "inplace",
        "label": "bool",
        "numberOfBytes": "1"
      },
      "t_bytes32": {
        "encoding": "inplace",
        "label": "bytes32",
        "numberOfBytes": "32"
      },
      "t_mapping(t_address,t_bool)": {
        "encoding": "mapping",
        "key": "t_address",
        "label": "mapping(address => bool)",
        "numberOfBytes": "32",
        "value": "t_bool"
      },
      "t_mapping(t_bytes32,t_struct(RoleData)5172_storage)": {
        "encoding": "mapping",
        "key": "t_bytes32",
        "label": "mapping(bytes32 => struct AccessControl.RoleData)",
        "numberOfBytes": "32",
        "value": "t_struct(RoleData)5172_storage"
      },
      "t_struct(RoleData)5172_storage": {
        "encoding": "inplace",
        "label": "struct AccessControl.RoleData",
        "numberOfBytes": "64",
        "members": [
          {
            "astId": 5169,
            "contract": "contracts/LimitsChecker.sol:LimitsChecker",
            "label": "members",
            "offset": 0,
            "slot": "0",
            "type": "t_mapping(t_address,t_bool)"
          },
          {
            "astId": 5171,
            "contract": "contracts/LimitsChecker.sol:LimitsChecker",
            "label": "adminRole",
            "offset": 0,
            "slot": "1",
            "type": "t_bytes32"
          }
        ]
      },
      "t_uint128": {
        "encoding": "inplace",
        "label": "uint128",
        "numberOfBytes": "16"
      },
      "t_uint64": {
        "encoding": "inplace",
        "label": "uint64",
        "numberOfBytes": "8"
      }
    }
  },
  "id": 12
}