{
  "abi": [
    {
      "inputs": [
        {
          "internalType": "bytes",
          "name": "_permissions",
          "type": "bytes"
        },
        {
          "internalType": "bytes",
          "name": "_evmScript",
          "type": "bytes"
        }
      ],
      "name": "canExecuteEVMScript",
      "outputs": [
        {
          "internalType": "bool",
          "name": "",
          "type": "bool"
        }
      ],
      "stateMutability": "pure",
      "type": "function"
    },
    {
      "inputs": [
        {
          "internalType": "bytes",
          "name": "_permissions",
          "type": "bytes"
        }
      ],
      "name": "isValidPermissions",
      "outputs": [
        {
          "internalType": "bool",
          "name": "",
          "type": "bool"
        }
      ],
      "stateMutability": "pure",
      "type": "function"
    }
  ],
  "bytecode": {
    "object": "0x608060405234801561001057600080fd5b5061043f806100206000396000f3fe608060405234801561001057600080fd5b50600436106100365760003560e01c80635e6ca0aa1461003b578063f89135f214610062575b600080fd5b61004e610049366004610347565b610075565b604051901515815260200160405180910390f35b61004e610070366004610312565b61008a565b60006100818383610095565b90505b92915050565b60006100848261012c565b600060046100a28461012c565b15806100af575080835111155b156100be576000915050610084565b8251811015610122576000806100d48584610158565b915091506100e286836101d3565b6100f25760009350505050610084565b63ffffffff8116610105600460146103ab565b61010f91906103ab565b61011990846103ab565b925050506100be565b5060019392505050565b60008082511180156100845750610145600460146103ab565b825161015191906103d1565b1592915050565b600080806101668585610237565b9050600061017f6101786014876103ab565b8790610252565b905060006101a460046101936014896103ab565b61019d91906103ab565b8890610252565b90508260601b6bffffffffffffffffffffffff19168163ffffffff1660401b1782945094505050509250929050565b6000805b835181101561022d5760006101ec858361026d565b905067ffffffffffffffff19808216908516141561020f57600192505050610084565b61021b600460146103ab565b61022590836103ab565b9150506101d7565b5060009392505050565b6000806102478484016020015190565b60601c949350505050565b6000806102628484016020015190565b60e01c949350505050565b60008061027d8484016020015190565b949350505050565b600082601f83011261029657600080fd5b813567ffffffffffffffff808211156102b1576102b16103f3565b604051601f8301601f19908116603f011681019082821181831017156102d9576102d96103f3565b816040528381528660208588010111156102f257600080fd5b836020870160208301376000602085830101528094505050505092915050565b60006020828403121561032457600080fd5b813567ffffffffffffffff81111561033b57600080fd5b61027d84828501610285565b6000806040838503121561035a57600080fd5b823567ffffffffffffffff8082111561037257600080fd5b61037e86838701610285565b9350602085013591508082111561039457600080fd5b506103a185828601610285565b9150509250929050565b600082198211156103cc57634e487b7160e01b600052601160045260246000fd5b500190565b6000826103ee57634e487b7160e01b600052601260045260246000fd5b500690565b634e487b7160e01b600052604160045260246000fdfea2646970667358221220d789b1a8411e70837ab14b31514df52a369f8afef26b0dc4589ea8f9a7b038a964736f6c63430008060033",
    "linkReferences": {}
  },
  "methodIdentifiers": {
    "canExecuteEVMScript(bytes,bytes)": "5e6ca0aa",
    "isValidPermissions(bytes)": "f89135f2"
  },
  "storageLayout": {
    "storage": [],
    "types": {}
  },
  "id": 27
}