{
  "abi": [
    {
      "inputs": [
        {
          "internalType": "address",
          "name": "_admin",
          "type": "address"
        },
        {
          "internalType": "address[]",
          "name": "_addRewardProgramRoleHolders",
          "type": "address[]"
        },
        {
          "internalType": "address[]",
          "name": "_removeRewardProgramRoleHolders",
          "type": "address[]"
        }
      ],
      "stateMutability": "nonpayable",
      "type": "constructor"
    },
    {
      "anonymous": false,
      "inputs": [
        {
          "indexed": true,
          "internalType": "address",
          "name": "_rewardProgram",
          "type": "address"
        },
        {
          "indexed": false,
          "internalType": "string",
          "name": "_title",
          "type": "string"
        }
      ],
      "name": "RewardProgramAdded",
      "type": "event"
    },
    {
      "anonymous": false,
      "inputs": [
        {
          "indexed": true,
          "internalType": "address",
          "name": "_rewardProgram",
          "type": "address"
        }
      ],
      "name": "RewardProgramRemoved",
      "type": "event"
    },
    {
      "anonymous": false,
      "inputs": [
        {
          "indexed": true,
          "internalType": "bytes32",
          "name": "role",
          "type": "bytes32"
        },
        {
          "indexed": true,
          "internalType": "bytes32",
          "name": "previousAdminRole",
          "type": "bytes32"
        },
        {
          "indexed": true,
          "internalType": "bytes32",
          "name": "newAdminRole",
          "type": "bytes32"
        }
      ],
      "name": "RoleAdminChanged",
      "type": "event"
    },
    {
      "anonymous": false,
      "inputs": [
        {
          "indexed": true,
          "internalType": "bytes32",
          "name": "role",
          "type": "bytes32"
        },
        {
          "indexed": true,
          "internalType": "address",
          "name": "account",
          "type": "address"
        },
        {
          "indexed": true,
          "internalType": "address",
          "name": "sender",
          "type": "address"
        }
      ],
      "name": "RoleGranted",
      "type": "event"
    },
    {
      "anonymous": false,
      "inputs": [
        {
          "indexed": true,
          "internalType": "bytes32",
          "name": "role",
          "type": "bytes32"
        },
        {
          "indexed": true,
          "internalType": "address",
          "name": "account",
          "type": "address"
        },
        {
          "indexed": true,
          "internalType": "address",
          "name": "sender",
          "type": "address"
        }
      ],
      "name": "RoleRevoked",
      "type": "event"
    },
    {
      "inputs": [],
      "name": "ADD_REWARD_PROGRAM_ROLE",
      "outputs": [
        {
          "internalType": "bytes32",
          "name": "",
          "type": "bytes32"
        }
      ],
      "stateMutability": "view",
      "type": "function"
    },
    {
      "inputs": [],
      "name": "DEFAULT_ADMIN_ROLE",
      "outputs": [
        {
          "internalType": "bytes32",
          "name": "",
          "type": "bytes32"
        }
      ],
      "stateMutability": "view",
      "type": "function"
    },
    {
      "inputs": [],
      "name": "REMOVE_REWARD_PROGRAM_ROLE",
      "outputs": [
        {
          "internalType": "bytes32",
          "name": "",
          "type": "bytes32"
        }
      ],
      "stateMutability": "view",
      "type": "function"
    },
    {
      "inputs": [
        {
          "internalType": "address",
          "name": "_rewardProgram",
          "type": "address"
        },
        {
          "internalType": "string",
          "name": "_title",
          "type": "string"
        }
      ],
      "name": "addRewardProgram",
      "outputs": [],
      "stateMutability": "nonpayable",
      "type": "function"
    },
    {
      "inputs": [],
      "name": "getRewardPrograms",
      "outputs": [
        {
          "internalType": "address[]",
          "name": "",
          "type": "address[]"
        }
      ],
      "stateMutability": "view",
      "type": "function"
    },
    {
      "inputs": [
        {
          "internalType": "bytes32",
          "name": "role",
          "type": "bytes32"
        }
      ],
      "name": "getRoleAdmin",
      "outputs": [
        {
          "internalType": "bytes32",
          "name": "",
          "type": "bytes32"
        }
      ],
      "stateMutability": "view",
      "type": "function"
    },
    {
      "inputs": [
        {
          "internalType": "bytes32",
          "name": "role",
          "type": "bytes32"
        },
        {
          "internalType": "address",
          "name": "account",
          "type": "address"
        }
      ],
      "name": "grantRole",
      "outputs": [],
      "stateMutability": "nonpayable",
      "type": "function"
    },
    {
      "inputs": [
        {
          "internalType": "bytes32",
          "name": "role",
          "type": "bytes32"
        },
        {
          "internalType": "address",
          "name": "account",
          "type": "address"
        }
      ],
      "name": "hasRole",
      "outputs": [
        {
          "internalType": "bool",
          "name": "",
          "type": "bool"
        }
      ],
      "stateMutability": "view",
      "type": "function"
    },
    {
      "inputs": [
        {
          "internalType": "address",
          "name": "_maybeRewardProgram",
          "type": "address"
        }
      ],
      "name": "isRewardProgram",
      "outputs": [
        {
          "internalType": "bool",
          "name": "",
          "type": "bool"
        }
      ],
      "stateMutability": "view",
      "type": "function"
    },
    {
      "inputs": [
        {
          "internalType": "address",
          "name": "_rewardProgram",
          "type": "address"
        }
      ],
      "name": "removeRewardProgram",
      "outputs": [],
      "stateMutability": "nonpayable",
      "type": "function"
    },
    {
      "inputs": [
        {
          "internalType": "bytes32",
          "name": "role",
          "type": "bytes32"
        },
        {
          "internalType": "address",
          "name": "account",
          "type": "address"
        }
      ],
      "name": "renounceRole",
      "outputs": [],
      "stateMutability": "nonpayable",
      "type": "function"
    },
    {
      "inputs": [
        {
          "internalType": "bytes32",
          "name": "role",
          "type": "bytes32"
        },
        {
          "internalType": "address",
          "name": "account",
          "type": "address"
        }
      ],
      "name": "revokeRole",
      "outputs": [],
      "stateMutability": "nonpayable",
      "type": "function"
    },
    {
      "inputs": [
        {
          "internalType": "uint256",
          "name": "",
          "type": "uint256"
        }
      ],
      "name": "rewardPrograms",
      "outputs": [
        {
          "internalType": "address",
          "name": "",
          "type": "address"
        }
      ],
      "stateMutability": "view",
      "type": "function"
    },
    {
      "inputs": [
        {
          "internalType": "bytes4",
          "name": "interfaceId",
          "type": "bytes4"
        }
      ],
      "name": "supportsInterface",
      "outputs": [
        {
          "internalType": "bool",
          "name": "",
          "type": "bool"
        }
      ],
      "stateMutability": "view",
      "type": "function"
    }
  ],
  "bytecode": {
    "object": "0x60806040523480156200001157600080fd5b506040516200113a3803806200113a833981016040819052620000349162000298565b6200004160008462000118565b60005b8251811015620000b1576200009c7fce8976ec33b30cd0968ffa1fac067b01c7bd61b44d3302fc48791912bdf2ddb68483815181106200008857620000886200033f565b60200260200101516200011860201b60201c565b80620000a88162000315565b91505062000044565b5060005b81518110156200010e57620000f97f9808447c3ccc2f18077679914d53def7c35a274f376c8c109bd2eed3189fe4c68383815181106200008857620000886200033f565b80620001058162000315565b915050620000b5565b505050506200036b565b62000124828262000128565b5050565b6000828152602081815260408083206001600160a01b038516845290915290205460ff1662000124576000828152602081815260408083206001600160a01b03851684529091529020805460ff19166001179055620001843390565b6001600160a01b0316816001600160a01b0316837f2f8788117e7eff1d82e926ec794901d17c78024a50270940304540a733656f0d60405160405180910390a45050565b80516001600160a01b0381168114620001e057600080fd5b919050565b600082601f830112620001f757600080fd5b815160206001600160401b038083111562000216576200021662000355565b8260051b604051601f19603f830116810181811084821117156200023e576200023e62000355565b604052848152838101925086840182880185018910156200025e57600080fd5b600092505b858310156200028c576200027781620001c8565b84529284019260019290920191840162000263565b50979650505050505050565b600080600060608486031215620002ae57600080fd5b620002b984620001c8565b60208501519093506001600160401b0380821115620002d757600080fd5b620002e587838801620001e5565b93506040860151915080821115620002fc57600080fd5b506200030b86828701620001e5565b9150509250925092565b60006000198214156200033857634e487b7160e01b600052601160045260246000fd5b5060010190565b634e487b7160e01b600052603260045260246000fd5b634e487b7160e01b600052604160045260246000fd5b610dbf806200037b6000396000f3fe608060405234801561001057600080fd5b50600436106100ea5760003560e01c8063692f5c7e1161008c5780639525581c116100665780639525581c14610224578063a217fddf1461024f578063d547741f14610257578063fa508cef1461026a57600080fd5b8063692f5c7e146101d757806391d14854146101fe578063945233e21461021157600080fd5b806336568abe116100c857806336568abe1461015d5780633dfa0772146101705780635a8d61e2146101975780635e5ed09a146101c257600080fd5b806301ffc9a7146100ef578063248a9ca3146101175780632f2ff15d14610148575b600080fd5b6101026100fd366004610b7d565b61027d565b60405190151581526020015b60405180910390f35b61013a610125366004610b38565b60009081526020819052604090206001015490565b60405190815260200161010e565b61015b610156366004610b51565b6102b4565b005b61015b61016b366004610b51565b6102df565b61013a7f9808447c3ccc2f18077679914d53def7c35a274f376c8c109bd2eed3189fe4c681565b6101aa6101a5366004610b38565b610362565b6040516001600160a01b03909116815260200161010e565b6101ca61038c565b60405161010e9190610c1c565b61013a7fce8976ec33b30cd0968ffa1fac067b01c7bd61b44d3302fc48791912bdf2ddb681565b61010261020c366004610b51565b6103ee565b61015b61021f366004610a5b565b610417565b610102610232366004610a5b565b6001600160a01b0316600090815260026020526040902054151590565b61013a600081565b61015b610265366004610b51565b61057a565b61015b610278366004610a76565b6105a0565b60006001600160e01b03198216637965db0b60e01b14806102ae57506301ffc9a760e01b6001600160e01b03198316145b92915050565b6000828152602081905260409020600101546102d081336106d3565b6102da8383610737565b505050565b6001600160a01b03811633146103545760405162461bcd60e51b815260206004820152602f60248201527f416363657373436f6e74726f6c3a2063616e206f6e6c792072656e6f756e636560448201526e103937b632b9903337b91039b2b63360891b60648201526084015b60405180910390fd5b61035e82826107bb565b5050565b6001818154811061037257600080fd5b6000918252602090912001546001600160a01b0316905081565b606060018054806020026020016040519081016040528092919081815260200182805480156103e457602002820191906000526020600020905b81546001600160a01b031681526001909101906020018083116103c6575b5050505050905090565b6000918252602082815260408084206001600160a01b0393909316845291905290205460ff1690565b7f9808447c3ccc2f18077679914d53def7c35a274f376c8c109bd2eed3189fe4c661044281336106d3565b600061044d83610820565b600180549192506000916104619190610cd3565b90508082146104fd5760006001828154811061047f5761047f610d5d565b600091825260209091200154600180546001600160a01b0390921692508291859081106104ae576104ae610d5d565b600091825260209091200180546001600160a01b0319166001600160a01b03929092169190911790556104e2836001610c9c565b6001600160a01b039091166000908152600260205260409020555b600180548061050e5761050e610d47565b60008281526020808220830160001990810180546001600160a01b03191690559092019092556001600160a01b038616808352600290915260408083208390555190917f87e1027e3dc61d1977f39f0dfe911b66a943946b4ceb39210dee01495621de5291a250505050565b60008281526020819052604090206001015461059681336106d3565b6102da83836107bb565b7fce8976ec33b30cd0968ffa1fac067b01c7bd61b44d3302fc48791912bdf2ddb66105cb81336106d3565b6001600160a01b038316600090815260026020908152604091829020548251808401909352601c83527f5245574152445f50524f4752414d5f414c52454144595f414444454400000000918301919091521561063a5760405162461bcd60e51b815260040161034b9190610c69565b506001805480820182557fb10e2d527612073b26eecdfd717e6a320cf44b4afac2b0732d9fcbe2b7fa0cf60180546001600160a01b0319166001600160a01b03861690811790915590546000828152600260205260409081902091909155517f013fd5e99744f7f9582e8b5c8f1d732d17e810e34184af6a72bb75a079a3a616906106c6908590610c69565b60405180910390a2505050565b6106dd82826103ee565b61035e576106f5816001600160a01b0316601461089c565b61070083602061089c565b604051602001610711929190610ba7565b60408051601f198184030181529082905262461bcd60e51b825261034b91600401610c69565b61074182826103ee565b61035e576000828152602081815260408083206001600160a01b03851684529091529020805460ff191660011790556107773390565b6001600160a01b0316816001600160a01b0316837f2f8788117e7eff1d82e926ec794901d17c78024a50270940304540a733656f0d60405160405180910390a45050565b6107c582826103ee565b1561035e576000828152602081815260408083206001600160a01b0385168085529252808320805460ff1916905551339285917ff6391f5c32d9c69d2a47ea670b442974b53935d1edc7fd64eb21e047a839171b9190a45050565b6001600160a01b038116600090815260026020908152604091829020548251808401909352601883527f5245574152445f50524f4752414d5f4e4f545f464f554e4400000000000000009183019190915290816108905760405162461bcd60e51b815260040161034b9190610c69565b506102ae600182610cd3565b606060006108ab836002610cb4565b6108b6906002610c9c565b67ffffffffffffffff8111156108ce576108ce610d73565b6040519080825280601f01601f1916602001820160405280156108f8576020820181803683370190505b509050600360fc1b8160008151811061091357610913610d5d565b60200101906001600160f81b031916908160001a905350600f60fb1b8160018151811061094257610942610d5d565b60200101906001600160f81b031916908160001a9053506000610966846002610cb4565b610971906001610c9c565b90505b60018111156109e9576f181899199a1a9b1b9c1cb0b131b232b360811b85600f16601081106109a5576109a5610d5d565b1a60f81b8282815181106109bb576109bb610d5d565b60200101906001600160f81b031916908160001a90535060049490941c936109e281610d1a565b9050610974565b508315610a385760405162461bcd60e51b815260206004820181905260248201527f537472696e67733a20686578206c656e67746820696e73756666696369656e74604482015260640161034b565b9392505050565b80356001600160a01b0381168114610a5657600080fd5b919050565b600060208284031215610a6d57600080fd5b610a3882610a3f565b60008060408385031215610a8957600080fd5b610a9283610a3f565b9150602083013567ffffffffffffffff80821115610aaf57600080fd5b818501915085601f830112610ac357600080fd5b813581811115610ad557610ad5610d73565b604051601f8201601f19908116603f01168101908382118183101715610afd57610afd610d73565b81604052828152886020848701011115610b1657600080fd5b8260208601602083013760006020848301015280955050505050509250929050565b600060208284031215610b4a57600080fd5b5035919050565b60008060408385031215610b6457600080fd5b82359150610b7460208401610a3f565b90509250929050565b600060208284031215610b8f57600080fd5b81356001600160e01b031981168114610a3857600080fd5b7f416363657373436f6e74726f6c3a206163636f756e7420000000000000000000815260008351610bdf816017850160208801610cea565b7001034b99036b4b9b9b4b733903937b6329607d1b6017918401918201528351610c10816028840160208801610cea565b01602801949350505050565b6020808252825182820181905260009190848201906040850190845b81811015610c5d5783516001600160a01b031683529284019291840191600101610c38565b50909695505050505050565b6020815260008251806020840152610c88816040850160208701610cea565b601f01601f19169190910160400192915050565b60008219821115610caf57610caf610d31565b500190565b6000816000190483118215151615610cce57610cce610d31565b500290565b600082821015610ce557610ce5610d31565b500390565b60005b83811015610d05578181015183820152602001610ced565b83811115610d14576000848401525b50505050565b600081610d2957610d29610d31565b506000190190565b634e487b7160e01b600052601160045260246000fd5b634e487b7160e01b600052603160045260246000fd5b634e487b7160e01b600052603260045260246000fd5b634e487b7160e01b600052604160045260246000fdfea26469706673582212202758ea3a98275e9f544c6f7d485e187a662f32ef254db1aceec5a061eb12661864736f6c63430008060033",
    "linkReferences": {}
  },
  "methodIdentifiers": {
    "ADD_REWARD_PROGRAM_ROLE()": "692f5c7e",
    "DEFAULT_ADMIN_ROLE()": "a217fddf",
    "REMOVE_REWARD_PROGRAM_ROLE()": "3dfa0772",
    "addRewardProgram(address,string)": "fa508cef",
    "getRewardPrograms()": "5e5ed09a",
    "getRoleAdmin(bytes32)": "248a9ca3",
    "grantRole(bytes32,address)": "2f2ff15d",
    "hasRole(bytes32,address)": "91d14854",
    "isRewardProgram(address)": "9525581c",
    "removeRewardProgram(address)": "945233e2",
    "renounceRole(bytes32,address)": "36568abe",
    "revokeRole(bytes32,address)": "d547741f",
    "rewardPrograms(uint256)": "5a8d61e2",
    "supportsInterface(bytes4)": "01ffc9a7"
  },
  "storageLayout": {
    "storage": [
      {
        "astId": 5177,
        "contract": "contracts/RewardProgramsRegistry.sol:RewardProgramsRegistry",
        "label": "_roles",
        "offset": 0,
        "slot": "0",
        "type": "t_mapping(t_bytes32,t_struct(RoleData)5172_storage)"
      },
      {
        "astId": 3832,
        "contract": "contracts/RewardProgramsRegistry.sol:RewardProgramsRegistry",
        "label": "rewardPrograms",
        "offset": 0,
        "slot": "1",
        "type": "t_array(t_address)dyn_storage"
      },
      {
        "astId": 3836,
        "contract": "contracts/RewardProgramsRegistry.sol:RewardProgramsRegistry",
        "label": "rewardProgramIndices",
        "offset": 0,
        "slot": "2",
        "type": "t_mapping(t_address,t_uint256)"
      }
    ],
    "types": {
      "t_address": {
        "encoding": "inplace",
        "label": "address",
        "numberOfBytes": "20"
      },
      "t_array(t_address)dyn_storage": {
        "encoding": "dynamic_array",
        "label": "address[]",
        "numberOfBytes": "32",
        "base": "t_address"
      },
      "t_bool": {
        "encoding": "inplace",
        "label": "bool",
        "numberOfBytes": "1"
      },
      "t_bytes32": {
        "encoding": "inplace",
        "label": "bytes32",
        "numberOfBytes": "32"
      },
      "t_mapping(t_address,t_bool)": {
        "encoding": "mapping",
        "key": "t_address",
        "label": "mapping(address => bool)",
        "numberOfBytes": "32",
        "value": "t_bool"
      },
      "t_mapping(t_address,t_uint256)": {
        "encoding": "mapping",
        "key": "t_address",
        "label": "mapping(address => uint256)",
        "numberOfBytes": "32",
        "value": "t_uint256"
      },
      "t_mapping(t_bytes32,t_struct(RoleData)5172_storage)": {
        "encoding": "mapping",
        "key": "t_bytes32",
        "label": "mapping(bytes32 => struct AccessControl.RoleData)",
        "numberOfBytes": "32",
        "value": "t_struct(RoleData)5172_storage"
      },
      "t_struct(RoleData)5172_storage": {
        "encoding": "inplace",
        "label": "struct AccessControl.RoleData",
        "numberOfBytes": "64",
        "members": [
          {
            "astId": 5169,
            "contract": "contracts/RewardProgramsRegistry.sol:RewardProgramsRegistry",
            "label": "members",
            "offset": 0,
            "slot": "0",
            "type": "t_mapping(t_address,t_bool)"
          },
          {
            "astId": 5171,
            "contract": "contracts/RewardProgramsRegistry.sol:RewardProgramsRegistry",
            "label": "adminRole",
            "offset": 0,
            "slot": "1",
            "type": "t_bytes32"
          }
        ]
      },
      "t_uint256": {
        "encoding": "inplace",
        "label": "uint256",
        "numberOfBytes": "32"
      }
    }
  },
  "id": 14
}