{
  "abi": [
    {
      "inputs": [
        {
          "internalType": "address",
          "name": "_trustedCaller",
          "type": "address"
        },
        {
          "internalType": "address",
          "name": "_allowedRecipientsRegistry",
          "type": "address"
        }
      ],
      "stateMutability": "nonpayable",
      "type": "constructor"
    },
    {
      "inputs": [],
      "name": "allowedRecipientsRegistry",
      "outputs": [
        {
          "internalType": "contract AllowedRecipientsRegistry",
          "name": "",
          "type": "address"
        }
      ],
      "stateMutability": "view",
      "type": "function"
    },
    {
      "inputs": [
        {
          "internalType": "address",
          "name": "_creator",
          "type": "address"
        },
        {
          "internalType": "bytes",
          "name": "_evmScriptCallData",
          "type": "bytes"
        }
      ],
      "name": "createEVMScript",
      "outputs": [
        {
          "internalType": "bytes",
          "name": "",
          "type": "bytes"
        }
      ],
      "stateMutability": "view",
      "type": "function"
    },
    {
      "inputs": [
        {
          "internalType": "bytes",
          "name": "_evmScriptCallData",
          "type": "bytes"
        }
      ],
      "name": "decodeEVMScriptCallData",
      "outputs": [
        {
          "internalType": "address",
          "name": "",
          "type": "address"
        },
        {
          "internalType": "string",
          "name": "",
          "type": "string"
        }
      ],
      "stateMutability": "pure",
      "type": "function"
    },
    {
      "inputs": [],
      "name": "trustedCaller",
      "outputs": [
        {
          "internalType": "address",
          "name": "",
          "type": "address"
        }
      ],
      "stateMutability": "view",
      "type": "function"
    }
  ],
  "bytecode": {
    "object": "0x60a060405234801561001057600080fd5b5060405161087338038061087383398101604081905261002f916100e8565b60408051808201909152601e81527f545255535445445f43414c4c45525f49535f5a45524f5f414444524553530000602082015282906001600160a01b0382166100955760405162461bcd60e51b815260040161008c919061011b565b60405180910390fd5b5060601b6001600160601b031916608052600080546001600160a01b0319166001600160a01b039290921691909117905550610170565b80516001600160a01b03811681146100e357600080fd5b919050565b600080604083850312156100fb57600080fd5b610104836100cc565b9150610112602084016100cc565b90509250929050565b600060208083528351808285015260005b818110156101485785810183015185820160400152820161012c565b8181111561015a576000604083870101525b50601f01601f1916929092016040019392505050565b60805160601c6106df610194600039600081816056015261010401526106df6000f3fe608060405234801561001057600080fd5b506004361061004c5760003560e01c8063268f076014610051578063ecf7c69014610095578063fdcceb14146100b6578063fea21c9c146100c9575b600080fd5b6100787f000000000000000000000000000000000000000000000000000000000000000081565b6040516001600160a01b0390911681526020015b60405180910390f35b6100a86100a336600461049a565b6100e9565b60405161008c929190610564565b600054610078906001600160a01b031681565b6100dc6100d7366004610421565b6100ff565b60405161008c9190610588565b600060606100f6836102e2565b91509150915091565b6060827f00000000000000000000000000000000000000000000000000000000000000006001600160a01b0316816001600160a01b0316146040518060400160405280601381526020017221a0a62622a92fa4a9afa327a92124a22222a760691b8152509061018a5760405162461bcd60e51b81526004016101819190610588565b60405180910390fd5b506000610196846102e2565b50905060006001600160a01b0316816001600160a01b0316141560405180606001604052806021815260200161068960219139906101e75760405162461bcd60e51b81526004016101819190610588565b50600054604051638400c30760e01b81526001600160a01b03838116600483015290911690638400c3079060240160206040518083038186803b15801561022d57600080fd5b505afa158015610241573d6000803e3d6000fd5b505050506040513d601f19601f820116820180604052508101906102659190610471565b156040518060400160405280601f81526020017f414c4c4f5745445f524543495049454e545f414c52454144595f414444454400815250906102ba5760405162461bcd60e51b81526004016101819190610588565b506000546102d9906001600160a01b0316631ce6d4e160e21b866102fa565b95945050505050565b60006060828060200190518101906100f69190610394565b6060600160e01b848351600461031091906105f4565b8585604051602001610326959493929190610503565b60405160208183030381529060405290509392505050565b600082601f83011261034f57600080fd5b813561036261035d826105cc565b61059b565b81815284602083860101111561037757600080fd5b816020850160208301376000918101602001919091529392505050565b600080604083850312156103a757600080fd5b82516103b281610670565b602084015190925067ffffffffffffffff8111156103cf57600080fd5b8301601f810185136103e057600080fd5b80516103ee61035d826105cc565b81815286602083850101111561040357600080fd5b61041482602083016020860161062a565b8093505050509250929050565b6000806040838503121561043457600080fd5b823561043f81610670565b9150602083013567ffffffffffffffff81111561045b57600080fd5b6104678582860161033e565b9150509250929050565b60006020828403121561048357600080fd5b8151801515811461049357600080fd5b9392505050565b6000602082840312156104ac57600080fd5b813567ffffffffffffffff8111156104c357600080fd5b6104cf8482850161033e565b949350505050565b600081518084526104ef81602086016020860161062a565b601f01601f19169290920160200192915050565b6001600160e01b03198681168252606086901b6bffffffffffffffffffffffff1916600483015260e085901b811660188301528316601c820152815160009061055381602080860190870161062a565b919091016020019695505050505050565b6001600160a01b03831681526040602082018190526000906104cf908301846104d7565b60208152600061049360208301846104d7565b604051601f8201601f1916810167ffffffffffffffff811182821017156105c4576105c461065a565b604052919050565b600067ffffffffffffffff8211156105e6576105e661065a565b50601f01601f191660200190565b600063ffffffff80831681851680830382111561062157634e487b7160e01b600052601160045260246000fd5b01949350505050565b60005b8381101561064557818101518382015260200161062d565b83811115610654576000848401525b50505050565b634e487b7160e01b600052604160045260246000fd5b6001600160a01b038116811461068557600080fd5b5056fe524543495049454e545f414444524553535f49535f5a45524f5f41444452455353a26469706673582212208ae2bb5422d8cae63e7be7b015119ad8330ceceb64864051fb880482f3fc9c0e64736f6c63430008060033",
    "linkReferences": {}
  },
  "methodIdentifiers": {
    "allowedRecipientsRegistry()": "fdcceb14",
    "createEVMScript(address,bytes)": "fea21c9c",
    "decodeEVMScriptCallData(bytes)": "ecf7c690",
    "trustedCaller()": "268f0760"
  },
  "storageLayout": {
    "storage": [
      {
        "astId": 473,
        "contract": "contracts/EVMScriptFactories/AddAllowedRecipient.sol:AddAllowedRecipient",
        "label": "allowedRecipientsRegistry",
        "offset": 0,
        "slot": "0",
        "type": "t_contract(AllowedRecipientsRegistry)263"
      }
    ],
    "types": {
      "t_contract(AllowedRecipientsRegistry)263": {
        "encoding": "inplace",
        "label": "contract AllowedRecipientsRegistry",
        "numberOfBytes": "20"
      }
    }
  },
  "id": 2
}