{
  "abi": [
    {
      "inputs": [
        {
          "internalType": "address",
          "name": "_admin",
          "type": "address"
        },
        {
          "internalType": "address[]",
          "name": "_addRecipientToAllowedListRoleHolders",
          "type": "address[]"
        },
        {
          "internalType": "address[]",
          "name": "_removeRecipientFromAllowedListRoleHolders",
          "type": "address[]"
        },
        {
          "internalType": "address[]",
          "name": "_setLimitParametersRoleHolders",
          "type": "address[]"
        },
        {
          "internalType": "address[]",
          "name": "_updateSpentAmountRoleHolders",
          "type": "address[]"
        },
        {
          "internalType": "contract IBokkyPooBahsDateTimeContract",
          "name": "_bokkyPooBahsDateTimeContract",
          "type": "address"
        }
      ],
      "stateMutability": "nonpayable",
      "type": "constructor"
    },
    {
      "anonymous": false,
      "inputs": [
        {
          "indexed": true,
          "internalType": "uint256",
          "name": "_periodStartTimestamp",
          "type": "uint256"
        }
      ],
      "name": "CurrentPeriodAdvanced",
      "type": "event"
    },
    {
      "anonymous": false,
      "inputs": [
        {
          "indexed": false,
          "internalType": "uint256",
          "name": "_limit",
          "type": "uint256"
        },
        {
          "indexed": false,
          "internalType": "uint256",
          "name": "_periodDurationMonths",
          "type": "uint256"
        }
      ],
      "name": "LimitsParametersChanged",
      "type": "event"
    },
    {
      "anonymous": false,
      "inputs": [
        {
          "indexed": true,
          "internalType": "address",
          "name": "_recipient",
          "type": "address"
        },
        {
          "indexed": false,
          "internalType": "string",
          "name": "_title",
          "type": "string"
        }
      ],
      "name": "RecipientAdded",
      "type": "event"
    },
    {
      "anonymous": false,
      "inputs": [
        {
          "indexed": true,
          "internalType": "address",
          "name": "_recipient",
          "type": "address"
        }
      ],
      "name": "RecipientRemoved",
      "type": "event"
    },
    {
      "anonymous": false,
      "inputs": [
        {
          "indexed": true,
          "internalType": "bytes32",
          "name": "role",
          "type": "bytes32"
        },
        {
          "indexed": true,
          "internalType": "bytes32",
          "name": "previousAdminRole",
          "type": "bytes32"
        },
        {
          "indexed": true,
          "internalType": "bytes32",
          "name": "newAdminRole",
          "type": "bytes32"
        }
      ],
      "name": "RoleAdminChanged",
      "type": "event"
    },
    {
      "anonymous": false,
      "inputs": [
        {
          "indexed": true,
          "internalType": "bytes32",
          "name": "role",
          "type": "bytes32"
        },
        {
          "indexed": true,
          "internalType": "address",
          "name": "account",
          "type": "address"
        },
        {
          "indexed": true,
          "internalType": "address",
          "name": "sender",
          "type": "address"
        }
      ],
      "name": "RoleGranted",
      "type": "event"
    },
    {
      "anonymous": false,
      "inputs": [
        {
          "indexed": true,
          "internalType": "bytes32",
          "name": "role",
          "type": "bytes32"
        },
        {
          "indexed": true,
          "internalType": "address",
          "name": "account",
          "type": "address"
        },
        {
          "indexed": true,
          "internalType": "address",
          "name": "sender",
          "type": "address"
        }
      ],
      "name": "RoleRevoked",
      "type": "event"
    },
    {
      "anonymous": false,
      "inputs": [
        {
          "indexed": false,
          "internalType": "uint256",
          "name": "_alreadySpentAmount",
          "type": "uint256"
        },
        {
          "indexed": false,
          "internalType": "uint256",
          "name": "_spendableBalance",
          "type": "uint256"
        },
        {
          "indexed": true,
          "internalType": "uint256",
          "name": "_periodStartTimestamp",
          "type": "uint256"
        },
        {
          "indexed": false,
          "internalType": "uint256",
          "name": "_periodEndTimestamp",
          "type": "uint256"
        }
      ],
      "name": "SpendableAmountChanged",
      "type": "event"
    },
    {
      "inputs": [],
      "name": "ADD_RECIPIENT_TO_ALLOWED_LIST_ROLE",
      "outputs": [
        {
          "internalType": "bytes32",
          "name": "",
          "type": "bytes32"
        }
      ],
      "stateMutability": "view",
      "type": "function"
    },
    {
      "inputs": [],
      "name": "DEFAULT_ADMIN_ROLE",
      "outputs": [
        {
          "internalType": "bytes32",
          "name": "",
          "type": "bytes32"
        }
      ],
      "stateMutability": "view",
      "type": "function"
    },
    {
      "inputs": [],
      "name": "REMOVE_RECIPIENT_FROM_ALLOWED_LIST_ROLE",
      "outputs": [
        {
          "internalType": "bytes32",
          "name": "",
          "type": "bytes32"
        }
      ],
      "stateMutability": "view",
      "type": "function"
    },
    {
      "inputs": [],
      "name": "SET_LIMIT_PARAMETERS_ROLE",
      "outputs": [
        {
          "internalType": "bytes32",
          "name": "",
          "type": "bytes32"
        }
      ],
      "stateMutability": "view",
      "type": "function"
    },
    {
      "inputs": [],
      "name": "UPDATE_SPENT_AMOUNT_ROLE",
      "outputs": [
        {
          "internalType": "bytes32",
          "name": "",
          "type": "bytes32"
        }
      ],
      "stateMutability": "view",
      "type": "function"
    },
    {
      "inputs": [
        {
          "internalType": "address",
          "name": "_recipient",
          "type": "address"
        },
        {
          "internalType": "string",
          "name": "_title",
          "type": "string"
        }
      ],
      "name": "addRecipient",
      "outputs": [],
      "stateMutability": "nonpayable",
      "type": "function"
    },
    {
      "inputs": [
        {
          "internalType": "uint256",
          "name": "",
          "type": "uint256"
        }
      ],
      "name": "allowedRecipients",
      "outputs": [
        {
          "internalType": "address",
          "name": "",
          "type": "address"
        }
      ],
      "stateMutability": "view",
      "type": "function"
    },
    {
      "inputs": [],
      "name": "bokkyPooBahsDateTimeContract",
      "outputs": [
        {
          "internalType": "contract IBokkyPooBahsDateTimeContract",
          "name": "",
          "type": "address"
        }
      ],
      "stateMutability": "view",
      "type": "function"
    },
    {
      "inputs": [],
      "name": "getAllowedRecipients",
      "outputs": [
        {
          "internalType": "address[]",
          "name": "",
          "type": "address[]"
        }
      ],
      "stateMutability": "view",
      "type": "function"
    },
    {
      "inputs": [],
      "name": "getLimitParameters",
      "outputs": [
        {
          "internalType": "uint256",
          "name": "",
          "type": "uint256"
        },
        {
          "internalType": "uint256",
          "name": "",
          "type": "uint256"
        }
      ],
      "stateMutability": "view",
      "type": "function"
    },
    {
      "inputs": [],
      "name": "getPeriodState",
      "outputs": [
        {
          "internalType": "uint256",
          "name": "_alreadySpentAmount",
          "type": "uint256"
        },
        {
          "internalType": "uint256",
          "name": "_spendableBalanceInPeriod",
          "type": "uint256"
        },
        {
          "internalType": "uint256",
          "name": "_periodStartTimestamp",
          "type": "uint256"
        },
        {
          "internalType": "uint256",
          "name": "_periodEndTimestamp",
          "type": "uint256"
        }
      ],
      "stateMutability": "view",
      "type": "function"
    },
    {
      "inputs": [
        {
          "internalType": "bytes32",
          "name": "role",
          "type": "bytes32"
        }
      ],
      "name": "getRoleAdmin",
      "outputs": [
        {
          "internalType": "bytes32",
          "name": "",
          "type": "bytes32"
        }
      ],
      "stateMutability": "view",
      "type": "function"
    },
    {
      "inputs": [
        {
          "internalType": "bytes32",
          "name": "role",
          "type": "bytes32"
        },
        {
          "internalType": "address",
          "name": "account",
          "type": "address"
        }
      ],
      "name": "grantRole",
      "outputs": [],
      "stateMutability": "nonpayable",
      "type": "function"
    },
    {
      "inputs": [
        {
          "internalType": "bytes32",
          "name": "role",
          "type": "bytes32"
        },
        {
          "internalType": "address",
          "name": "account",
          "type": "address"
        }
      ],
      "name": "hasRole",
      "outputs": [
        {
          "internalType": "bool",
          "name": "",
          "type": "bool"
        }
      ],
      "stateMutability": "view",
      "type": "function"
    },
    {
      "inputs": [
        {
          "internalType": "address",
          "name": "_recipient",
          "type": "address"
        }
      ],
      "name": "isRecipientAllowed",
      "outputs": [
        {
          "internalType": "bool",
          "name": "",
          "type": "bool"
        }
      ],
      "stateMutability": "view",
      "type": "function"
    },
    {
      "inputs": [
        {
          "internalType": "uint256",
          "name": "_payoutAmount",
          "type": "uint256"
        },
        {
          "internalType": "uint256",
          "name": "_motionDuration",
          "type": "uint256"
        }
      ],
      "name": "isUnderSpendableBalance",
      "outputs": [
        {
          "internalType": "bool",
          "name": "",
          "type": "bool"
        }
      ],
      "stateMutability": "view",
      "type": "function"
    },
    {
      "inputs": [
        {
          "internalType": "address",
          "name": "_recipient",
          "type": "address"
        }
      ],
      "name": "removeRecipient",
      "outputs": [],
      "stateMutability": "nonpayable",
      "type": "function"
    },
    {
      "inputs": [
        {
          "internalType": "bytes32",
          "name": "role",
          "type": "bytes32"
        },
        {
          "internalType": "address",
          "name": "account",
          "type": "address"
        }
      ],
      "name": "renounceRole",
      "outputs": [],
      "stateMutability": "nonpayable",
      "type": "function"
    },
    {
      "inputs": [
        {
          "internalType": "bytes32",
          "name": "role",
          "type": "bytes32"
        },
        {
          "internalType": "address",
          "name": "account",
          "type": "address"
        }
      ],
      "name": "revokeRole",
      "outputs": [],
      "stateMutability": "nonpayable",
      "type": "function"
    },
    {
      "inputs": [
        {
          "internalType": "uint256",
          "name": "_limit",
          "type": "uint256"
        },
        {
          "internalType": "uint256",
          "name": "_periodDurationMonths",
          "type": "uint256"
        }
      ],
      "name": "setLimitParameters",
      "outputs": [],
      "stateMutability": "nonpayable",
      "type": "function"
    },
    {
      "inputs": [],
      "name": "spendableBalance",
      "outputs": [
        {
          "internalType": "uint256",
          "name": "",
          "type": "uint256"
        }
      ],
      "stateMutability": "view",
      "type": "function"
    },
    {
      "inputs": [
        {
          "internalType": "bytes4",
          "name": "interfaceId",
          "type": "bytes4"
        }
      ],
      "name": "supportsInterface",
      "outputs": [
        {
          "internalType": "bool",
          "name": "",
          "type": "bool"
        }
      ],
      "stateMutability": "view",
      "type": "function"
    },
    {
      "inputs": [
        {
          "internalType": "uint256",
          "name": "_payoutAmount",
          "type": "uint256"
        }
      ],
      "name": "updateSpentAmount",
      "outputs": [],
      "stateMutability": "nonpayable",
      "type": "function"
    }
  ],
  "bytecode": {
    "object": "0x60a06040523480156200001157600080fd5b5060405162001c5238038062001c5283398101604081905262000034916200036b565b82828260005b8351811015620000a757620000927f389c107d46e44659ea9e3d38a2e43f5414bdd0fd8244fa558561536ea90c2ece8583815181106200007e576200007e62000473565b6020026020010151620001eb60201b60201c565b806200009e8162000449565b9150506200003a565b5060005b82518110156200010457620000ef7fc5260260446719a726d11a6faece21d19daa48b4cbcca118345832d4cb71df998483815181106200007e576200007e62000473565b80620000fb8162000449565b915050620000ab565b5060601b6001600160601b03191660805250620001259050600087620001eb565b60005b855181101562000181576200016c7fec20c52871c824e5437859e75ac830e83aaaaeb7b0ffd850de830ddd3e3852768783815181106200007e576200007e62000473565b80620001788162000449565b91505062000128565b5060005b8451811015620001de57620001c97f491d7752c25cfca0f73715cde1130022a9b815373f91a996bbb1ba8943efc99b8683815181106200007e576200007e62000473565b80620001d58162000449565b91505062000185565b505050505050506200049f565b620001f78282620001fb565b5050565b6000828152602081815260408083206001600160a01b038516845290915290205460ff16620001f7576000828152602081815260408083206001600160a01b03851684529091529020805460ff19166001179055620002573390565b6001600160a01b0316816001600160a01b0316837f2f8788117e7eff1d82e926ec794901d17c78024a50270940304540a733656f0d60405160405180910390a45050565b80516001600160a01b0381168114620002b357600080fd5b919050565b600082601f830112620002ca57600080fd5b815160206001600160401b0380831115620002e957620002e962000489565b8260051b604051601f19603f8301168101818110848211171562000311576200031162000489565b604052848152838101925086840182880185018910156200033157600080fd5b600092505b858310156200035f576200034a816200029b565b84529284019260019290920191840162000336565b50979650505050505050565b60008060008060008060c087890312156200038557600080fd5b62000390876200029b565b60208801519096506001600160401b0380821115620003ae57600080fd5b620003bc8a838b01620002b8565b96506040890151915080821115620003d357600080fd5b620003e18a838b01620002b8565b95506060890151915080821115620003f857600080fd5b620004068a838b01620002b8565b945060808901519150808211156200041d57600080fd5b506200042c89828a01620002b8565b9250506200043d60a088016200029b565b90509295509295509295565b60006000198214156200046c57634e487b7160e01b600052601160045260246000fd5b5060010190565b634e487b7160e01b600052603260045260246000fd5b634e487b7160e01b600052604160045260246000fd5b60805160601c61177f620004d36000396000818161028d01528181610edb01528181610f64015261104c015261177f6000f3fe608060405234801561001057600080fd5b506004361061014d5760003560e01c8063739b5384116100c3578063b124e88e1161007c578063b124e88e14610334578063b361cf5814610347578063c0f7e5481461036e578063d547741f14610383578063e759b06c14610396578063ee72782d146103c457600080fd5b8063739b5384146102755780637ef7a462146102885780638400c307146102c757806391d14854146102f25780639213680614610305578063a217fddf1461032c57600080fd5b80632f2ff15d116101155780632f2ff15d146101ef57806336568abe146102025780633e0bde6714610215578063435bd804146102285780634ba578ab1461024f578063666712291461026257600080fd5b806301ffc9a71461015257806312a291981461017a578063236fedce1461018f578063248a9ca3146101c45780632a9a872a146101e7575b600080fd5b610165610160366004611468565b6103ec565b60405190151581526020015b60405180910390f35b61018d610188366004611346565b610423565b005b6101b67f389c107d46e44659ea9e3d38a2e43f5414bdd0fd8244fa558561536ea90c2ece81565b604051908152602001610171565b6101b66101d2366004611423565b60009081526020819052604090206001015490565b6101b6610587565b61018d6101fd36600461143c565b6105af565b61018d61021036600461143c565b6105da565b61018d6102233660046114ab565b61065d565b6101b67fc5260260446719a726d11a6faece21d19daa48b4cbcca118345832d4cb71df9981565b61016561025d3660046114ab565b6107fa565b61018d610270366004611423565b61085e565b61018d610283366004611361565b610a0e565b6102af7f000000000000000000000000000000000000000000000000000000000000000081565b6040516001600160a01b039091168152602001610171565b6101656102d5366004611346565b6001600160a01b0316600090815260046020526040902054151590565b61016561030036600461143c565b610b33565b6101b67fec20c52871c824e5437859e75ac830e83aaaaeb7b0ffd850de830ddd3e38527681565b6101b6600081565b6102af610342366004611423565b610b5c565b6101b67f491d7752c25cfca0f73715cde1130022a9b815373f91a996bbb1ba8943efc99b81565b610376610b86565b6040516101719190611570565b61018d61039136600461143c565b610be8565b600254600154604080516001600160801b03909316835267ffffffffffffffff909116602083015201610171565b6103cc610c0e565b604080519485526020850193909352918301526060820152608001610171565b60006001600160e01b03198216637965db0b60e01b148061041d57506301ffc9a760e01b6001600160e01b03198316145b92915050565b7f491d7752c25cfca0f73715cde1130022a9b815373f91a996bbb1ba8943efc99b61044e8133610c53565b600061045983610cb7565b60035490915060009061046e90600190611649565b905080821461050a5760006003828154811061048c5761048c6116d3565b600091825260209091200154600380546001600160a01b0390921692508291859081106104bb576104bb6116d3565b600091825260209091200180546001600160a01b0319166001600160a01b03929092169190911790556104ef8360016115f0565b6001600160a01b039091166000908152600460205260409020555b600380548061051b5761051b6116bd565b60008281526020808220830160001990810180546001600160a01b03191690559092019092556001600160a01b038616808352600490915260408083208390555190917f8176fc5412eb5076fee7f1a264915b808c24d495c2698c189030e5200e707d2591a250505050565b6002546000906105aa906001600160801b0380821691600160801b900416610d28565b905090565b6000828152602081905260409020600101546105cb8133610c53565b6105d58383610d3b565b505050565b6001600160a01b038116331461064f5760405162461bcd60e51b815260206004820152602f60248201527f416363657373436f6e74726f6c3a2063616e206f6e6c792072656e6f756e636560448201526e103937b632b9903337b91039b2b63360891b60648201526084015b60405180910390fd5b6106598282610dbf565b5050565b7f389c107d46e44659ea9e3d38a2e43f5414bdd0fd8244fa558561536ea90c2ece6106888133610c53565b60408051808201909152600f81526e1513d3d7d3105491d157d312535255608a1b60208201526001600160801b038411156106d65760405162461bcd60e51b815260040161064691906115bd565b506106e082610e24565b6001805467ffffffffffffffff191667ffffffffffffffff8416179055600061070842610ea2565b905061071d610718600183611649565b610f5d565b6040517f01e1441ccf0c1da6f26a624ad4c5c20c52ccc3c56ecad9f154ec6af11122ea5190600090a260018054600160401b600160c01b031916600160401b6001600160801b038481169190910291909117909155600280546fffffffffffffffffffffffffffffffff19168683161790819055600160801b9004168410156107bb57600280546001600160801b03808716600160801b0291161790555b60408051858152602081018590527f673d7870f9aef68143dc0ba3aa39a6b503258aecfcb7493060c477921da3b842910160405180910390a150505050565b600154600090600160401b90046001600160801b031661081a83426115f0565b1061083457506002546001600160801b031682111561041d565b600254610854906001600160801b0380821691600160801b900416610d28565b9092111592915050565b7fc5260260446719a726d11a6faece21d19daa48b4cbcca118345832d4cb71df996108898133610c53565b6002546001546001600160801b03600160801b8304811692811691600160401b90041642811161091e576108bc42610ea2565b6000935090506108d0610718600183611649565b6040517f01e1441ccf0c1da6f26a624ad4c5c20c52ccc3c56ecad9f154ec6af11122ea5190600090a260018054600160401b600160c01b031916600160401b6001600160801b038416021790555b6109288284610d28565b8511156040518060400160405280601d81526020017f53554d5f455843454544535f5350454e4441424c455f42414c414e43450000008152509061097f5760405162461bcd60e51b815260040161064691906115bd565b5061098a85846115f0565b600280546001600160801b03808416600160801b029116179055925060008080806109b68688876110d9565b60408051858152602081018590529081018290529397509195509350915082907fc7b603a3095aa2949aabc1b803b13eec3e3f35b9e735f6700576e5349d454b509060600160405180910390a2505050505050505050565b7fec20c52871c824e5437859e75ac830e83aaaaeb7b0ffd850de830ddd3e385276610a398133610c53565b60046000846001600160a01b03166001600160a01b03168152602001908152602001600020546000146040518060600160405280602781526020016117236027913990610a995760405162461bcd60e51b815260040161064691906115bd565b50600380546001810182557fc2575a0e9e593c00f959f8c92f12db2869c3395a3b0502d05e2516446f71f85b0180546001600160a01b0319166001600160a01b03861690811790915590546000828152600460205260409081902091909155517f0dfdc032c38a6ca7df610430533dc59c9fe39b380b7f88db3f5f0e3ae8502ec190610b269085906115bd565b60405180910390a2505050565b6000918252602082815260408084206001600160a01b0393909316845291905290205460ff1690565b60038181548110610b6c57600080fd5b6000918252602090912001546001600160a01b0316905081565b60606003805480602002602001604051908101604052809291908181526020018280548015610bde57602002820191906000526020600020905b81546001600160a01b03168152600190910190602001808311610bc0575b5050505050905090565b600082815260208190526040902060010154610c048133610c53565b6105d58383610dbf565b600254600154600091829182918291610c45916001600160801b0380821692600160801b909204811691600160401b9004166110d9565b935093509350935090919293565b610c5d8282610b33565b61065957610c75816001600160a01b03166014611107565b610c80836020611107565b604051602001610c919291906114fb565b60408051601f198184030181529082905262461bcd60e51b8252610646916004016115bd565b600060046000836001600160a01b03166001600160a01b03168152602001908152602001600020549050600081116040518060600160405280602381526020016117006023913990610d1c5760405162461bcd60e51b815260040161064691906115bd565b5061041d600182611649565b6000610d348284611649565b9392505050565b610d458282610b33565b610659576000828152602081815260408083206001600160a01b03851684529091529020805460ff19166001179055610d7b3390565b6001600160a01b0316816001600160a01b0316837f2f8788117e7eff1d82e926ec794901d17c78024a50270940304540a733656f0d60405160405180910390a45050565b610dc98282610b33565b15610659576000828152602081815260408083206001600160a01b0385168085529252808320805460ff1916905551339285917ff6391f5c32d9c69d2a47ea670b442974b53935d1edc7fd64eb21e047a839171b9190a45050565b8060011480610e335750806002145b80610e3e5750806003145b80610e495750806006145b80610e54575080600c145b6040518060400160405280601781526020017624a72b20a624a22fa822a924a7a22fa22aa920aa24a7a760491b815250906106595760405162461bcd60e51b815260040161064691906115bd565b600080610eae83610f5d565b600154604051634355644d60e01b81526004810183905267ffffffffffffffff90911660248201529091507f00000000000000000000000000000000000000000000000000000000000000006001600160a01b031690634355644d9060440160206040518083038186803b158015610f2557600080fd5b505afa158015610f39573d6000803e3d6000fd5b505050506040513d601f19601f82011682018060405250810190610d349190611492565b60008060007f00000000000000000000000000000000000000000000000000000000000000006001600160a01b031663de5101af856040518263ffffffff1660e01b8152600401610fb091815260200190565b60606040518083038186803b158015610fc857600080fd5b505afa158015610fdc573d6000803e3d6000fd5b505050506040513d601f19601f8201168201806040525081019061100091906114cd565b506001549193509150829060009061102390849067ffffffffffffffff166112a3565b604051630fa7bbd960e11b815260048101849052602481018290526001604482018190529192507f00000000000000000000000000000000000000000000000000000000000000006001600160a01b031690631f4f77b29060640160206040518083038186803b15801561109657600080fd5b505afa1580156110aa573d6000803e3d6000fd5b505050506040513d601f19601f820116820180604052508101906110ce9190611492565b979650505050505050565b600080600080856110ea8888610d28565b6110f8610718600189611649565b91999098509096509350505050565b6060600061111683600261162a565b6111219060026115f0565b67ffffffffffffffff811115611139576111396116e9565b6040519080825280601f01601f191660200182016040528015611163576020820181803683370190505b509050600360fc1b8160008151811061117e5761117e6116d3565b60200101906001600160f81b031916908160001a905350600f60fb1b816001815181106111ad576111ad6116d3565b60200101906001600160f81b031916908160001a90535060006111d184600261162a565b6111dc9060016115f0565b90505b6001811115611254576f181899199a1a9b1b9c1cb0b131b232b360811b85600f1660108110611210576112106116d3565b1a60f81b828281518110611226576112266116d3565b60200101906001600160f81b031916908160001a90535060049490941c9361124d81611690565b90506111df565b508315610d345760405162461bcd60e51b815260206004820181905260248201527f537472696e67733a20686578206c656e67746820696e73756666696369656e746044820152606401610646565b60408051808201909152601781527624a72b20a624a22fa822a924a7a22fa22aa920aa24a7a760491b6020820152600090826112f25760405162461bcd60e51b815260040161064691906115bd565b50600082611301600186611649565b61130b9190611608565b9050611317838261162a565b6113229060016115f0565b949350505050565b80356001600160a01b038116811461134157600080fd5b919050565b60006020828403121561135857600080fd5b610d348261132a565b6000806040838503121561137457600080fd5b61137d8361132a565b9150602083013567ffffffffffffffff8082111561139a57600080fd5b818501915085601f8301126113ae57600080fd5b8135818111156113c0576113c06116e9565b604051601f8201601f19908116603f011681019083821181831017156113e8576113e86116e9565b8160405282815288602084870101111561140157600080fd5b8260208601602083013760006020848301015280955050505050509250929050565b60006020828403121561143557600080fd5b5035919050565b6000806040838503121561144f57600080fd5b8235915061145f6020840161132a565b90509250929050565b60006020828403121561147a57600080fd5b81356001600160e01b031981168114610d3457600080fd5b6000602082840312156114a457600080fd5b5051919050565b600080604083850312156114be57600080fd5b50508035926020909101359150565b6000806000606084860312156114e257600080fd5b8351925060208401519150604084015190509250925092565b7f416363657373436f6e74726f6c3a206163636f756e7420000000000000000000815260008351611533816017850160208801611660565b7001034b99036b4b9b9b4b733903937b6329607d1b6017918401918201528351611564816028840160208801611660565b01602801949350505050565b6020808252825182820181905260009190848201906040850190845b818110156115b15783516001600160a01b03168352928401929184019160010161158c565b50909695505050505050565b60208152600082518060208401526115dc816040850160208701611660565b601f01601f19169190910160400192915050565b60008219821115611603576116036116a7565b500190565b60008261162557634e487b7160e01b600052601260045260246000fd5b500490565b6000816000190483118215151615611644576116446116a7565b500290565b60008282101561165b5761165b6116a7565b500390565b60005b8381101561167b578181015183820152602001611663565b8381111561168a576000848401525b50505050565b60008161169f5761169f6116a7565b506000190190565b634e487b7160e01b600052601160045260246000fd5b634e487b7160e01b600052603160045260246000fd5b634e487b7160e01b600052603260045260246000fd5b634e487b7160e01b600052604160045260246000fdfe524543495049454e545f4e4f545f464f554e445f494e5f414c4c4f5745445f4c495354524543495049454e545f414c52454144595f41444445445f544f5f414c4c4f5745445f4c495354a2646970667358221220ecc2020192491bf2ddc18610fb4b9b7912be3c7e954d484e8557bd560406662b64736f6c63430008060033",
    "linkReferences": {}
  },
  "methodIdentifiers": {
    "ADD_RECIPIENT_TO_ALLOWED_LIST_ROLE()": "92136806",
    "DEFAULT_ADMIN_ROLE()": "a217fddf",
    "REMOVE_RECIPIENT_FROM_ALLOWED_LIST_ROLE()": "b361cf58",
    "SET_LIMIT_PARAMETERS_ROLE()": "236fedce",
    "UPDATE_SPENT_AMOUNT_ROLE()": "435bd804",
    "addRecipient(address,string)": "739b5384",
    "allowedRecipients(uint256)": "b124e88e",
    "bokkyPooBahsDateTimeContract()": "7ef7a462",
    "getAllowedRecipients()": "c0f7e548",
    "getLimitParameters()": "e759b06c",
    "getPeriodState()": "ee72782d",
    "getRoleAdmin(bytes32)": "248a9ca3",
    "grantRole(bytes32,address)": "2f2ff15d",
    "hasRole(bytes32,address)": "91d14854",
    "isRecipientAllowed(address)": "8400c307",
    "isUnderSpendableBalance(uint256,uint256)": "4ba578ab",
    "removeRecipient(address)": "12a29198",
    "renounceRole(bytes32,address)": "36568abe",
    "revokeRole(bytes32,address)": "d547741f",
    "setLimitParameters(uint256,uint256)": "3e0bde67",
    "spendableBalance()": "2a9a872a",
    "supportsInterface(bytes4)": "01ffc9a7",
    "updateSpentAmount(uint256)": "66671229"
  },
  "storageLayout": {
    "storage": [
      {
        "astId": 5177,
        "contract": "contracts/AllowedRecipientsRegistry.sol:AllowedRecipientsRegistry",
        "label": "_roles",
        "offset": 0,
        "slot": "0",
        "type": "t_mapping(t_bytes32,t_struct(RoleData)5172_storage)"
      },
      {
        "astId": 3130,
        "contract": "contracts/AllowedRecipientsRegistry.sol:AllowedRecipientsRegistry",
        "label": "periodDurationMonths",
        "offset": 0,
        "slot": "1",
        "type": "t_uint64"
      },
      {
        "astId": 3133,
        "contract": "contracts/AllowedRecipientsRegistry.sol:AllowedRecipientsRegistry",
        "label": "currentPeriodEndTimestamp",
        "offset": 8,
        "slot": "1",
        "type": "t_uint128"
      },
      {
        "astId": 3136,
        "contract": "contracts/AllowedRecipientsRegistry.sol:AllowedRecipientsRegistry",
        "label": "limit",
        "offset": 0,
        "slot": "2",
        "type": "t_uint128"
      },
      {
        "astId": 3139,
        "contract": "contracts/AllowedRecipientsRegistry.sol:AllowedRecipientsRegistry",
        "label": "spentAmount",
        "offset": 16,
        "slot": "2",
        "type": "t_uint128"
      },
      {
        "astId": 35,
        "contract": "contracts/AllowedRecipientsRegistry.sol:AllowedRecipientsRegistry",
        "label": "allowedRecipients",
        "offset": 0,
        "slot": "3",
        "type": "t_array(t_address)dyn_storage"
      },
      {
        "astId": 39,
        "contract": "contracts/AllowedRecipientsRegistry.sol:AllowedRecipientsRegistry",
        "label": "allowedRecipientIndices",
        "offset": 0,
        "slot": "4",
        "type": "t_mapping(t_address,t_uint256)"
      }
    ],
    "types": {
      "t_address": {
        "encoding": "inplace",
        "label": "address",
        "numberOfBytes": "20"
      },
      "t_array(t_address)dyn_storage": {
        "encoding": "dynamic_array",
        "label": "address[]",
        "numberOfBytes": "32",
        "base": "t_address"
      },
      "t_bool": {
        "encoding": "inplace",
        "label": "bool",
        "numberOfBytes": "1"
      },
      "t_bytes32": {
        "encoding": "inplace",
        "label": "bytes32",
        "numberOfBytes": "32"
      },
      "t_mapping(t_address,t_bool)": {
        "encoding": "mapping",
        "key": "t_address",
        "label": "mapping(address => bool)",
        "numberOfBytes": "32",
        "value": "t_bool"
      },
      "t_mapping(t_address,t_uint256)": {
        "encoding": "mapping",
        "key": "t_address",
        "label": "mapping(address => uint256)",
        "numberOfBytes": "32",
        "value": "t_uint256"
      },
      "t_mapping(t_bytes32,t_struct(RoleData)5172_storage)": {
        "encoding": "mapping",
        "key": "t_bytes32",
        "label": "mapping(bytes32 => struct AccessControl.RoleData)",
        "numberOfBytes": "32",
        "value": "t_struct(RoleData)5172_storage"
      },
      "t_struct(RoleData)5172_storage": {
        "encoding": "inplace",
        "label": "struct AccessControl.RoleData",
        "numberOfBytes": "64",
        "members": [
          {
            "astId": 5169,
            "contract": "contracts/AllowedRecipientsRegistry.sol:AllowedRecipientsRegistry",
            "label": "members",
            "offset": 0,
            "slot": "0",
            "type": "t_mapping(t_address,t_bool)"
          },
          {
            "astId": 5171,
            "contract": "contracts/AllowedRecipientsRegistry.sol:AllowedRecipientsRegistry",
            "label": "adminRole",
            "offset": 0,
            "slot": "1",
            "type": "t_bytes32"
          }
        ]
      },
      "t_uint128": {
        "encoding": "inplace",
        "label": "uint128",
        "numberOfBytes": "16"
      },
      "t_uint256": {
        "encoding": "inplace",
        "label": "uint256",
        "numberOfBytes": "32"
      },
      "t_uint64": {
        "encoding": "inplace",
        "label": "uint64",
        "numberOfBytes": "8"
      }
    }
  },
  "id": 0
}