{
  "abi": [
    {
      "inputs": [
        {
          "internalType": "address",
          "name": "_trustedCaller",
          "type": "address"
        },
        {
          "internalType": "address",
          "name": "_rewardProgramsRegistry",
          "type": "address"
        },
        {
          "internalType": "address",
          "name": "_finance",
          "type": "address"
        },
        {
          "internalType": "address",
          "name": "_rewardToken",
          "type": "address"
        }
      ],
      "stateMutability": "nonpayable",
      "type": "constructor"
    },
    {
      "inputs": [
        {
          "internalType": "address",
          "name": "_creator",
          "type": "address"
        },
        {
          "internalType": "bytes",
          "name": "_evmScriptCallData",
          "type": "bytes"
        }
      ],
      "name": "createEVMScript",
      "outputs": [
        {
          "internalType": "bytes",
          "name": "",
          "type": "bytes"
        }
      ],
      "stateMutability": "view",
      "type": "function"
    },
    {
      "inputs": [
        {
          "internalType": "bytes",
          "name": "_evmScriptCallData",
          "type": "bytes"
        }
      ],
      "name": "decodeEVMScriptCallData",
      "outputs": [
        {
          "internalType": "address[]",
          "name": "_rewardPrograms",
          "type": "address[]"
        },
        {
          "internalType": "uint256[]",
          "name": "_amounts",
          "type": "uint256[]"
        }
      ],
      "stateMutability": "pure",
      "type": "function"
    },
    {
      "inputs": [],
      "name": "finance",
      "outputs": [
        {
          "internalType": "contract IFinance",
          "name": "",
          "type": "address"
        }
      ],
      "stateMutability": "view",
      "type": "function"
    },
    {
      "inputs": [],
      "name": "rewardProgramsRegistry",
      "outputs": [
        {
          "internalType": "contract RewardProgramsRegistry",
          "name": "",
          "type": "address"
        }
      ],
      "stateMutability": "view",
      "type": "function"
    },
    {
      "inputs": [],
      "name": "rewardToken",
      "outputs": [
        {
          "internalType": "address",
          "name": "",
          "type": "address"
        }
      ],
      "stateMutability": "view",
      "type": "function"
    },
    {
      "inputs": [],
      "name": "trustedCaller",
      "outputs": [
        {
          "internalType": "address",
          "name": "",
          "type": "address"
        }
      ],
      "stateMutability": "view",
      "type": "function"
    }
  ],
  "bytecode": {
    "object": "0x61010060405234801561001157600080fd5b5060405162000dc638038062000dc6833981016040819052610032916100e6565b60408051808201909152601e81527f545255535445445f43414c4c45525f49535f5a45524f5f414444524553530000602082015284906001600160a01b0382166100985760405162461bcd60e51b815260040161008f919061013a565b60405180910390fd5b506001600160601b0319606091821b811660805292811b831660a05290811b821660c0529190911b1660e0525061018f565b80516001600160a01b03811681146100e157600080fd5b919050565b600080600080608085870312156100fc57600080fd5b610105856100ca565b9350610113602086016100ca565b9250610121604086016100ca565b915061012f606086016100ca565b905092959194509250565b600060208083528351808285015260005b818110156101675785810183015185820160400152820161014b565b81811115610179576000604083870101525b50601f01601f1916929092016040019392505050565b60805160601c60a05160601c60c05160601c60e05160601c610bd8620001ee6000396000818160d701526104c001526000818161011f015261027c01526000818160b00152610370015260008181606c015261017b0152610bd86000f3fe608060405234801561001057600080fd5b50600436106100625760003560e01c8063268f076014610067578063313b7b19146100ab5780633f052ae9146100d2578063ecf7c690146100f9578063f7c618c11461011a578063fea21c9c14610141575b600080fd5b61008e7f000000000000000000000000000000000000000000000000000000000000000081565b6040516001600160a01b0390911681526020015b60405180910390f35b61008e7f000000000000000000000000000000000000000000000000000000000000000081565b61008e7f000000000000000000000000000000000000000000000000000000000000000081565b61010c6101073660046108de565b610161565b6040516100a29291906109ff565b61008e7f000000000000000000000000000000000000000000000000000000000000000081565b61015461014f3660046107a3565b610176565b6040516100a29190610a76565b60608061016d836103a8565b91509150915091565b6060827f00000000000000000000000000000000000000000000000000000000000000006001600160a01b0316816001600160a01b0316146040518060400160405280601381526020017221a0a62622a92fa4a9afa327a92124a22222a760691b815250906102015760405162461bcd60e51b81526004016101f89190610a76565b60405180910390fd5b5060008061020e856103a8565b9150915061021c82826103bf565b6000825167ffffffffffffffff81111561023857610238610b74565b60405190808252806020026020018201604052801561026b57816020015b60608152602001906001900390816102565790505b50905060005b835181101561036a577f00000000000000000000000000000000000000000000000000000000000000008482815181106102ad576102ad610b5e565b60200260200101518483815181106102c7576102c7610b5e565b602002602001015160405160200161032d939291906001600160a01b03938416815291909216602082015260408101919091526080606082018190526015908201527405265776172642070726f6772616d20746f7020757605c1b60a082015260c00190565b60405160208183030381529060405282828151811061034e5761034e610b5e565b60200260200101819052508061036390610b2d565b9050610271565b5061039d7f0000000000000000000000000000000000000000000000000000000000000000637b1b242360e11b836105ec565b979650505050505050565b6060808280602001905181019061016d91906107f3565b80518251146040518060400160405280600f81526020016e0988a9c8ea890be9a92a69a82a8869608b1b8152509061040a5760405162461bcd60e51b81526004016101f89190610a76565b5060008251116040518060400160405280600a815260200169454d5054595f4441544160b01b815250906104515760405162461bcd60e51b81526004016101f89190610a76565b5060005b82518110156105e757600082828151811061047257610472610b5e565b6020026020010151116040518060400160405280600b81526020016a16915493d7d05353d5539560aa1b815250906104bd5760405162461bcd60e51b81526004016101f89190610a76565b507f00000000000000000000000000000000000000000000000000000000000000006001600160a01b0316639525581c8483815181106104ff576104ff610b5e565b60200260200101516040518263ffffffff1660e01b815260040161053291906001600160a01b0391909116815260200190565b60206040518083038186803b15801561054a57600080fd5b505afa15801561055e573d6000803e3d6000fd5b505050506040513d601f19601f8201168201806040525081019061058291906108b5565b6040518060400160405280601a81526020017f5245574152445f50524f4752414d5f4e4f545f414c4c4f574544000000000000815250906105d65760405162461bcd60e51b81526004016101f89190610a76565b506105e081610b2d565b9050610455565b505050565b606060005b825181101561069157818584838151811061060e5761060e610b5e565b60200260200101515160046106239190610ade565b8686858151811061063657610636610b5e565b60200260200101516040516020016106519493929190610947565b60408051601f198184030181529082905261066f92916020016109d0565b60405160208183030381529060405291508061068a90610b2d565b90506105f1565b50600160e01b816040516020016106a992919061099f565b60405160208183030381529060405290509392505050565b600082601f8301126106d257600080fd5b815160206106e76106e283610aba565b610a89565b80838252828201915082860187848660051b890101111561070757600080fd5b60005b858110156107265781518452928401929084019060010161070a565b5090979650505050505050565b600082601f83011261074457600080fd5b813567ffffffffffffffff81111561075e5761075e610b74565b610771601f8201601f1916602001610a89565b81815284602083860101111561078657600080fd5b816020850160208301376000918101602001919091529392505050565b600080604083850312156107b657600080fd5b82356107c181610b8a565b9150602083013567ffffffffffffffff8111156107dd57600080fd5b6107e985828601610733565b9150509250929050565b6000806040838503121561080657600080fd5b825167ffffffffffffffff8082111561081e57600080fd5b818501915085601f83011261083257600080fd5b815160206108426106e283610aba565b8083825282820191508286018a848660051b890101111561086257600080fd5b600096505b8487101561088e57805161087a81610b8a565b835260019690960195918301918301610867565b50918801519196509093505050808211156108a857600080fd5b506107e9858286016106c1565b6000602082840312156108c757600080fd5b815180151581146108d757600080fd5b9392505050565b6000602082840312156108f057600080fd5b813567ffffffffffffffff81111561090757600080fd5b61091384828501610733565b949350505050565b60008151808452610933816020860160208601610afd565b601f01601f19169290920160200192915050565b6bffffffffffffffffffffffff19606086901b1681526001600160e01b031960e085901b8116601483015283166018820152815160009061098f81601c850160208701610afd565b91909101601c0195945050505050565b6001600160e01b03198316815281516000906109c2816004850160208701610afd565b919091016004019392505050565b600083516109e2818460208801610afd565b8351908301906109f6818360208801610afd565b01949350505050565b604080825283519082018190526000906020906060840190828701845b82811015610a415781516001600160a01b031684529284019290840190600101610a1c565b5050508381038285015284518082528583019183019060005b8181101561072657835183529284019291840191600101610a5a565b6020815260006108d7602083018461091b565b604051601f8201601f1916810167ffffffffffffffff81118282101715610ab257610ab2610b74565b604052919050565b600067ffffffffffffffff821115610ad457610ad4610b74565b5060051b60200190565b600063ffffffff8083168185168083038211156109f6576109f6610b48565b60005b83811015610b18578181015183820152602001610b00565b83811115610b27576000848401525b50505050565b6000600019821415610b4157610b41610b48565b5060010190565b634e487b7160e01b600052601160045260246000fd5b634e487b7160e01b600052603260045260246000fd5b634e487b7160e01b600052604160045260246000fd5b6001600160a01b0381168114610b9f57600080fd5b5056fea2646970667358221220d17a10a698a22872f16fa473acc618d20e9997296993f1d67dab47edfa36a12264736f6c63430008060033",
    "linkReferences": {}
  },
  "methodIdentifiers": {
    "createEVMScript(address,bytes)": "fea21c9c",
    "decodeEVMScriptCallData(bytes)": "ecf7c690",
    "finance()": "313b7b19",
    "rewardProgramsRegistry()": "3f052ae9",
    "rewardToken()": "f7c618c1",
    "trustedCaller()": "268f0760"
  },
  "storageLayout": {
    "storage": [],
    "types": {}
  },
  "id": 9
}