{
  "abi": [
    {
      "inputs": [
        {
          "internalType": "address",
          "name": "_trustedCaller",
          "type": "address"
        },
        {
          "internalType": "contract IFinance",
          "name": "_finance",
          "type": "address"
        },
        {
          "internalType": "address",
          "name": "_legoProgram",
          "type": "address"
        }
      ],
      "stateMutability": "nonpayable",
      "type": "constructor"
    },
    {
      "inputs": [
        {
          "internalType": "address",
          "name": "_creator",
          "type": "address"
        },
        {
          "internalType": "bytes",
          "name": "_evmScriptCallData",
          "type": "bytes"
        }
      ],
      "name": "createEVMScript",
      "outputs": [
        {
          "internalType": "bytes",
          "name": "",
          "type": "bytes"
        }
      ],
      "stateMutability": "view",
      "type": "function"
    },
    {
      "inputs": [
        {
          "internalType": "bytes",
          "name": "_evmScriptCallData",
          "type": "bytes"
        }
      ],
      "name": "decodeEVMScriptCallData",
      "outputs": [
        {
          "internalType": "address[]",
          "name": "_rewardTokens",
          "type": "address[]"
        },
        {
          "internalType": "uint256[]",
          "name": "_amounts",
          "type": "uint256[]"
        }
      ],
      "stateMutability": "pure",
      "type": "function"
    },
    {
      "inputs": [],
      "name": "finance",
      "outputs": [
        {
          "internalType": "contract IFinance",
          "name": "",
          "type": "address"
        }
      ],
      "stateMutability": "view",
      "type": "function"
    },
    {
      "inputs": [],
      "name": "legoProgram",
      "outputs": [
        {
          "internalType": "address",
          "name": "",
          "type": "address"
        }
      ],
      "stateMutability": "view",
      "type": "function"
    },
    {
      "inputs": [],
      "name": "trustedCaller",
      "outputs": [
        {
          "internalType": "address",
          "name": "",
          "type": "address"
        }
      ],
      "stateMutability": "view",
      "type": "function"
    }
  ],
  "bytecode": {
    "object": "0x60e060405234801561001057600080fd5b50604051610c2b380380610c2b83398101604081905261002f916100bc565b60408051808201909152601e81527f545255535445445f43414c4c45525f49535f5a45524f5f414444524553530000602082015283906001600160a01b0382166100955760405162461bcd60e51b815260040161008c9190610109565b60405180910390fd5b506001600160601b0319606091821b811660805292811b831660a0521b1660c05250610176565b6000806000606084860312156100d157600080fd5b83516100dc8161015e565b60208501519093506100ed8161015e565b60408501519092506100fe8161015e565b809150509250925092565b600060208083528351808285015260005b818110156101365785810183015185820160400152820161011a565b81811115610148576000604083870101525b50601f01601f1916929092016040019392505050565b6001600160a01b038116811461017357600080fd5b50565b60805160601c60a05160601c60c05160601c610a6b6101c06000396000818160cc015261026401526000818160a5015261033e015260008181606101526101490152610a6b6000f3fe608060405234801561001057600080fd5b50600436106100575760003560e01c8063268f07601461005c578063313b7b19146100a057806342192d1a146100c7578063ecf7c690146100ee578063fea21c9c1461010f575b600080fd5b6100837f000000000000000000000000000000000000000000000000000000000000000081565b6040516001600160a01b0390911681526020015b60405180910390f35b6100837f000000000000000000000000000000000000000000000000000000000000000081565b6100837f000000000000000000000000000000000000000000000000000000000000000081565b6101016100fc36600461076a565b61012f565b60405161009792919061088b565b61012261011d366004610658565b610144565b6040516100979190610902565b60608061013b83610376565b91509150915091565b6060827f00000000000000000000000000000000000000000000000000000000000000006001600160a01b0316816001600160a01b0316146040518060400160405280601381526020017221a0a62622a92fa4a9afa327a92124a22222a760691b815250906101cf5760405162461bcd60e51b81526004016101c69190610902565b60405180910390fd5b506000806101dc85610376565b915091506101ea828261038d565b6000825167ffffffffffffffff81111561020657610206610a07565b60405190808252806020026020018201604052801561023957816020015b60608152602001906001900390816102245790505b50905060005b83518110156103385783818151811061025a5761025a6109f1565b60200260200101517f0000000000000000000000000000000000000000000000000000000000000000848381518110610295576102956109f1565b60200260200101516040516020016102fb939291906001600160a01b0393841681529190921660208201526040810191909152608060608201819052601590820152742632b3b790283937b3b930b6902a3930b739b332b960591b60a082015260c00190565b60405160208183030381529060405282828151811061031c5761031c6109f1565b602002602001018190525080610331906109c0565b905061023f565b5061036b7f0000000000000000000000000000000000000000000000000000000000000000637b1b242360e11b836104a1565b979650505050505050565b6060808280602001905181019061013b91906106a8565b80518251146040518060400160405280600f81526020016e0988a9c8ea890be9a92a69a82a8869608b1b815250906103d85760405162461bcd60e51b81526004016101c69190610902565b5060008251116040518060400160405280600a815260200169454d5054595f4441544160b01b8152509061041f5760405162461bcd60e51b81526004016101c69190610902565b5060005b825181101561049c576000828281518110610440576104406109f1565b6020026020010151116040518060400160405280600b81526020016a16915493d7d05353d5539560aa1b8152509061048b5760405162461bcd60e51b81526004016101c69190610902565b50610495816109c0565b9050610423565b505050565b606060005b82518110156105465781858483815181106104c3576104c36109f1565b60200260200101515160046104d89190610971565b868685815181106104eb576104eb6109f1565b602002602001015160405160200161050694939291906107d3565b60408051601f1981840301815290829052610524929160200161085c565b60405160208183030381529060405291508061053f906109c0565b90506104a6565b50600160e01b8160405160200161055e92919061082b565b60405160208183030381529060405290509392505050565b600082601f83011261058757600080fd5b8151602061059c6105978361094d565b61091c565b80838252828201915082860187848660051b89010111156105bc57600080fd5b60005b858110156105db578151845292840192908401906001016105bf565b5090979650505050505050565b600082601f8301126105f957600080fd5b813567ffffffffffffffff81111561061357610613610a07565b610626601f8201601f191660200161091c565b81815284602083860101111561063b57600080fd5b816020850160208301376000918101602001919091529392505050565b6000806040838503121561066b57600080fd5b823561067681610a1d565b9150602083013567ffffffffffffffff81111561069257600080fd5b61069e858286016105e8565b9150509250929050565b600080604083850312156106bb57600080fd5b825167ffffffffffffffff808211156106d357600080fd5b818501915085601f8301126106e757600080fd5b815160206106f76105978361094d565b8083825282820191508286018a848660051b890101111561071757600080fd5b600096505b8487101561074357805161072f81610a1d565b83526001969096019591830191830161071c565b509188015191965090935050508082111561075d57600080fd5b5061069e85828601610576565b60006020828403121561077c57600080fd5b813567ffffffffffffffff81111561079357600080fd5b61079f848285016105e8565b949350505050565b600081518084526107bf816020860160208601610990565b601f01601f19169290920160200192915050565b6bffffffffffffffffffffffff19606086901b1681526001600160e01b031960e085901b8116601483015283166018820152815160009061081b81601c850160208701610990565b91909101601c0195945050505050565b6001600160e01b031983168152815160009061084e816004850160208701610990565b919091016004019392505050565b6000835161086e818460208801610990565b835190830190610882818360208801610990565b01949350505050565b604080825283519082018190526000906020906060840190828701845b828110156108cd5781516001600160a01b0316845292840192908401906001016108a8565b5050508381038285015284518082528583019183019060005b818110156105db578351835292840192918401916001016108e6565b60208152600061091560208301846107a7565b9392505050565b604051601f8201601f1916810167ffffffffffffffff8111828210171561094557610945610a07565b604052919050565b600067ffffffffffffffff82111561096757610967610a07565b5060051b60200190565b600063ffffffff808316818516808303821115610882576108826109db565b60005b838110156109ab578181015183820152602001610993565b838111156109ba576000848401525b50505050565b60006000198214156109d4576109d46109db565b5060010190565b634e487b7160e01b600052601160045260246000fd5b634e487b7160e01b600052603260045260246000fd5b634e487b7160e01b600052604160045260246000fd5b6001600160a01b0381168114610a3257600080fd5b5056fea26469706673582212207d13cfed08a0956f1db674d54c6dda07871b2a3c912d502e15a8020bfebb914d64736f6c63430008060033",
    "linkReferences": {}
  },
  "methodIdentifiers": {
    "createEVMScript(address,bytes)": "fea21c9c",
    "decodeEVMScriptCallData(bytes)": "ecf7c690",
    "finance()": "313b7b19",
    "legoProgram()": "42192d1a",
    "trustedCaller()": "268f0760"
  },
  "storageLayout": {
    "storage": [],
    "types": {}
  },
  "id": 8
}