{
  "abi": [
    {
      "inputs": [
        {
          "internalType": "address",
          "name": "_trustedCaller",
          "type": "address"
        }
      ],
      "stateMutability": "nonpayable",
      "type": "constructor"
    },
    {
      "inputs": [],
      "name": "trustedCaller",
      "outputs": [
        {
          "internalType": "address",
          "name": "",
          "type": "address"
        }
      ],
      "stateMutability": "view",
      "type": "function"
    }
  ],
  "bytecode": {
    "object": "0x60a060405234801561001057600080fd5b506040516101ee3803806101ee83398101604081905261002f916100a9565b60408051808201909152601e81527f545255535445445f43414c4c45525f49535f5a45524f5f41444452455353000060208201526001600160a01b0382166100935760405162461bcd60e51b815260040161008a91906100d9565b60405180910390fd5b5060601b6001600160601b03191660805261012e565b6000602082840312156100bb57600080fd5b81516001600160a01b03811681146100d257600080fd5b9392505050565b600060208083528351808285015260005b81811015610106578581018301518582016040015282016100ea565b81811115610118576000604083870101525b50601f01601f1916929092016040019392505050565b60805160601c60a561014960003960006031015260a56000f3fe6080604052348015600f57600080fd5b506004361060285760003560e01c8063268f076014602d575b600080fd5b60537f000000000000000000000000000000000000000000000000000000000000000081565b6040516001600160a01b03909116815260200160405180910390f3fea2646970667358221220034c1b4fc45b20d417b5568133c9b7d971217a61ea524734950b6af86e48515d64736f6c63430008060033",
    "linkReferences": {}
  },
  "methodIdentifiers": {
    "trustedCaller()": "268f0760"
  },
  "storageLayout": {
    "storage": [],
    "types": {}
  },
  "id": 15
}