{
  "abi": [
    {
      "inputs": [],
      "name": "evmScript",
      "outputs": [
        {
          "internalType": "bytes",
          "name": "",
          "type": "bytes"
        }
      ],
      "stateMutability": "view",
      "type": "function"
    },
    {
      "inputs": [
        {
          "internalType": "bytes",
          "name": "_evmScript",
          "type": "bytes"
        }
      ],
      "name": "executeEVMScript",
      "outputs": [
        {
          "internalType": "bytes",
          "name": "",
          "type": "bytes"
        }
      ],
      "stateMutability": "nonpayable",
      "type": "function"
    }
  ],
  "bytecode": {
    "object": "0x608060405234801561001057600080fd5b50610336806100206000396000f3fe608060405234801561001057600080fd5b50600436106100365760003560e01c80634a27111d1461003b578063e6e48e2114610064575b600080fd5b61004e6100493660046101af565b61006c565b60405161005b9190610260565b60405180910390f35b61004e610088565b8051606090610082906000906020850190610116565b50919050565b60008054610095906102b5565b80601f01602080910402602001604051908101604052809291908181526020018280546100c1906102b5565b801561010e5780601f106100e35761010080835404028352916020019161010e565b820191906000526020600020905b8154815290600101906020018083116100f157829003601f168201915b505050505081565b828054610122906102b5565b90600052602060002090601f016020900481019282610144576000855561018a565b82601f1061015d57805160ff191683800117855561018a565b8280016001018555821561018a579182015b8281111561018a57825182559160200191906001019061016f565b5061019692915061019a565b5090565b5b80821115610196576000815560010161019b565b6000602082840312156101c157600080fd5b813567ffffffffffffffff808211156101d957600080fd5b818401915084601f8301126101ed57600080fd5b8135818111156101ff576101ff6102ea565b604051601f8201601f19908116603f01168101908382118183101715610227576102276102ea565b8160405282815287602084870101111561024057600080fd5b826020860160208301376000928101602001929092525095945050505050565b600060208083528351808285015260005b8181101561028d57858101830151858201604001528201610271565b8181111561029f576000604083870101525b50601f01601f1916929092016040019392505050565b600181811c908216806102c957607f821691505b6020821081141561008257634e487b7160e01b600052602260045260246000fd5b634e487b7160e01b600052604160045260246000fdfea2646970667358221220864296cd256a5c5faf6258af4dd922887de878f10ee37e2bafb588cb09cf189c64736f6c63430008060033",
    "linkReferences": {}
  },
  "methodIdentifiers": {
    "evmScript()": "e6e48e21",
    "executeEVMScript(bytes)": "4a27111d"
  },
  "storageLayout": {
    "storage": [
      {
        "astId": 4856,
        "contract": "contracts/test/EVMScriptExecutorStub.sol:EVMScriptExecutorStub",
        "label": "evmScript",
        "offset": 0,
        "slot": "0",
        "type": "t_bytes_storage"
      }
    ],
    "types": {
      "t_bytes_storage": {
        "encoding": "bytes",
        "label": "bytes",
        "numberOfBytes": "32"
      }
    }
  },
  "id": 25
}