{
  "abi": [
    {
      "inputs": [
        {
          "internalType": "bytes",
          "name": "data",
          "type": "bytes"
        },
        {
          "internalType": "uint256",
          "name": "location",
          "type": "uint256"
        }
      ],
      "name": "addressAt",
      "outputs": [
        {
          "internalType": "address",
          "name": "result",
          "type": "address"
        }
      ],
      "stateMutability": "pure",
      "type": "function"
    },
    {
      "inputs": [
        {
          "internalType": "bytes",
          "name": "data",
          "type": "bytes"
        },
        {
          "internalType": "uint256",
          "name": "location",
          "type": "uint256"
        }
      ],
      "name": "bytes24At",
      "outputs": [
        {
          "internalType": "bytes24",
          "name": "result",
          "type": "bytes24"
        }
      ],
      "stateMutability": "pure",
      "type": "function"
    },
    {
      "inputs": [
        {
          "internalType": "bytes",
          "name": "data",
          "type": "bytes"
        },
        {
          "internalType": "uint256",
          "name": "location",
          "type": "uint256"
        }
      ],
      "name": "uint256At",
      "outputs": [
        {
          "internalType": "uint256",
          "name": "result",
          "type": "uint256"
        }
      ],
      "stateMutability": "pure",
      "type": "function"
    },
    {
      "inputs": [
        {
          "internalType": "bytes",
          "name": "_data",
          "type": "bytes"
        },
        {
          "internalType": "uint256",
          "name": "_location",
          "type": "uint256"
        }
      ],
      "name": "uint32At",
      "outputs": [
        {
          "internalType": "uint32",
          "name": "result",
          "type": "uint32"
        }
      ],
      "stateMutability": "pure",
      "type": "function"
    }
  ],
  "bytecode": {
    "object": "0x61028a61003a600b82828239805160001a60731461002d57634e487b7160e01b600052600060045260246000fd5b30600052607381538281f3fe73000000000000000000000000000000000000000030146080604052600436106100565760003560e01c80637353b3401461005b578063acc0a2461461008d578063ba5cb281146100ae578063e9a6fdc3146100d6575b600080fd5b61006e610069366004610189565b610101565b60405167ffffffffffffffff1990911681526020015b60405180910390f35b6100a061009b366004610189565b610114565b604051908152602001610084565b6100c16100bc366004610189565b610123565b60405163ffffffff9091168152602001610084565b6100e96100e4366004610189565b61012f565b6040516001600160a01b039091168152602001610084565b600061010d838361013b565b9392505050565b600061010d8383016020015190565b600061010d8383610153565b600061010d838361016e565b60008061014b8484016020015190565b949350505050565b6000806101638484016020015190565b60e01c949350505050565b60008061017e8484016020015190565b60601c949350505050565b6000806040838503121561019c57600080fd5b823567ffffffffffffffff808211156101b457600080fd5b818501915085601f8301126101c857600080fd5b8135818111156101da576101da61023e565b604051601f8201601f19908116603f011681019083821181831017156102025761020261023e565b8160405282815288602084870101111561021b57600080fd5b826020860160208301376000602093820184015298969091013596505050505050565b634e487b7160e01b600052604160045260246000fdfea264697066735822122037c6efbf6c377c1ec61062f9adc6003c1e7112a51abaf6abb9ac6f61f716ee0d64736f6c63430008060033",
    "linkReferences": {}
  },
  "methodIdentifiers": {
    "addressAt(bytes,uint256)": "e9a6fdc3",
    "bytes24At(bytes,uint256)": "7353b340",
    "uint256At(bytes,uint256)": "acc0a246",
    "uint32At(bytes,uint256)": "ba5cb281"
  },
  "storageLayout": {
    "storage": [],
    "types": {}
  },
  "id": 23
}