{
  "abi": [
    {
      "inputs": [
        {
          "internalType": "address",
          "name": "_admin",
          "type": "address"
        },
        {
          "internalType": "uint256",
          "name": "_motionDuration",
          "type": "uint256"
        },
        {
          "internalType": "uint256",
          "name": "_motionsCountLimit",
          "type": "uint256"
        },
        {
          "internalType": "uint256",
          "name": "_objectionsThreshold",
          "type": "uint256"
        }
      ],
      "stateMutability": "nonpayable",
      "type": "constructor"
    },
    {
      "anonymous": false,
      "inputs": [
        {
          "indexed": false,
          "internalType": "uint256",
          "name": "_motionDuration",
          "type": "uint256"
        }
      ],
      "name": "MotionDurationChanged",
      "type": "event"
    },
    {
      "anonymous": false,
      "inputs": [
        {
          "indexed": false,
          "internalType": "uint256",
          "name": "_newMotionsCountLimit",
          "type": "uint256"
        }
      ],
      "name": "MotionsCountLimitChanged",
      "type": "event"
    },
    {
      "anonymous": false,
      "inputs": [
        {
          "indexed": false,
          "internalType": "uint256",
          "name": "_newThreshold",
          "type": "uint256"
        }
      ],
      "name": "ObjectionsThresholdChanged",
      "type": "event"
    },
    {
      "anonymous": false,
      "inputs": [
        {
          "indexed": true,
          "internalType": "bytes32",
          "name": "role",
          "type": "bytes32"
        },
        {
          "indexed": true,
          "internalType": "bytes32",
          "name": "previousAdminRole",
          "type": "bytes32"
        },
        {
          "indexed": true,
          "internalType": "bytes32",
          "name": "newAdminRole",
          "type": "bytes32"
        }
      ],
      "name": "RoleAdminChanged",
      "type": "event"
    },
    {
      "anonymous": false,
      "inputs": [
        {
          "indexed": true,
          "internalType": "bytes32",
          "name": "role",
          "type": "bytes32"
        },
        {
          "indexed": true,
          "internalType": "address",
          "name": "account",
          "type": "address"
        },
        {
          "indexed": true,
          "internalType": "address",
          "name": "sender",
          "type": "address"
        }
      ],
      "name": "RoleGranted",
      "type": "event"
    },
    {
      "anonymous": false,
      "inputs": [
        {
          "indexed": true,
          "internalType": "bytes32",
          "name": "role",
          "type": "bytes32"
        },
        {
          "indexed": true,
          "internalType": "address",
          "name": "account",
          "type": "address"
        },
        {
          "indexed": true,
          "internalType": "address",
          "name": "sender",
          "type": "address"
        }
      ],
      "name": "RoleRevoked",
      "type": "event"
    },
    {
      "inputs": [],
      "name": "DEFAULT_ADMIN_ROLE",
      "outputs": [
        {
          "internalType": "bytes32",
          "name": "",
          "type": "bytes32"
        }
      ],
      "stateMutability": "view",
      "type": "function"
    },
    {
      "inputs": [],
      "name": "MAX_MOTIONS_LIMIT",
      "outputs": [
        {
          "internalType": "uint256",
          "name": "",
          "type": "uint256"
        }
      ],
      "stateMutability": "view",
      "type": "function"
    },
    {
      "inputs": [],
      "name": "MAX_OBJECTIONS_THRESHOLD",
      "outputs": [
        {
          "internalType": "uint256",
          "name": "",
          "type": "uint256"
        }
      ],
      "stateMutability": "view",
      "type": "function"
    },
    {
      "inputs": [],
      "name": "MIN_MOTION_DURATION",
      "outputs": [
        {
          "internalType": "uint256",
          "name": "",
          "type": "uint256"
        }
      ],
      "stateMutability": "view",
      "type": "function"
    },
    {
      "inputs": [
        {
          "internalType": "bytes32",
          "name": "role",
          "type": "bytes32"
        }
      ],
      "name": "getRoleAdmin",
      "outputs": [
        {
          "internalType": "bytes32",
          "name": "",
          "type": "bytes32"
        }
      ],
      "stateMutability": "view",
      "type": "function"
    },
    {
      "inputs": [
        {
          "internalType": "bytes32",
          "name": "role",
          "type": "bytes32"
        },
        {
          "internalType": "address",
          "name": "account",
          "type": "address"
        }
      ],
      "name": "grantRole",
      "outputs": [],
      "stateMutability": "nonpayable",
      "type": "function"
    },
    {
      "inputs": [
        {
          "internalType": "bytes32",
          "name": "role",
          "type": "bytes32"
        },
        {
          "internalType": "address",
          "name": "account",
          "type": "address"
        }
      ],
      "name": "hasRole",
      "outputs": [
        {
          "internalType": "bool",
          "name": "",
          "type": "bool"
        }
      ],
      "stateMutability": "view",
      "type": "function"
    },
    {
      "inputs": [],
      "name": "motionDuration",
      "outputs": [
        {
          "internalType": "uint256",
          "name": "",
          "type": "uint256"
        }
      ],
      "stateMutability": "view",
      "type": "function"
    },
    {
      "inputs": [],
      "name": "motionsCountLimit",
      "outputs": [
        {
          "internalType": "uint256",
          "name": "",
          "type": "uint256"
        }
      ],
      "stateMutability": "view",
      "type": "function"
    },
    {
      "inputs": [],
      "name": "objectionsThreshold",
      "outputs": [
        {
          "internalType": "uint256",
          "name": "",
          "type": "uint256"
        }
      ],
      "stateMutability": "view",
      "type": "function"
    },
    {
      "inputs": [
        {
          "internalType": "bytes32",
          "name": "role",
          "type": "bytes32"
        },
        {
          "internalType": "address",
          "name": "account",
          "type": "address"
        }
      ],
      "name": "renounceRole",
      "outputs": [],
      "stateMutability": "nonpayable",
      "type": "function"
    },
    {
      "inputs": [
        {
          "internalType": "bytes32",
          "name": "role",
          "type": "bytes32"
        },
        {
          "internalType": "address",
          "name": "account",
          "type": "address"
        }
      ],
      "name": "revokeRole",
      "outputs": [],
      "stateMutability": "nonpayable",
      "type": "function"
    },
    {
      "inputs": [
        {
          "internalType": "uint256",
          "name": "_motionDuration",
          "type": "uint256"
        }
      ],
      "name": "setMotionDuration",
      "outputs": [],
      "stateMutability": "nonpayable",
      "type": "function"
    },
    {
      "inputs": [
        {
          "internalType": "uint256",
          "name": "_motionsCountLimit",
          "type": "uint256"
        }
      ],
      "name": "setMotionsCountLimit",
      "outputs": [],
      "stateMutability": "nonpayable",
      "type": "function"
    },
    {
      "inputs": [
        {
          "internalType": "uint256",
          "name": "_objectionsThreshold",
          "type": "uint256"
        }
      ],
      "name": "setObjectionsThreshold",
      "outputs": [],
      "stateMutability": "nonpayable",
      "type": "function"
    },
    {
      "inputs": [
        {
          "internalType": "bytes4",
          "name": "interfaceId",
          "type": "bytes4"
        }
      ],
      "name": "supportsInterface",
      "outputs": [
        {
          "internalType": "bool",
          "name": "",
          "type": "bool"
        }
      ],
      "stateMutability": "view",
      "type": "function"
    }
  ],
  "bytecode": {
    "object": "0x60806040523480156200001157600080fd5b5060405162000d9038038062000d908339810160408190526200003491620002b4565b620000416000856200006c565b6200004c836200007c565b62000057826200010f565b620000628162000191565b5050505062000359565b62000078828262000214565b5050565b60408051808201909152600f81526e159053155157d513d3d7d4d3505313608a1b60208201526202a300821015620000d25760405162461bcd60e51b8152600401620000c9919062000301565b60405180910390fd5b5060038190556040518181527f03765c4aa18fde3bfe4015073c2b138ce5a02536dd88ceae9739d3e0dbad5d0e906020015b60405180910390a150565b60408051808201909152600f81526e56414c55455f544f4f5f4c4152474560881b602082015260188211156200015a5760405162461bcd60e51b8152600401620000c9919062000301565b5060028190556040518181527f5e368703b7ab35fe9ef4dbc482cd414476841204c7484b8e834d0d3ac4ed86729060200162000104565b60408051808201909152600f81526e56414c55455f544f4f5f4c4152474560881b60208201526101f4821115620001dd5760405162461bcd60e51b8152600401620000c9919062000301565b5060018190556040518181527fd60715ce58337415334d06256811f30ed8db120287970870d8505e5ed9074c609060200162000104565b6000828152602081815260408083206001600160a01b038516845290915290205460ff1662000078576000828152602081815260408083206001600160a01b03851684529091529020805460ff19166001179055620002703390565b6001600160a01b0316816001600160a01b0316837f2f8788117e7eff1d82e926ec794901d17c78024a50270940304540a733656f0d60405160405180910390a45050565b60008060008060808587031215620002cb57600080fd5b84516001600160a01b0381168114620002e357600080fd5b60208601516040870151606090970151919890975090945092505050565b600060208083528351808285015260005b81811015620003305785810183015185820160400152820162000312565b8181111562000343576000604083870101525b50601f01601f1916929092016040019392505050565b610a2780620003696000396000f3fe608060405234801561001057600080fd5b50600436106101005760003560e01c806391d1485411610097578063d547741f11610066578063d547741f146101e2578063e1637395146101f5578063ef1ae2f6146101fd578063fdc28ab81461021057600080fd5b806391d14854146101b5578063930c2b31146101c8578063a217fddf146101d1578063cdb6aefc146101d957600080fd5b806331a40e6e116100d357806331a40e6e1461017c57806336568abe1461018f57806364993a73146101a257806388407bd4146101ab57600080fd5b806301ffc9a714610105578063248a9ca31461012d5780632f2ff15d1461015e5780633128cce014610173575b600080fd5b61011861011336600461085f565b610223565b60405190151581526020015b60405180910390f35b61015061013b36600461080a565b60009081526020819052604090206001015490565b604051908152602001610124565b61017161016c366004610823565b61025a565b005b61015060025481565b61017161018a36600461080a565b610285565b61017161019d366004610823565b61029e565b61015060035481565b6101506202a30081565b6101186101c3366004610823565b61031d565b61015060015481565b610150600081565b6101506101f481565b6101716101f0366004610823565b610346565b610150601881565b61017161020b36600461080a565b61036c565b61017161021e36600461080a565b610381565b60006001600160e01b03198216637965db0b60e01b148061025457506301ffc9a760e01b6001600160e01b03198316145b92915050565b6000828152602081905260409020600101546102768133610396565b61028083836103fa565b505050565b60006102918133610396565b61029a8261047e565b5050565b6001600160a01b03811633146103135760405162461bcd60e51b815260206004820152602f60248201527f416363657373436f6e74726f6c3a2063616e206f6e6c792072656e6f756e636560448201526e103937b632b9903337b91039b2b63360891b60648201526084015b60405180910390fd5b61029a8282610505565b6000918252602082815260408084206001600160a01b0393909316845291905290205460ff1690565b6000828152602081905260409020600101546103628133610396565b6102808383610505565b60006103788133610396565b61029a8261056a565b600061038d8133610396565b61029a826105e9565b6103a0828261031d565b61029a576103b8816001600160a01b03166014610667565b6103c3836020610667565b6040516020016103d4929190610889565b60408051601f198184030181529082905262461bcd60e51b825261030a916004016108fe565b610404828261031d565b61029a576000828152602081815260408083206001600160a01b03851684529091529020805460ff1916600117905561043a3390565b6001600160a01b0316816001600160a01b0316837f2f8788117e7eff1d82e926ec794901d17c78024a50270940304540a733656f0d60405160405180910390a45050565b60408051808201909152600f81526e159053155157d513d3d7d4d3505313608a1b60208201526202a3008210156104c85760405162461bcd60e51b815260040161030a91906108fe565b5060038190556040518181527f03765c4aa18fde3bfe4015073c2b138ce5a02536dd88ceae9739d3e0dbad5d0e906020015b60405180910390a150565b61050f828261031d565b1561029a576000828152602081815260408083206001600160a01b0385168085529252808320805460ff1916905551339285917ff6391f5c32d9c69d2a47ea670b442974b53935d1edc7fd64eb21e047a839171b9190a45050565b60408051808201909152600f81526e56414c55455f544f4f5f4c4152474560881b60208201526101f48211156105b35760405162461bcd60e51b815260040161030a91906108fe565b5060018190556040518181527fd60715ce58337415334d06256811f30ed8db120287970870d8505e5ed9074c60906020016104fa565b60408051808201909152600f81526e56414c55455f544f4f5f4c4152474560881b602082015260188211156106315760405162461bcd60e51b815260040161030a91906108fe565b5060028190556040518181527f5e368703b7ab35fe9ef4dbc482cd414476841204c7484b8e834d0d3ac4ed8672906020016104fa565b60606000610676836002610949565b610681906002610931565b67ffffffffffffffff811115610699576106996109db565b6040519080825280601f01601f1916602001820160405280156106c3576020820181803683370190505b509050600360fc1b816000815181106106de576106de6109c5565b60200101906001600160f81b031916908160001a905350600f60fb1b8160018151811061070d5761070d6109c5565b60200101906001600160f81b031916908160001a9053506000610731846002610949565b61073c906001610931565b90505b60018111156107b4576f181899199a1a9b1b9c1cb0b131b232b360811b85600f1660108110610770576107706109c5565b1a60f81b828281518110610786576107866109c5565b60200101906001600160f81b031916908160001a90535060049490941c936107ad81610998565b905061073f565b5083156108035760405162461bcd60e51b815260206004820181905260248201527f537472696e67733a20686578206c656e67746820696e73756666696369656e74604482015260640161030a565b9392505050565b60006020828403121561081c57600080fd5b5035919050565b6000806040838503121561083657600080fd5b8235915060208301356001600160a01b038116811461085457600080fd5b809150509250929050565b60006020828403121561087157600080fd5b81356001600160e01b03198116811461080357600080fd5b7f416363657373436f6e74726f6c3a206163636f756e74200000000000000000008152600083516108c1816017850160208801610968565b7001034b99036b4b9b9b4b733903937b6329607d1b60179184019182015283516108f2816028840160208801610968565b01602801949350505050565b602081526000825180602084015261091d816040850160208701610968565b601f01601f19169190910160400192915050565b60008219821115610944576109446109af565b500190565b6000816000190483118215151615610963576109636109af565b500290565b60005b8381101561098357818101518382015260200161096b565b83811115610992576000848401525b50505050565b6000816109a7576109a76109af565b506000190190565b634e487b7160e01b600052601160045260246000fd5b634e487b7160e01b600052603260045260246000fd5b634e487b7160e01b600052604160045260246000fdfea26469706673582212200cefdee2009aa7cac40c12f60ceff60842ad385a8be8c74032433f0f6b142d9f64736f6c63430008060033",
    "linkReferences": {}
  },
  "methodIdentifiers": {
    "DEFAULT_ADMIN_ROLE()": "a217fddf",
    "MAX_MOTIONS_LIMIT()": "e1637395",
    "MAX_OBJECTIONS_THRESHOLD()": "cdb6aefc",
    "MIN_MOTION_DURATION()": "88407bd4",
    "getRoleAdmin(bytes32)": "248a9ca3",
    "grantRole(bytes32,address)": "2f2ff15d",
    "hasRole(bytes32,address)": "91d14854",
    "motionDuration()": "64993a73",
    "motionsCountLimit()": "3128cce0",
    "objectionsThreshold()": "930c2b31",
    "renounceRole(bytes32,address)": "36568abe",
    "revokeRole(bytes32,address)": "d547741f",
    "setMotionDuration(uint256)": "31a40e6e",
    "setMotionsCountLimit(uint256)": "fdc28ab8",
    "setObjectionsThreshold(uint256)": "ef1ae2f6",
    "supportsInterface(bytes4)": "01ffc9a7"
  },
  "storageLayout": {
    "storage": [
      {
        "astId": 5177,
        "contract": "contracts/MotionSettings.sol:MotionSettings",
        "label": "_roles",
        "offset": 0,
        "slot": "0",
        "type": "t_mapping(t_bytes32,t_struct(RoleData)5172_storage)"
      },
      {
        "astId": 3655,
        "contract": "contracts/MotionSettings.sol:MotionSettings",
        "label": "objectionsThreshold",
        "offset": 0,
        "slot": "1",
        "type": "t_uint256"
      },
      {
        "astId": 3658,
        "contract": "contracts/MotionSettings.sol:MotionSettings",
        "label": "motionsCountLimit",
        "offset": 0,
        "slot": "2",
        "type": "t_uint256"
      },
      {
        "astId": 3661,
        "contract": "contracts/MotionSettings.sol:MotionSettings",
        "label": "motionDuration",
        "offset": 0,
        "slot": "3",
        "type": "t_uint256"
      }
    ],
    "types": {
      "t_address": {
        "encoding": "inplace",
        "label": "address",
        "numberOfBytes": "20"
      },
      "t_bool": {
        "encoding": "inplace",
        "label": "bool",
        "numberOfBytes": "1"
      },
      "t_bytes32": {
        "encoding": "inplace",
        "label": "bytes32",
        "numberOfBytes": "32"
      },
      "t_mapping(t_address,t_bool)": {
        "encoding": "mapping",
        "key": "t_address",
        "label": "mapping(address => bool)",
        "numberOfBytes": "32",
        "value": "t_bool"
      },
      "t_mapping(t_bytes32,t_struct(RoleData)5172_storage)": {
        "encoding": "mapping",
        "key": "t_bytes32",
        "label": "mapping(bytes32 => struct AccessControl.RoleData)",
        "numberOfBytes": "32",
        "value": "t_struct(RoleData)5172_storage"
      },
      "t_struct(RoleData)5172_storage": {
        "encoding": "inplace",
        "label": "struct AccessControl.RoleData",
        "numberOfBytes": "64",
        "members": [
          {
            "astId": 5169,
            "contract": "contracts/MotionSettings.sol:MotionSettings",
            "label": "members",
            "offset": 0,
            "slot": "0",
            "type": "t_mapping(t_address,t_bool)"
          },
          {
            "astId": 5171,
            "contract": "contracts/MotionSettings.sol:MotionSettings",
            "label": "adminRole",
            "offset": 0,
            "slot": "1",
            "type": "t_bytes32"
          }
        ]
      },
      "t_uint256": {
        "encoding": "inplace",
        "label": "uint256",
        "numberOfBytes": "32"
      }
    }
  },
  "id": 13
}