{
  "abi": [
    {
      "inputs": [
        {
          "internalType": "address",
          "name": "_rewardAddress",
          "type": "address"
        }
      ],
      "stateMutability": "nonpayable",
      "type": "constructor"
    },
    {
      "inputs": [],
      "name": "active",
      "outputs": [
        {
          "internalType": "bool",
          "name": "",
          "type": "bool"
        }
      ],
      "stateMutability": "view",
      "type": "function"
    },
    {
      "inputs": [
        {
          "internalType": "uint256",
          "name": "_id",
          "type": "uint256"
        },
        {
          "internalType": "bool",
          "name": "_fullInfo",
          "type": "bool"
        }
      ],
      "name": "getNodeOperator",
      "outputs": [
        {
          "internalType": "bool",
          "name": "_active",
          "type": "bool"
        },
        {
          "internalType": "string",
          "name": "_name",
          "type": "string"
        },
        {
          "internalType": "address",
          "name": "_rewardAddress",
          "type": "address"
        },
        {
          "internalType": "uint64",
          "name": "_stakingLimit",
          "type": "uint64"
        },
        {
          "internalType": "uint64",
          "name": "_stoppedValidators",
          "type": "uint64"
        },
        {
          "internalType": "uint64",
          "name": "_totalSigningKeys",
          "type": "uint64"
        },
        {
          "internalType": "uint64",
          "name": "_usedSigningKeys",
          "type": "uint64"
        }
      ],
      "stateMutability": "view",
      "type": "function"
    },
    {
      "inputs": [],
      "name": "id",
      "outputs": [
        {
          "internalType": "uint256",
          "name": "",
          "type": "uint256"
        }
      ],
      "stateMutability": "view",
      "type": "function"
    },
    {
      "inputs": [],
      "name": "rewardAddress",
      "outputs": [
        {
          "internalType": "address",
          "name": "",
          "type": "address"
        }
      ],
      "stateMutability": "view",
      "type": "function"
    },
    {
      "inputs": [
        {
          "internalType": "bool",
          "name": "_active",
          "type": "bool"
        }
      ],
      "name": "setActive",
      "outputs": [],
      "stateMutability": "nonpayable",
      "type": "function"
    },
    {
      "inputs": [
        {
          "internalType": "uint256",
          "name": "_id",
          "type": "uint256"
        }
      ],
      "name": "setId",
      "outputs": [],
      "stateMutability": "nonpayable",
      "type": "function"
    },
    {
      "inputs": [
        {
          "internalType": "uint256",
          "name": "_id",
          "type": "uint256"
        },
        {
          "internalType": "uint64",
          "name": "_stakingLimit",
          "type": "uint64"
        }
      ],
      "name": "setNodeOperatorStakingLimit",
      "outputs": [],
      "stateMutability": "nonpayable",
      "type": "function"
    },
    {
      "inputs": [
        {
          "internalType": "address",
          "name": "_rewardAddress",
          "type": "address"
        }
      ],
      "name": "setRewardAddress",
      "outputs": [],
      "stateMutability": "nonpayable",
      "type": "function"
    },
    {
      "inputs": [
        {
          "internalType": "uint64",
          "name": "_stakingLimit",
          "type": "uint64"
        }
      ],
      "name": "setStakingLimit",
      "outputs": [],
      "stateMutability": "nonpayable",
      "type": "function"
    },
    {
      "inputs": [
        {
          "internalType": "uint64",
          "name": "_totalSigningKeys",
          "type": "uint64"
        }
      ],
      "name": "setTotalSigningKeys",
      "outputs": [],
      "stateMutability": "nonpayable",
      "type": "function"
    },
    {
      "inputs": [],
      "name": "stakingLimit",
      "outputs": [
        {
          "internalType": "uint64",
          "name": "",
          "type": "uint64"
        }
      ],
      "stateMutability": "view",
      "type": "function"
    },
    {
      "inputs": [],
      "name": "totalSigningKeys",
      "outputs": [
        {
          "internalType": "uint64",
          "name": "",
          "type": "uint64"
        }
      ],
      "stateMutability": "view",
      "type": "function"
    }
  ],
  "bytecode": {
    "object": "0x608060405260016000819055805475c800000000000000000000000000000000000000000160ff600160a81b03600160e81b0319909116179055600280546001600160401b03191661019017905534801561005957600080fd5b506040516105b13803806105b1833981016040819052610078916100a3565b600180546001600160a01b0390921661010002610100600160a81b03199092169190911790556100d3565b6000602082840312156100b557600080fd5b81516001600160a01b03811681146100cc57600080fd5b9392505050565b6104cf806100e26000396000f3fe608060405234801561001057600080fd5b50600436106100b45760003560e01c80639a56983c116100715780639a56983c146101c7578063acec338a14610227578063ae962acf14610248578063af640d0f14610285578063bc3f2c421461029c578063d0e0ba95146102ce57600080fd5b806302fb0c5e146100b95780631f87afe3146100db57806349aa285f1461011957806355ba2f4f146101465780635e00e679146101615780638cf57cb914610197575b600080fd5b6001546100c69060ff1681565b60405190151581526020015b60405180910390f35b6101176100e93660046103c1565b6001805467ffffffffffffffff909216600160a81b0267ffffffffffffffff60a81b19909216919091179055565b005b60025461012d9067ffffffffffffffff1681565b60405167ffffffffffffffff90911681526020016100d2565b60015461012d90600160a81b900467ffffffffffffffff1681565b61011761016f36600461030e565b600180546001600160a01b0390921661010002610100600160a81b0319909216919091179055565b6001546101af9061010090046001600160a01b031681565b6040516001600160a01b0390911681526020016100d2565b6102146101d5366004610372565b505060015460025460ff8216926060926001600160a01b036101008204169267ffffffffffffffff600160a81b90920482169260009291909116908290565b6040516100d297969594939291906103dc565b61011761023536600461033e565b6001805460ff1916911515919091179055565b61011761025636600461039e565b6001805467ffffffffffffffff909216600160a81b0267ffffffffffffffff60a81b1990921691909117905550565b61028e60005481565b6040519081526020016100d2565b6101176102aa3660046103c1565b6002805467ffffffffffffffff191667ffffffffffffffff92909216919091179055565b6101176102dc366004610359565b600055565b803580151581146102f157600080fd5b919050565b803567ffffffffffffffff811681146102f157600080fd5b60006020828403121561032057600080fd5b81356001600160a01b038116811461033757600080fd5b9392505050565b60006020828403121561035057600080fd5b610337826102e1565b60006020828403121561036b57600080fd5b5035919050565b6000806040838503121561038557600080fd5b82359150610395602084016102e1565b90509250929050565b600080604083850312156103b157600080fd5b82359150610395602084016102f6565b6000602082840312156103d357600080fd5b610337826102f6565b87151581526000602060e08184015288518060e085015260005b81811015610413578a8101830151858201610100015282016103f6565b8181111561042657600061010083870101525b50601f01601f1916830161010001915061044d905060408301886001600160a01b03169052565b67ffffffffffffffff8616606083015267ffffffffffffffff8516608083015267ffffffffffffffff841660a083015267ffffffffffffffff831660c08301529897505050505050505056fea264697066735822122001b67042cfca86b556e88d4151aeacb616bbfd15af5aa7f3a8304ebb4e62074564736f6c63430008060033",
    "linkReferences": {}
  },
  "methodIdentifiers": {
    "active()": "02fb0c5e",
    "getNodeOperator(uint256,bool)": "9a56983c",
    "id()": "af640d0f",
    "rewardAddress()": "8cf57cb9",
    "setActive(bool)": "acec338a",
    "setId(uint256)": "d0e0ba95",
    "setNodeOperatorStakingLimit(uint256,uint64)": "ae962acf",
    "setRewardAddress(address)": "5e00e679",
    "setStakingLimit(uint64)": "1f87afe3",
    "setTotalSigningKeys(uint64)": "bc3f2c42",
    "stakingLimit()": "55ba2f4f",
    "totalSigningKeys()": "49aa285f"
  },
  "storageLayout": {
    "storage": [
      {
        "astId": 5030,
        "contract": "contracts/test/NodeOperatorsRegistryStub.sol:NodeOperatorsRegistryStub",
        "label": "id",
        "offset": 0,
        "slot": "0",
        "type": "t_uint256"
      },
      {
        "astId": 5033,
        "contract": "contracts/test/NodeOperatorsRegistryStub.sol:NodeOperatorsRegistryStub",
        "label": "active",
        "offset": 0,
        "slot": "1",
        "type": "t_bool"
      },
      {
        "astId": 5035,
        "contract": "contracts/test/NodeOperatorsRegistryStub.sol:NodeOperatorsRegistryStub",
        "label": "rewardAddress",
        "offset": 1,
        "slot": "1",
        "type": "t_address"
      },
      {
        "astId": 5038,
        "contract": "contracts/test/NodeOperatorsRegistryStub.sol:NodeOperatorsRegistryStub",
        "label": "stakingLimit",
        "offset": 21,
        "slot": "1",
        "type": "t_uint64"
      },
      {
        "astId": 5041,
        "contract": "contracts/test/NodeOperatorsRegistryStub.sol:NodeOperatorsRegistryStub",
        "label": "totalSigningKeys",
        "offset": 0,
        "slot": "2",
        "type": "t_uint64"
      }
    ],
    "types": {
      "t_address": {
        "encoding": "inplace",
        "label": "address",
        "numberOfBytes": "20"
      },
      "t_bool": {
        "encoding": "inplace",
        "label": "bool",
        "numberOfBytes": "1"
      },
      "t_uint256": {
        "encoding": "inplace",
        "label": "uint256",
        "numberOfBytes": "32"
      },
      "t_uint64": {
        "encoding": "inplace",
        "label": "uint64",
        "numberOfBytes": "8"
      }
    }
  },
  "id": 29
}